:020000040800F2
:10000000585B00205D020008D3550008314000080D
:10001000D1550008890A0008615F0008000000004F
:100020000000000000000000000000009D0100082A
:10003000410D000800000000F9010008ED5700081C
:1000400077020008770200087702000877020008AC
:10005000770200087702000877020008770200089C
:10006000770200087702000877020008770200088C
:100070001D0C0008770200087702000877020008CC
:10008000770200087702000877020008770200086C
:100090008D0A00087702000877020008430D000867
:1000A000770200087702000877020008770200084C
:1000B000E958000877020008770200087702000874
:1000C000770200087702000877020008770200082C
:1000D00077020008155F000877020008315F00080A
:1000E000770200087702000877020008770200080C
:1000F00077020008F5580008770200087702000828
:1001000077020008770200087702000877020008EB
:1001100077020008770200087702000877020008DB
:10012000290C000877020008350C0008410C000873
:1001300077020008770200087702000877020008BB
:10014000510B0008770200087702000877020008C8
:100150004D0C0008590C0008650C0008455F0008AC
:10016000770200087702000877020008770200088B
:1001700077020008770200087702000800000000FC
:100180007702000877020008DFF80CD000F048FB87
:1001900000480047796F0008585B00202C4B196815
:1001A0000868B0E8F04F80F30988BFF36F8F4FF015
:1001B000000080F3118870470000000008480068C4
:1001C000006880F308884FF0000080F3148862B65E
:1001D00061B6BFF34F8FBFF36F8F00DF00BF00BF6B
:1001E00008ED00E0DFF80C00016841F470010160E7
:1001F000704700BF88ED00E0EFF30980BFF36F8F19
:10020000134B1A681EF0100F08BF20ED108A20E96A
:10021000F04F106009B44FF0500080F31188BFF325
:100220004F8FBFF36F8F08F01FF84FF0000080F37F
:10023000118809BC19680868B0E8F04F1EF0100F6B
:1002400008BFB0EC108A80F30988BFF36F8F704746
:1002500020000020EFF3058070470000064880472B
:1002600006480047FEE7FEE7FEE7FEE7FEE7FEE79B
:10027000FEE7FEE7FEE7FEE7915800088901000867
:100280002DE9F05F0546002092469B4688460646CB
:10029000814640241BE0284641464746224600F05E
:1002A00009FA53465A46C01A914110D311461846CE
:1002B000224600F0F0F92D1A67EB01084F4622465E
:1002C0000120002100F0E7F917EB00094E41201E44
:1002D000A4F10104DFDC484631462A464346BDE826
:1002E000F09F2DE9F0410024061B254671F1000620
:1002F00005DA01240027D0EB070067EB0101161E89
:1003000073F1000605DA0027D2EB0702012567EB3F
:100310000303FFF7B5FF86460E4617469C46AC42E0
:1003200004D00025D0EB050E65EB010624B10020BA
:10033000D2EB000760EB030C704631463A46634649
:10034000BDE8F08140EA01039B0703D009E008C93A
:10035000121F08C0042AFAD203E011F8013B00F88A
:10036000013B521EF9D27047D2B201E000F8012BD6
:10037000491EFBD270470022F6E710B513460A4625
:1003800004461946FFF7F0FF204610BD2DE9FE4F49
:10039000804681EA0300C00F0C46009021F0004126
:1003A00023F00045B8EB0200A94105D240462146A2
:1003B00090461C460B46024623F00040104347D0AF
:1003C000270DC7F30A00C3F30A510290401A0190A7
:1003D00040286BDAC3F3130040F4801B0098924668
:1003E00020B10023D2EB030A63EB0B0B01985946B3
:1003F000C0F14002504600F04EF906460D46504608
:100400005946019A00F066F910EB0800614100249A
:1004100087EA115284EAE7731A4340D0009A62B324
:10042000019A012A4FEA075215DC001B61EB020119
:100430004FF0004202EA0752CDE90042001C41F5AC
:10044000801132462B4600F09DF903B0BDE8F08FD5
:1004500040462146F9E7001B61EB0201001C41F513
:10046000801300185B412018A2F5001747EB030129
:1004700040EAD570B6196D4111E06D084FEA3606B5
:1004800045EAC0754FEA0752001B61EB0201001CF0
:1004900041F5801149084FEA3000001951413246B8
:1004A0002B4603B0BDE8F04F00F05DB90098012283
:1004B00040000023D0EB020263EBE073009821467A
:1004C0004FEAE074B8EB000061EB0401E9E783F068
:1004D00000435BE781F0004158E72DE9FE4F81EAD8
:1004E000030404F0004421F0004100944FF0000B9D
:1004F00023F0004350EA01045ED052EA03045BD0CB
:10050000C3F30A54C1F30A552C44A4F2F334019402
:10051000A0FB0254C1F3130141F48011C3F3130390
:1005200043F4801301FB024400FB034E840A970A44
:1005300044EA815447EA8357A4FB076802958D0A71
:1005400005FB07854FEA932C04FB0C542705029DFD
:100550004FEA065847EA1637B5EB08056EEB070C6D
:10056000870E920E47EA811742EA8312A7FB020127
:10057000B6EB0B0164EB00042B0D43EA0C335E1861
:1005800044EB1C50DA465146E7FB0201C5F3130465
:100590004FEA0B3343EA14534FEA0432019C43EA17
:1005A0000603A4F10C040294009CCDE900B400F011
:1005B000E9F803B0BDE8F08F00200146F9E7F0B498
:1005C000CA17CB0F50405140C61841F100054FEA01
:1005D000C372314628004FF0960303D0B623F0BC17
:1005E00000F093B830460021F9E730B40446962372
:1005F0000800214604D0B62330BC002200F085B8A4
:1006000020460021F8E7C1F30A5210B5C1F31301E7
:1006100040F2FF3341F480119A4201DA002010BD0C
:1006200040F233439A42A2F2334203DC524200F0DA
:1006300041F810BD904010BD00F0004230F0004085
:100640000AD0C10D01F56071C0F3160042EA0151F4
:10065000C20840071143704700200146704701F06F
:10066000004330B421F0004150EA010206D00A0DE7
:10067000A2F56072C1F31301002A02DC30BC002035
:100680007047440F44EAC104C100E01830BC00EBDD
:10069000C25000F031B8202A04DB203A00FA02F1FF
:1006A000002070479140C2F1200320FA03F3194360
:1006B00090407047202A04DB203A21FA02F0002102
:1006C000704721FA02F3D040C2F120029140084362
:1006D00019467047202A06DBCB17203A41FA02F070
:1006E00043EAE07306E041FA02F3D040C2F120028F
:1006F00091400843194670470029A8BF7047401C25
:10070000490008BF20F00100704710B4B0FA80FC27
:1007100000FA0CF050EA010404BF10BC704749B164
:10072000CCF1200421FA04F411FA0CF118BF0121D4
:1007300021430843A3EB0C01CB1D4FEA00614FEAB4
:10074000102042BF002010BC704700EBC350104483
:100750000029A4BF10BC7047401C490008BF20F00E
:10076000010010BC704710B5141E73F1000408DAC4
:10077000401C41F1000192185B411A4301D120F065
:10078000010010BD2DE9F04D92469B4611B1B1FA22
:1007900081F202E0B0FA80F220329046FFF77BFF50
:1007A00004460F4640EA0A0041EA0B0153465A4606
:1007B000084313D0114653EA010019D0C8F1400292
:1007C0005046FFF777FF05460E46504659464246CB
:1007D000FFF761FF084305D0012004E020463946B9
:1007E000BDE8F08D0020054346EAE0762C43374310
:1007F0000A986305E40AA0EB08000022FD0A44EA17
:1008000047540A3002D500200146E9E701051019D6
:100810006941DDE9084500196941BDE8F04DA2E7ED
:10082000064C074D06E0E06840F0010394E807003D
:1008300098471034AC42F6D3FFF7AAFC308F00087B
:10084000508F000801221021014801F024BB000054
:100850000000024000221021014801F01CBB0000F2
:10086000000002407047000001221146014801F0DB
:1008700012BB00000004024000220121014801F0E7
:100880000ABB000000040240704770B5411E8CB2E4
:100890002CBF4FF47A7570BD4FF47A70B0FBF5F051
:1008A00001F0ACF9611E8CB2F6D270BD4FF47A71D2
:1008B000B0FBF1F001F0A2B910B5FFF7D3FFFFF7DD
:1008C000E3FF06F069F8044606F0F0F8204310BD97
:1008D0002DE9F04383B00746002016468846009075
:1008E0000190FFF7B7FF922000F0BCF86D46062498
:1008F000922000F0B7F8552000F0B4F805F8010B8D
:10090000601E10F0FF04F6D1FFF79CFF9DF8010078
:100910009DF80010000200B2084300EE100ADFF854
:100920004091B8EEC00AD9ED000A20EE200A88ED09
:10093000000A9DF803009DF80210000200B208436F
:1009400000EE100AF8EEC00A99ED000A60EE800A87
:10095000C8ED010A9DF805009DF80410000200B2E0
:10096000084300EE900AF8EEE00A20EE800A88EDD7
:10097000020AFFF781FF6D460824802000F072F81C
:10098000552000F06FF805F8010B601E10F0FF0411
:10099000F6D1FFF769FF9DF800000F2830D19DF8D0
:1009A00003009DF80210000200B2084300EE100A96
:1009B000D9ED010AB8EEC00A20EE200A87ED000A40
:1009C0009DF805009DF80410000200B2084300EEF7
:1009D000100AF8EEC00A99ED010A60EE800AC7ED30
:1009E000010A9DF807009DF80610000200B20843B6
:1009F00000EE900AF8EEE00A20EE800A87ED020A87
:100A0000FFF728FFA22000F02DF86D460224A22057
:100A100000F028F8552000F025F805F8010B601EBD
:100A200010F0FF04F6D1FFF70DFF9DF800009DF8D0
:100A30000110C00040EA5110B0F5806FA8BFA0F5CA
:100A4000006000EE100AB4EE001AF8EEC00AB3EE31
:100A5000070A00EE810A86ED000A03B0BDE8F083C4
:100A6000A000002001B582B04FF47A7000900123FD
:100A700001AA02A9034802F00BFA9DF8040003B092
:100A800000BD0000F8010020FEE70000014800F072
:100A900018BB00000001002030B52B4D83B04FF48F
:100AA000007028600020A860E860082005F130048C
:100AB0002861208802AB010A8DF800108DF8010032
:100AC000208C6A46010A8DF802108DF80300B4F8F4
:100AD0004000010A8DF804108DF80500B4F860009C
:100AE000010A8DF806108DF80700A4F130011748AF
:100AF00000F045F940F2FF102860B4F8800002AB26
:100B0000010A8DF80010001D8DF80100B4F8A00056
:100B10006A46010A8DF802108DF80300B4F8C0008F
:100B2000010A8DF804108DF80500B4F8E000010A00
:100B30008DF806108DF80700A4F13001034800F08D
:100B40001EF903B030BD000040530020000100201A
:100B5000014800F0B6BA00002801002030B52B4D46
:100B600083B04FF4007028600020A860E86008207F
:100B700005F58C742861208802AB010A8DF80010FD
:100B80008DF80100208C6A46010A8DF802108DF85C
:100B90000300B4F84000010A8DF804108DF8050038
:100BA000B4F86000010A8DF806108DF80700A4F56E
:100BB0008C71174800F0E3F840F2FF102860B4F899
:100BC000800002AB010A8DF80010001D8DF80100B5
:100BD000B4F8A0006A46010A8DF802108DF80300EF
:100BE000B4F8C000010A8DF804108DF80500B4F8BF
:100BF000E000010A8DF806108DF80700A4F58C714D
:100C0000034800F0BCF803B030BD0000585300208A
:100C10002801002006F004F8FEE70000014800F07B
:100C20000BBE000004060020014800F005BE0000D5
:100C300050020020014800F0FFBD000064060020C3
:100C4000014800F0F9BD0000B0020020014800F0AA
:100C5000F3BD000044050020014800F0EDBD000098
:100C6000C4060020014800F0E7BD0000A4050020F4
:100C70002D4882B00068016811F0200F04D001688F
:100C80004068009002B070472849096811F0100FC1
:100C900004BF02B07047016840680090244A1068A1
:100CA0000168244B11F4002F01684FF0240C21F04F
:100CB000010101601BD011684868C0F1240080B2B6
:100CC0001880C1F804C01C498B6A23F400238B628E
:100CD00011680A6842F001020A6012281CBF02B0C3
:100CE0007047164902B001F13A0006F0EBBF1068F8
:100CF0004168C1F1240189B21980C0F804C01068AC
:100D0000036843F4002303601068026842F00102A4
:100D1000026012291CBF02B07047084902B001F1FD
:100D2000160006F0CFBF0000BC04002000480040C1
:100D300004060020CC000020006002407055002016
:100D4000704710B5202000F083FFBDE810408020E0
:100D500000F07EBF704701F0A3B890F82020012A70
:100D600018BF022A05D0416A41F480214162012066
:100D7000704700684269114341610020704770B4B8
:100D800090F82040D0F800C0DCF808C0012C18BF53
:100D9000022C06D0416A41F48021416270BC0120DE
:100DA00070471CF0E05F55D0CCF3016CBCF1020F32
:100DB00006D9416A41F40001416270BC01207047CC
:100DC000012404FA0CF41C608B684FF4C0749BB1CE
:100DD000CD6804EB0C162B434D6843EAC503056848
:100DE000AB514FF4C273066803EB0C130D69F55059
:100DF000097D01290ED108E00D88CB6804EB0C16A3
:100E000043EA45530568AB51EBE70168CD5845F41B
:100E10008075CD501179D2F805304FF4C67541EA8E
:100E20000321036805EB0C1559511178D2F8012004
:100E30004FF4C47341EA0222016803EB0C13CA5059
:100E4000006804EB0C11425842F00102425070BCA1
:100E500000207047416A41F40011416270BC0120DA
:100E60007047000090F82020012A18BF022A05D000
:100E7000416A41F480214162012070473D48D0F829
:100E8000002242F00102C0F80022D0F8002222F431
:100E90007C52C0F80022D0F800224B6A42EA0322BA
:100EA000C0F800220A7D012302F01F0203FA02F2B9
:100EB000D0F81C329343C0F81C32CB69D3B9D0F8B8
:100EC0000C329343C0F80C32B1F80CC04B686CF391
:100ED0001F43D1F814C000EBCC0CCCF84032B1F871
:100EE00008C00B686CF31F43D1F814C000EBCC0CA6
:100EF000CCF84432CB69012B1AD1D0F80C32134311
:100F0000C0F80C32B1F800C04B686CF31F43D1F845
:100F100014C000EBCC0CCCF84032B1F808C0CB6860
:100F20006CF31F43D1F814C000EBCC0CCCF8443266
:100F30008B69002BD0F804320CBF93431343C0F8E5
:100F400004320B69002BD0F814320CBF93431343C7
:100F5000C0F81432096A012904D1D0F81C121143D7
:100F6000C0F81C12D0F8001221F00101C0F80012E4
:100F70000020704700640040704710B490F820C013
:100F8000BCF1010F18BFBCF1020F06D0416A41F459
:100F90008021416210BC01207047D0F800C029B107
:100FA000DCF810C01CF0030F7DD004E0DCF80CC0AE
:100FB0001CF0030F7ED04FF4D87C04680CEB011CAE
:100FC00054F80C4014F004049460046854F80C4085
:100FD00007BF640D1460E4085460046854F80CC042
:100FE0000CF0020CC2F80CC04FF4DA7C04680CEB75
:100FF000011C54F80C4004F00F041461046854F808
:101000000C40C4F307249461046854F80CC04FEA00
:101010001C4CC2F814C04FF4DC72D0F800C002EBD4
:1010200001125CF802C083F800C0D0F800C05CF880
:1010300002C04FEA1C2C83F801C0D0F800C05CF855
:1010400002C04FEA1C4C83F802C0D0F800C05CF824
:101050000220120EDA704FF4DE72D0F800C002EBFC
:1010600001125CF802C083F804C0D0F800C05CF83C
:1010700002C04FEA1C2C83F805C0D0F800C05CF811
:1010800002C04FEA1C4C83F806C0D0F800C05CF8E0
:101090000220120EDA71006800290CBFC1680169D4
:1010A00041F0200100E005E00CBFC16001610020BB
:1010B00010BC7047416A41F40011416210BC01202C
:1010C00070472DE9F05F0546006800244669D0F8B6
:1010D00004908768D0F80CB0D0F810A0D0F8188031
:1010E00016F0010F25D017F0010F07D00121816004
:1010F00017F0020F7CD0284600F033FB17F4807FF6
:1011000009D029684FF48070886017F4007F70D090
:10111000284600F028FB17F4803F0AD029684FF4D6
:101120008030886017F4003F00F0B980284600F056
:101130001CFB16F0080F18BF1BF0100F04D0296815
:10114000102044F40074C86016F0040F4FF0080734
:1011500018BF1BF0080F04D02868C760284600F0AD
:10116000D7F916F0020F07D02868C06810F0030FF7
:101170001CBF284600F0CEF916F0400F18BF1AF039
:10118000100F04D02968102044F48064086116F020
:10119000200F18BF1AF0080F04D0286807612846EE
:1011A00000F0AAFA16F0100F07D02868006910F0B6
:1011B000030F1CBF284600F0A0FA16F4003F18BF2A
:1011C00019F0100F05D0296810204860284600F05B
:1011D00095FA16F4803F18BF19F0080F04D028685C
:1011E0004760284600F0C2FA16F4004F78D001E0BC
:1011F00035E044E019F0040F6FD016F4807F1CBF77
:1012000018F0010F44F0010416F4007F1CBF18F021
:10121000020F44F0020416F4806F1CBF18F0040F94
:1012200044F0040416F4006F18BF18F0700F54D087
:1012300008F07000402808BF44F0400448D03EDC6D
:10124000102808BF44F0080442D0202808BF44F00A
:1012500010043DD0302808BF44F0200438E017F0D7
:10126000040F18BF4FF400647FF448AF17F0080F65
:101270000ABF28464FF4805400F072FA3EE717F494
:10128000806F18BF44F400547FF445AF17F4006F2B
:101290000ABF284644F4804400F064FA3BE717F4A0
:1012A000802F18BF44F400447FF443AF17F4002F9D
:1012B0000ABF284644F4803400F056FA39E7502833
:1012C00008BF44F0800403D0602808BF44F4807451
:1012D0002868816921F070018161296804204860D3
:1012E000002C08BFBDE8F09F686A2043686228466A
:1012F000FFF742FEBDE8F09F002804BF01207047C1
:1013000070B5044690F82000002804BF204600F085
:1013100087F82068016821F00201016000F0C0FD3B
:101320000546206840684FF0050610F0020F09D00E
:1013300000F0B6FD401B0A2816D82068406810F05F
:10134000020FF5D12068016841F00101016000F051
:10135000A7FD05462068406810F0010F11D100F08C
:101360009FFD401B0A2807D9606A40F40030606284
:1013700084F82060012070BD2068406810F0010FE3
:10138000EDD0207E0128206801680CBF41F080016B
:1013900021F080010160607E0128206801680CBF97
:1013A00041F0400121F040010160A07E0128206849
:1013B00001680CBF41F0200121F020010160E07EB6
:1013C0000128206801680CBF21F0100141F01001D4
:1013D0000160207F0128206801680CBF41F00801EE
:1013E00021F008010160607F0128206801680CBFBE
:1013F00041F0040121F004010160D4E90201084335
:10140000D4E90412114308436168491E0843216866
:10141000C86100206062012084F82000002070BDB7
:10142000F0B587B00021354E0091019102910391F2
:10143000049101683068324B02240925314A401C6E
:10144000A1F180474FF0030CB7F5C84710D0B7F5AE
:1014500080671CBF07B0F0BD116841F0806111606A
:101460001168012801F08061059130602BD122E0E4
:101470003060012807D1106840F0007010601068DB
:1014800000F000700590186840F0080018601868B7
:10149000CDE900C400F00800CDE904506946CDF85C
:1014A0000CC0194800F0E0FB00220521142001F0D7
:1014B00087F814201EE0106840F00070106010687B
:1014C00000F000700590186840F00200186018687D
:1014D000694600F0020005906020CDE90004CDE9E6
:1014E00003C50A4800F0C0FB00220521402001F09E
:1014F00067F8402001F054F807B0F0BD0C00002060
:101500003038024040380240000C024000040240E3
:101510007047000010B58AB004466B4602AA00214D
:10152000FFF72BFD714884420CBF71497149029845
:10153000A0F20122082A24BF0AB010BDDFE802F0A1
:101540000417304C6884A0BC48884881BDF800006E
:1015500042BA4A80BDF80200002240BA8880BDF835
:10156000040040BAC8809DF80600087216E031F801
:10157000220F0881BDF8000040BA21F8020BBDF827
:10158000020042BA21F8022BBDF80400012240BA41
:1015900021F8020B9DF8060001F80809204687E0B3
:1015A00031F8420F02220881BDF8000040BA21F84C
:1015B000020BBDF8020040BA21F8020BBDF804008E
:1015C00040BA21F8020B9DF8060001F808094748C7
:1015D00005F020FE0AB010BD31F8620F022208812A
:1015E000BDF8000040BA21F8020BBDF8020040BA75
:1015F00021F8020BBDF8040040BA21F8020B9DF857
:10160000060001F80809394805F004FE0AB010BDCB
:1016100031F8820F02220881BDF8000040BA21F89B
:10162000020BBDF8020040BA21F8020BBDF804001D
:1016300040BA21F8020B9DF8060001F808092B4872
:1016400005F0E8FD0AB010BD31F8A20F02220881B2
:10165000BDF8000040BA21F8020BBDF8020040BA04
:1016600021F8020BBDF8040040BA21F8020B9DF8E6
:10167000060001F808091D4805F0CCFD0AB010BDB0
:1016800031F8C20F02220881BDF8000040BA21F8EB
:10169000020BBDF8020040BA21F8020BBDF80400AD
:1016A00040BA21F8020B9DF8060001F808090F481E
:1016B00005F0B0FD0AB010BD31F8E20F022208813A
:1016C000BDF8000040BA21F8020BBDF8020040BA94
:1016D00021F8020BBDF8040040BA21F8020B9DF876
:1016E000060001F808090148E2E7000000010020B7
:1016F000705300207054002070477047704770B5D9
:10170000044690F82000012804D0606A40F40020CC
:1017100060621BE0022084F820002068016821F04C
:101720000101016000F0BCFB05462068406810F034
:10173000010F12D000F0B4FB401B0A2808D9606AE0
:1017400040F400306062052084F82000012070BD64
:101750002068406810F0010FECD10020606270BD7D
:1017600070477047704770477047704770472DE962
:10177000F0410446866D00F093FB054694F8350071
:101780000027022806D08020606584F8347001208C
:10179000BDE8F0812068016821F016010160206831
:1017A000416921F080014161206C002804BFA06CD8
:1017B000002804D02068016821F008010160206839
:1017C000016821F0010101602068006810F0010F3C
:1017D00012D000F065FB401B052808D92020606569
:1017E00084F83470032084F83500BDE8F081206867
:1017F000006810F0010FECD194F85C003F2101FA71
:1018000000F0B06084F83470012084F835000020C6
:10181000BDE8F08190F83510022903D080214165A0
:1018200001207047052180F835100068016821F01B
:1018300001010160002070472DE9F84304464FF094
:101840000008CDF8008071484FF41651A56D00686E
:10185000B0FBF1F72E6894F85C00082101FA00F063
:10186000304211D02068026812F0040F0CD00268D8
:1018700022F00402026094F85C0001FA00F0A86013
:10188000606D40F00100606594F85C004FF0010964
:1018900009FA00F0304209D02168496911F0800F3F
:1018A00004D0A860606D40F00200606594F85C10A0
:1018B00004208840304209D02168096811F0020FE5
:1018C00004D0A860606D40F00400606594F85C107E
:1018D00010208840304220D02168096811F0080F9C
:1018E0001BD0A8602068016811F4802F09D000681F
:1018F00010F4002F02D0A16C79B10CE0216C51B929
:101900000BE0016811F4807F03D1016821F0080128
:101910000160216C09B12046884794F85C102020B2
:101920008840304249D02168096811F0100F44D036
:10193000A86094F8350005282068016809D011F4E2
:10194000802F2AD0006810F4002F23D0E16B19B348
:1019500031E021F0160101602068416921F0800129
:101960004161206C002804BFA06C002804D02068CE
:10197000016821F00801016094F85C003F2101FA40
:1019800000F0A86084F8348084F83590216DC1BBE4
:10199000BDE8F883616C71B90FE0016811F4807FD4
:1019A00007D1016821F01001016084F8348084F8C7
:1019B0003590E16B09B120468847606D002808BF6B
:1019C000BDE8F883606D10F0010F15D0052084F894
:1019D00035002068016821F0010101600098401C79
:1019E0000090B84204D82068006810F0010FF5D1CB
:1019F00084F8348084F83590E16C002908BFBDE894
:101A0000F883204601B0BDE8F04308471C000020E1
:101A100070B5044600F044FA0646002C04BF0120CD
:101A200070BD002584F83450022084F83500206809
:101A3000016821F0010101602068006810F0010FC9
:101A40000FD000F02DFA801B052805D920206065F5
:101A5000032084F8350070BD2068006810F0010F85
:101A6000EFD1216808683A4A1040D4E901231A43AB
:101A7000D4E9033C43EA0C031A4363691A43A3699C
:101A80001A43E3691A43236A1A431043626A042A19
:101A900003D1D4E90B231A43104308602668706908
:101AA0004FF0010C20F00701606A40EA01020428AF
:101AB00035D1A16AE06A0A4318B3A36953B1B3F5FB
:101AC000005F14D000291CBF0129022921D003295D
:101AD0001CD024E019B1012905D002291FD110F032
:101AE000807F1CD015E0B0F1C07F18D111E081B12A
:101AF000012907D002290CD0032908BFB0F1C07F0B
:101B000007D00CE010F0807F03D108E010F0807F58
:101B100005D04020606584F835C0012070BD726139
:101B200020680C4AC1B21039A2FB01210A4A0909F6
:101B30000329525CE2656FF3090088BF001D3F2155
:101B40009140A0658160656584F835C0002070BD56
:101B50003F8010F0ABAAAAAABC8E000870B490F81F
:101B600034C00024856DBCF1010F02BF022070BC9F
:101B700070474FF0010C80F834C090F835604FF09A
:101B8000000C012E1CBF80F834C0022402D0204675
:101B900070BC7047022680F83560C0F854C0D0F899
:101BA00000C0DCF8006026F48026CCF80060D0F895
:101BB00000C0CCF804308368402B036803BF9A60F0
:101BC0000268D16099601CBF0168CA6090F85C101F
:101BD0003F2202FA01F1A96001680A6842F0160288
:101BE0000A60016C21B101680A6842F008020A60CB
:101BF0000068016841F001010160C8E770B5044662
:101C000000F04EF90546B4F1FF3F02D004480078D9
:101C1000044400F045F9401BA042FAD370BD000017
:101C200010000020802818BF704710B540210648DA
:101C300000F02CF90146054806F0FAF8BDE810401E
:101C40006FF0FF0005F074B9002002404050002002
:101C500004490A68024208BF704710B50860FFF7E0
:101C6000E1FF10BD143C01402DE9F84FDFF810A250
:101C70000022DFF808924FF0010E03274FF00F0803
:101C80000AF1040B0B680EFA02FC03EA0C0363452D
:101C900040F0EE800C7904F00304012C18BF022CF4
:101CA00014D18568540007FA04F6B543CE6806FAE5
:101CB00004F42C438460446824EA0C0C0C79C4F3CB
:101CC0000014944044EA0C0CC0F804C0D1F804C0DD
:101CD00037EA0C0C0CD0C4684FEA420C07FA0CF53A
:101CE000AC438D6805FA0CFC4CEA040CC0F80CC03F
:101CF00091F804C00CF0030CBCF1020F12D14FEAB2
:101D0000D20C00EB8C04256A4FEA427C4FEADC6C73
:101D100008FA0CF6B5430E6906FA0CFC4CEA050C01
:101D2000C4F820C004684FEA420C07FA0CF5AC4333
:101D30000D7905F0030505FA0CFC4CEA040CC0F81B
:101D400000C0D1F804C01CF0805F7CD0D9F800C07E
:101D50004CF4804CC9F800C0D9F800C00CF4804C99
:101D6000CDF800C022F0030C0CF1804505F5983544
:101D7000D5F808C89407240F08FA04F62CEA0606DA
:101D8000A0F1804CBCF5003C38D0A0F1804CBCF5F3
:101D9000013C08BF4FF0010C30D0A0F1804CBCF5E5
:101DA000023C08BF4FF0020C28D0A0F1804CBCF5DB
:101DB000033C08BF4FF0030C20D0A0F1804CBCF5D1
:101DC000043C08BF4FF0040C18D0A0F1804CBCF5C7
:101DD000053C08BF4FF0050C10D0A0F1804CBCF5BD
:101DE000063C08BF4FF0060C08D0A0F1804CBCF5B3
:101DF000073C0CBF4FF0070C4FF0080C0CFA04FC2A
:101E00004CEA060CC5F808C8DAF800C04C682CEAA1
:101E1000030C14F4803F18BF4CEA030CCAF800C04E
:101E2000DBF800C04C682CEA030C14F4003F18BF28
:101E30004CEA030CCBF800C0124CD4F800C04D683B
:101E40002CEA030C00E013E015F4801F18BF4CEAE5
:101E5000030CC4F800C00C4CD4F800C04D682CEA48
:101E6000030C15F4001F18BF4CEA030CC4F800C0A3
:101E7000521C102AFFF406AFBDE8F88F4438024028
:101E8000003C0140083C01400C3C01400069084016
:101E900018BF01207047002A08BF090481617047FC
:101EA000014880687047000010000020002804BF2F
:101EB0000120704770B5044690F83D00002520B918
:101EC00084F83C50204600F07FFA242084F83D003E
:101ED0002068016821F0010101602068016841F477
:101EE000004101602068016821F40041016000F0B8
:101EF0007DFC544B6168994203D85349814203D811
:101F000004E05249814201D9012070BD5049226844
:101F1000B0FBF1F1D2F804C02CF03F0C4CEA010CFC
:101F2000C2F804C06268934228BF4A1C07D24FF42B
:101F3000967251434FF47A72B1FBF2F14A1C216858
:101F4000D1F820C02CF03F0C42EA0C020A62616812
:101F50008B420FD34900401EB0FBF1F2521CC2F37A
:101F60000B02042A31BF0420B0FBF1F0401CC0F387
:101F70000B0022E0A268002A52D001EBC10303EB60
:101F80000113A0F1010CBCFBF3F35B1C43F4804391
:101F90001B051B0D08BF01200FD0002A48D001EB04
:101FA000C10202EB0111401EB0FBF1F0401CC0F376
:101FB0000B0040F4804040F400402168CA6922F0E0
:101FC000FF0222F44F421043C861D4E907010143E4
:101FD0002068026822F0C00211430160D4E90310B6
:101FE00001432068826822F0FF0222F40342114379
:101FF0008160D4E9050101432068C26822F0FF0234
:102000001143C1602068016841F00101016025644D
:10201000202084F83D00256384F83E50002070BDE8
:1020200001EB4103A0F1010CBCFBF3F35B1CAFE738
:1020300001EB4101401EB0FBF1F0401CC0F30B006E
:10204000B9E70000A086010080841E0000093D0061
:1020500040420F002DE9FF4F83B09A46DDE911861B
:1020600093460446DDF84090FFF71AFF054694F8C2
:102070003D00202840F0F880192301227C492046A9
:10208000009502F003F9002840F0EE8094F83C003F
:10209000012800F0E980012084F83C0020680168F4
:1020A00011F0010F03D1016841F0010101602068C6
:1020B000016821F400610160222084F83D00402085
:1020C00084F83E0000272764C4F82490A4F82A80EE
:1020D000608D20856748E062CDE9006553465A4629
:1020E0002046049901F0A6FF00287DD1208D40B143
:1020F00001280FD00228206812D041698069009021
:102100001EE02068416981690091016841F4007115
:10211000016012E02068016821F480610160F0E74D
:10212000016821F4806101602068016841F4006168
:1021300001602068416980690090208D00287DD071
:10214000DFF83481208D032856D801280BD00228CF
:1021500033464FF0000241462046009518D002F069
:1021600095F8C8B14EE02A463146204602F047F9BC
:10217000002847D120680069616A0870606A401CC5
:102180006062208D401E2085608D401E60855CE071
:1021900002F07CF840BB19E02068016821F48061FE
:1021A000016020680069616A0870606A401C6062B2
:1021B000208D401E2085608D401E608533460022A4
:1021C00041462046009502F061F868B92068016830
:1021D00041F40071016020680069616A0870606AFA
:1021E000401C6062218D00E00CE0491E2185618D5C
:1021F000491E618521681BE02A463146204602F0CF
:10220000FEF818B107B00120BDE8F08F2068006922
:10221000616A0870606A401C6062218D491E2185D8
:10222000618D491E618521684A6912F0040F0CD046
:1022300009690170606A401C606200E009E0208D5D
:10224000401E2085608D401E6085208D00287FF413
:1022500079AF202084F83D0084F83E7084F83C700B
:1022600007B00020BDE8F08F07B00220BDE8F08F76
:10227000020010000000FFFF040001002DE9FF4FE5
:1022800083B09A46DDE9118693460446DDF8409016
:10229000FFF706FE054694F83D0020287BD1192360
:1022A000012247492046009501F0F0FF002872D135
:1022B00094F83C0001287FD0012084F83C0020687D
:1022C000016811F0010F03D1016841F001010160C3
:1022D0002068016821F400610160212084F83D003C
:1022E000402084F83E0000272764C4F82490A4F816
:1022F0002A80608D20853348E062CDE90065534631
:102300005A462046049901F023FF00283FD1208D32
:10231000002833D02A463146204602F0AFF840B1BB
:10232000206C042833D12068016841F400710160F9
:102330002DE0606A216800780861606A00F1010C94
:10234000C4F824C0208D401E80B22085618D491EB6
:1023500061852368596911F0040F0CD070B19CF8A5
:1023600000001861606A401C6062208D401E20855C
:10237000608D401E6085208D0028CBD12A463146D5
:10238000204601F03FFF38B1206C0428CBD007B0C5
:102390000120BDE8F08F0FE02068016841F4007172
:1023A0000160202084F83D0084F83E7084F83C7081
:1023B00007B00020BDE8F08F07B00220BDE8F08F25
:1023C000020010000000FFFF2DE9F04186B000215F
:1023D0000091019102910391049100682E49032517
:1023E000122601272D4CA0F180424FF00408B2F5CF
:1023F000B04238D0B2F580621CBF06B0BDE8F081B3
:10240000086840F004000860086800F004000590C7
:10241000086840F0010008600868CDE9027500F026
:10242000010005904FF40070CDE900066946CDF833
:1024300010801B48FFF718FC4FF48070CDE90006B0
:10244000CDE902756946CDF810801648FFF70CFCFF
:10245000206840F400002060206800F4000005902F
:1024600006B0BDE8F081086840F020000860086808
:10247000CDE9005600F02000CDE90480CDE90275D9
:1024800069460948FFF7F0FB206840F480002060AF
:10249000206800F48000E2E7303802404038024013
:1024A0000008024000000240001402400248816817
:1024B0000278114481607047100000200B4810B56D
:1024C000016841F400710160016841F480610160BC
:1024D000016841F480710160032000F0A3F800203E
:1024E00000F006F800F03EF8002010BD003C02406D
:1024F00010B5014688B000221C2000F061F81C20B5
:1025000000F04EF814480024016841F00101016018
:10251000006805A900F001000690684600F046F941
:1025200000F064F90D494000B0FBF1F0411E0C4889
:102530004FF08042026040F2E732C0E90324C0E974
:10254000011400F021FE00280ABF0548012000F018
:10255000DCFE08B010BD00004038024040420F00D1
:10256000240700200C4882B0016841F480410160DA
:10257000006800F4804000900848016841F08051F4
:1025800001600068002200F0805000900F21901E32
:1025900002B000F015B80000443802404038024054
:1025A0000028B8BF704700F01F01012202FA01F1B4
:1025B0004009800000F1E020C0F8001170470000E1
:1025C000174B10B41B68C3F30223C3F1070CBCF113
:1025D000040F88BF4FF0040C1C1D072C34BF0023D0
:1025E000DB1E012404FA0CFCACF1010C0CEA010125
:1025F000994004FA03F35B1E1A40114300284FEA86
:102600000111A1BF00F1E02080F8001410BC704758
:1026100000F00F0000F1E02080F8141D10BC70479E
:102620000CED00E0074A00F0070011684FF6FF03C9
:10263000194041EA002040F0FD7040F080601060D9
:10264000704700000CED00E0002804BF0120704737
:102650002DE9F047DFF83C9104460D46D9F800001B
:10266000CFB200F00700A84207D289F80070D9F86D
:10267000000000F00700A84262D12068464E10F02A
:10268000020F14D010F0040F03D0306840F4E05073
:102690003060207810F0080F03D0306840F46040BC
:1026A00030603068A16820F0F00008433060207886
:1026B00010F0010F36D060683849012822D0022876
:1026C00018BF0328096822D011F0020F38D03168F2
:1026D00021F0030108433060FFF7E2FB80463068D9
:1026E000616800F00C00B0EB810F18BF41F2883A2E
:1026F00018D0FFF7D5FBA0EB080050450BD90320FD
:10270000BDE8F087096811F4003FE0D118E011F04E
:10271000007FDCD114E03068616800F00C00B0EBA1
:10272000810FE6D1D9F8000000F00700A8420AD9CD
:1027300089F80070D9F8000000F00700A84202D024
:102740000120BDE8F087207810F0040F05D0306834
:10275000E16820F4E05008433060207810F0080F62
:1027600006D03068216920F4604040EAC100306042
:1027700000F05CF831680A4AC1F30311515CC840AB
:102780000849086008480068FFF7B2FE0020BDE86D
:10279000F0870000003C0240083802400038024048
:1027A000C48E00081C000020140000200F220260CC
:1027B0000C4A136803F003034360136803F0F0034B
:1027C0008360136803F4E053C36012684FF4E0536E
:1027D00003EAD20202610448006800F007000860C2
:1027E0007047000008380240003C02400448054998
:1027F00000680968044AC1F38221515CC8407047EF
:102800001C00002008380240D48E00080448054906
:1028100000680968044AC1F34231515CC8407047FE
:102820001C00002008380240D48E000818480068B8
:1028300010F00C01174808BF7047174B042904BF5C
:1028400018467047082918BF704710B5134C216807
:1028500001F03F02216811F4800F08D02068C0F316
:102860008810A0FB03010023FDF70AFD07E02168A3
:102870000023C1F38811A1FB0001FDF701FD2168D0
:10288000C1F30141491C4900B0FBF1F010BD00004B
:10289000083802400024F400001BB700043802404E
:1028A000002804BF012070472DE9F84F0446007846
:1028B000F94E10F0010FA6F1040556D0301D016845
:1028C00001F00C01042908D0006800F00C00082871
:1028D0000CD1306810F4800F08D0286810F4003F45
:1028E00043D06068002800F0D0813EE06068B0F519
:1028F000803F19D0B0F5A02F28680CBF40F480208D
:1029000020F48030286028680CBF40F4803020F428
:10291000802028606068B8B1FFF7C2FA07462868CF
:1029200010F4003F05D020E0286840F48030286093
:10293000F0E7FFF7B5FAC01B642800F24081286871
:1029400010F4003FF5D010E0FFF7AAFA0746286818
:1029500010F4003F09D0FFF7A3FAC01B642800F26F
:102960002E81286810F4003FF5D12078CB4F10F06D
:10297000020F4FF0000947D0C948016811F00C0F51
:1029800014D0006800F00C00082804BF306810F470
:10299000800F0BD0E06820B301203860FFF780FA89
:1029A0008046286810F0020F09D012E0286810F065
:1029B000020F1CBFE06801280BD000F066B9FFF7DA
:1029C0006FFAA0EB080002287ED8286810F0020FEA
:1029D000F5D02868216920F0F80040EAC10028609D
:1029E00012E0C7F80090FFF75BFA8046286810F005
:1029F000020F09D0FFF754FAA0EB0800022863D8B1
:102A0000286810F0020FF5D1207810F0080F2FD0B1
:102A1000A448DFF894A26169A9B101210160FFF720
:102A20003FFA8046DAF8000010F0020F20D1FFF7DD
:102A300037FAA0EB0800022846D8DAF8000010F0B8
:102A4000020FF4D014E0C0F80090FFF729FA804696
:102A5000DAF8000010F0020F0AD0FFF721FAA0EB1D
:102A60000800022830D8DAF8000010F0020FF4D184
:102A7000207810F0040F7CD08C484FF000080068DC
:102A800010F0805F0AD18948016841F080510160EF
:102A900000684FF0010800F080500090DFF810B29D
:102AA000DBF8000010F4807F1AD1DBF8000040F45E
:102AB0008070CBF80000FFF7F3F98246DBF80000E6
:102AC00010F4807F0CD100E079E0FFF7E9F9A0EB8A
:102AD0000A00022873D8DBF8000010F4807FF2D0DF
:102AE000A068DFF8D0B101281DD00528DBF8000070
:102AF0000CBF40F0040020F00100CBF80000DBF830
:102B000000000CBF40F0010020F00400CBF80000F2
:102B1000A068E8B1FFF7C4F98246DBF8000010F0C6
:102B2000020F07D02BE0DBF8000040F00100CBF8EB
:102B30000000EDE7FFF7B4F9A0EB0A0141F288309D
:102B400081423CD8DBF8000010F0020FF2D016E012
:102B5000FFF7A6F98246DBF8000010F0020F0ED056
:102B6000FFF79EF9A0EB0A0141F28830814226D896
:102B700000E00CE0DBF8000010F0020FF0D1B8F13B
:102B8000000F04D04948016821F080510160A0691C
:102B9000E8B34349096801F00C0108294ED0022826
:102BA000C7F860900ED0FFF77BF90446286810F054
:102BB000007F6DD0FFF774F9001B022839D903207C
:102BC000BDE8F88FFFF76CF98046286810F0007FA9
:102BD00009D0FFF765F9A0EB08000228EFD82868B4
:102BE00010F0007FF5D1D4E907010843A16A324A09
:102BF000490802EB0141626A41EA8211084394F8F4
:102C00002C1040EA016030600120386600E03FE0AF
:102C1000FFF746F90446286810F0007F38D1FFF727
:102C20003FF9001B0228CAD8286810F0007FF6D0B0
:102C30002EE0286810F0007FBCD129E0012808BFF1
:102C4000BDE8F88F3068E26900F4800191421CD140
:102C5000226A00F03F01914217D147F6C071626AC3
:102C60000140B1EB821F10D1A26A4FF0FF3300F494
:102C7000403103EB5202B1EB024F06D194F82C1015
:102C800000F07060B0EB016F02D00120BDE8F88F5A
:102C90000020BDE8F88F00000438024000004742E1
:102CA00008380240800E47427438024040380240E3
:102CB00000700040703802400000FFFF002804BF91
:102CC0000120704770B50446406A002500281CBFEB
:102CD0002561656104D0A56294F8510058B905E0FA
:102CE0006068B0F5827F18BFE561F4E784F8505062
:102CF000204600F045F8022084F851002068016861
:102D000021F040010160A088218900F4827001F463
:102D100004410843A18901F400610843217C01F0CA
:102D200002010843217D01F001010843218B01F4D8
:102D300000710843217F01F03801084394F8201006
:102D400001F080010843218D01F4005108432168FE
:102D50000860A169042000EA114094F8241001F0F1
:102D600010010143206841602068C16921F40061BD
:102D7000C1616565012084F85100002070BD00002C
:102D80002DE9F04387B00024054600940194029495
:102D9000039404940068A0F18041B1F598311CBF00
:102DA00007B0BDE8F0833248016841F4805101600A
:102DB000006800F4805005902E48016841F002013F
:102DC0000160016801F002010591016841F0010113
:102DD00001600068022700F0010005901820CDE98D
:102DE00000074FF003080526CDE90386694622480F
:102DF000FEF73AFF8020CDE90007CDE90248694699
:102E000004961E48FEF730FF1E4E1D484FF0C06965
:102E10003060C6E901940715C6E9034774614FF4B1
:102E20004038B461C6E9074830467462FEF7F0FDE9
:102E3000002818BFFDF78EFFEE64B563134E1248ED
:102E4000C6E900094020C6E90204C6E90474B46179
:102E5000C6E9074830467462FEF7DAFD002818BF5D
:102E6000FDF778FFAE64B56307B0BDE8F0830000FE
:102E70004438024030380240000402400000024062
:102E8000106402405002002058640240B00200204A
:102E90002DE9F84F044690F8500001250A9E1F4680
:102EA00092468B464FF00008012804BF0220BDE87F
:102EB000F88F012084F85000FEF7F2FF814694F865
:102EC00051006168012809D0B1F5827F03BFA16874
:102ED000002904284FF0020840F0CC80BBF1000F1D
:102EE0001ABFBAF1000F002F4FF0010800F0C280A6
:102EF00094F8510004281CBF052084F851000020DC
:102F00006065C4F838A0E787A787C4F830B0E786C3
:102F1000A786206460642068016811F0400F03D127
:102F2000016841F040010160E068B0F5006F606841
:102F300004D0002818BF012F50D08BE0002818BF04
:102F4000012F39D1206B21680088C860206B801C5C
:102F50002063E08E401EE0862EE02068816811F03C
:102F6000020F1CBFE18E00290BD0012D09D1216B6E
:102F70000988C160206B801C2063E08E401EE086C3
:102F800000252068816811F0010F1CBFE18F002926
:102F900009D0C068A16B0880A06B801CA063E08F83
:102FA000401EE0870125FEF77BFFA0EB0900B04241
:102FB00002D3B6F1FF3F54D1E08E002804BFE08F6A
:102FC0000028CAD14A463146204602F073FB002849
:102FD0004AD020204FF0010860654BE0206B21684B
:102FE00000780873206B401C2063E08E401EE08652
:102FF00030E02068816811F0020F1CBFE18E0029CB
:103000000BD0012D09D1216B09780173206B401C75
:103010002063E08E401EE08600252068816811F064
:10302000010F1CBFE18F002909D0C068A16B087097
:10303000A06B401CA063E08F401EE0870125FEF7D7
:103040002FFFA0EB0900B04203D3B6F1FF3F01D040
:1030500007E036B1E08E002804BFE08F0028C8D119
:10306000B0E74FF0030805E0A06818B92068C16810
:1030700080680090012084F85100002084F85000FE
:103080004046BDE8F88F7047704790F83C20012A11
:1030900004BF02207047012280F83C20CA68D1F8A2
:1030A00008C022F4407242EA0C02D1F804C022F4B3
:1030B000806242EA0C02D1F800C022F4006242EAC7
:1030C0000C02D1F810C022F4805242EA0C02D1F86E
:1030D00014C022F4005242EA0C02C969002322F40F
:1030E000804211430268516480F83C3000207047F0
:1030F00090F83C20012A04BF0220704730B401241C
:1031000080F83C40022280F83D200268D2F804C0DA
:1031100093680D682CF0700C45EA0C0CC2F804C0E2
:103120000268A2F1804CBCF5803C18BFB2F1804F20
:103130001DD0A2F1804CBCF5806C1CBFA2F1804C6C
:10314000BCF5006C13D0A2F1804CBCF5406C1CBFE8
:10315000A2F1804CBCF5823C09D0A2F1804CBCF5B8
:10316000A03C1CBFA2F1804CBCF5C05C04D14968F6
:1031700023F080031943916080F83D40002180F8DE
:103180003C1030BC08467047002804BF012070473F
:1031900010B5044690F83D0028B9002084F83C00A2
:1031A000204600F01FF8022084F83D00211D206811
:1031B00002F0AEFB012084F8460084F83E0084F85B
:1031C0003F0084F8400084F8410084F8420084F80D
:1031D000430084F8440084F8450084F83D00002052
:1031E00010BD000008B500682949A0F18042B2F581
:1031F000803221D00A1FA0F18043B3F5406323D071
:10320000B3F5784329D0B3F5804338D013F5923124
:1032100018BF08BD106840F480701060106800226C
:1032200000F48070009005212D20FFF7C9F9BDE85A
:1032300008402D20FFF7B4B9086840F0010008608D
:10324000086800F0010006E0106840F00800106017
:10325000106800F00800009008BD086840F0020007
:1032600008600868002200F00200009005212D206F
:10327000FFF7A6F9BDE808402D20FFF791B90868CF
:1032800040F400300860086800F40030009008BD89
:103290004438024090F83D1001291CBF01207047BE
:1032A000022180F83D100068A0F18041B1F5803125
:1032B00018BFB0F1804F1DD0A0F18041B1F5806101
:1032C0001CBFA0F18041B1F5006113D0A0F1804195
:1032D000B1F540611CBFA0F18041B1F5823109D048
:1032E000A0F18041B1F5A0311CBFA0F18041B1F542
:1032F000C05104D1816801F00701062903D001689B
:1033000041F0010101600020704790F83D10012953
:103310001CBF01207047022180F83D100168CA6877
:1033200042F00102CA600068A0F18041B1F580312D
:1033300018BFB0F1804F1DD0A0F18041B1F5806180
:103340001CBFA0F18041B1F5006113D0A0F1804114
:10335000B1F540611CBFA0F18041B1F5823109D0C7
:10336000A0F18041B1F5A0311CBFA0F18041B1F5C1
:10337000C05104D1816801F00701062903D001681A
:1033800041F0010101600020704790F83C20012AC3
:103390000DBF0220012380F83C30704730B4022278
:1033A00080F83D200268D2F808C02CF0770C2CF48D
:1033B0007F4CC2F808C00A68502A3DD00CDC202A95
:1033C00073D004DC002A18BF102A51D18CE0302AB7
:1033D0006BD0402A6BD091E0602A4AD0702A06D088
:1033E000B2F5805F44D0B2F5005F12D086E002688B
:1033F000D1F804C08C68C96895684CEA012125F4AD
:103400007F4521432943916001688A6842F0770231
:1034100010E00268D1F804C08C68C96895684CEA6D
:10342000012125F47F4521432943916001688A6881
:1034300042F480428A6061E00268D1F804C0C96841
:10344000146A156A25F001051562956924F00A04CD
:1034500025F0F00545EA011144EA0C0C9161C2F82F
:1034600020C001688A6822F0700242F057028A6028
:1034700044E00268D1F804C0CC68116A21F0100160
:1034800011629569116A25F4704545EA043421F00A
:10349000A00141EA0C119461116201688A6822F06E
:1034A000700242F067028A6028E01DE0FFE70268D0
:1034B000D1F804C0C968146A156A25F001051562BF
:1034C000956924F00A0425F0F00545EA011144EA63
:1034D0000C0C9161C2F820C001688A6822F0700269
:1034E00042F047028A6009E00168D1F808C02CF078
:1034F000700C4CEA020242F007028A6080F83D300C
:10350000002180F83C1030BC08467047704770B509
:103510000446006801694FF0000511F0020F1CBF5E
:10352000C16811F0020F13D06FF002010161012098
:1035300020772068806910F0030F204602D0FFF743
:10354000E5FF04E000F008F9204600F0EDF92577EA
:103550002068016911F0040F1CBFC16811F0040F4D
:1035600013D06FF004010161022020772068806988
:1035700010F4407F204602D0FFF7C8FF04E000F0BF
:10358000EBF8204600F0D0F925772068016911F0AA
:10359000080F1CBFC16811F0080F13D06FF00801AD
:1035A0000161042020772068C06910F0030F2046D5
:1035B00002D0FFF7ABFF04E000F0CEF8204600F0A9
:1035C000B3F925772068016911F0100F1CBFC1689D
:1035D00011F0100F13D06FF0100101610820207757
:1035E0002068C06910F4407F204602D0FFF78EFFAC
:1035F00004E000F0B1F8204600F096F92577206845
:10360000016911F0010F1CBFC16811F0010F05D055
:103610006FF001010161204600F0EEF920680169B8
:1036200011F0800F1CBFC16811F0800F05D06FF042
:10363000800101612046FFF726FD2068016911F035
:10364000400F1CBFC16811F0400F05D06FF0400162
:103650000161204600F0E3F92068016911F0200FB4
:103660001ABFC16811F0200F70BD6FF02001016119
:103670002046BDE87040FFF707BD000030B587B0B9
:1036800000210091019102910391049100682D495C
:1036900002220123A0F1804CBCF5803C23D01CF514
:1036A000744C30D00324A0F180454FF0400CB5F5A8
:1036B000823538D0B5F580451CBF07B030BD0868ED
:1036C00040F0200008600868CDF800C0CDE9012373
:1036D00000F02000CDE90440694603931A48FEF744
:1036E000C3FA07B030BD086840F0100008600868F1
:1036F000694600F0100005904FF4D440CDE9000277
:1037000004931248EBE7086840F0800008600868FE
:10371000694600F0800005904FF4E050CDE90002CA
:103720000B480492DBE7086840F004000860086872
:10373000694600F00400CDE90440CDE900C2054827
:10374000CDE7000030380240001402400010024073
:10375000001C024000080240704700002DE9F041C3
:10376000044690F83C000D46012804BF0220BDE845
:10377000F081012084F83C004AB1042A19D0514E4E
:10378000DFF844C1082A28D00C2A64D094E02068CD
:1037900002F032F92068816941F0080181612068F6
:1037A000816921F004018161206881692A691143DE
:1037B00011E0206802F054F92068816941F4006149
:1037C00081612068816921F480618161206881695B
:1037D0002A6941EA022181616EE02068016A21F4D0
:1037E00080710162016A4268C3692F6823F0730324
:1037F0003B43AF6821F4007141EA0721B04218BF92
:10380000604506D1EF6821F4006141EA072121F407
:103810008061B04218BF604509D1D5F814C022F4C8
:10382000405242EA0C12D5F818C042EA0C1242602B
:10383000C3616A68C26301622068C16941F008011E
:10384000C1612068C16921F00401C1612068C169BA
:103850002A6911432FE02068016A21F48051016236
:10386000026A4168C3692F6823F4E64343EA0723E9
:10387000AF6822F4005242EA0732B04218BF6045F6
:1038800005D1D5F814C021F4804141EA8C11416082
:10389000C3616968016402622068C16941F4006122
:1038A000C1612068C16921F48061C1612068C1697A
:1038B0002A6941EA0221C161002084F83C00BDE888
:1038C000F08100000000014000040140002804BF16
:1038D0000120704710B5044690F83D0028B900203B
:1038E00084F83C00204600F01EF8022084F83D00D9
:1038F000211D206802F00CF8012084F8460084F8AD
:103900003E0084F83F0084F8400084F8410084F8C9
:10391000420084F8430084F8440084F8450084F8A9
:103920003D00002010BD70477047000010B50446F0
:10393000002908BF94F83E000AD0042908BF94F873
:103940003F0005D008290CBF94F8400094F84100CE
:1039500001281CBF012010BD0220002908BF84F8E7
:103960003E000AD0042908BF84F83F0005D008298A
:103970000CBF84F8400084F841000122206802F066
:103980002BF81B4A20681B49904218BF884203D17C
:10399000436C43F4004343642068904218BFB0F185
:1039A000804F1AD0A0F18042B2F580621CBFA0F116
:1039B0008042B2F5006210D0A0F18042B2F54062C0
:1039C00018BF884209D0A0F18041B1F5A0311CBFD9
:1039D000A0F18041B1F5C05104D1816801F0070127
:1039E000062903D0016841F001010160002010BDEB
:1039F000000001400004014010B504460068B0F129
:103A0000804F08BFFEF752FD2068A0F18041B1F55C
:103A1000005118BF10BDBDE8104000F0B5BD7047A3
:103A200070477047F8B5026804461068D16853695A
:103A300010F00F0F4FF020054FF0000652D003F0AA
:103A4000010C01F490775CEA070777D010F0010FC2
:103A500018BF11F4807F03D0226C42F0010222646F
:103A600010F0040F18BF13F0010F03D0226C42F0C6
:103A70000202226410F0020F18BF13F0010F03D0EE
:103A8000226C42F00402226410F0080F1CBF01F007
:103A9000200252EA0C0203D0226C42F00802226497
:103AA000226C002A08BFF8BD10F0200F1EBF11F0D5
:103AB000200F204602F0C6F820684169226CC1F34D
:103AC000801102F0080211433DD0C16821F49071C9
:103AD000C1602068416921F001014161206B01282A
:103AE0000BD00FE010F0200F18BF11F0200F2FD0D7
:103AF0002046BDE8F84002F0A5B82068C16821F072
:103B00001001C16084F83E5026632068416911F0BD
:103B1000400F14D0416921F040014161A06B70B1A8
:103B20005B490165A06BFDF775FE002808BFF8BD75
:103B3000A06B016D01B0BDE8F040084708E02046E9
:103B4000FFF76FFFF8BD2046FFF76BFF2664F8BD57
:103B5000236B012B5AD110F0100F18BF11F0100F6A
:103B600054D0106850680090506910F0400F2FD06A
:103B7000A16B086840680004000C1CBFA38D834241
:103B800098BFF8BDE085C869B0F5807F18D0D068CF
:103B900020F48070D0602068416921F0010141610A
:103BA0002068416921F04001416184F83E5026635C
:103BB0002068C16821F01001C160A06BFDF7D7FD3E
:103BC000A08DE18D401A81B22046FFF729FFF8BD94
:103BD000A08DE18D401A81B2E08D002814BF00292C
:103BE000F8BDD06820F49070D0602068426922F05F
:103BF0000102426184F83E5026632068C26822F0C8
:103C00001002C2602046FFF70BFFF8BD10F0800FD6
:103C100018BF11F0800F2BD094F83D00212818BF59
:103C2000F8BDA068B0F5805F04BF20690028206A55
:103C300016D0411C2162216800784860E08C401E4B
:103C40000004000CE08418BFF8BD2068C16821F0B2
:103C50008001C1602068C16841F04001C160F8BDC9
:103C60000088C0F308005060206A801C2062E5E7ED
:103C700010F0400F14BF11F0400FF8BD2046D1687E
:103C800021F04001D16084F83D5000F0CFF9F8BD3B
:103C9000D15A0008002804BF0120704770B50446BF
:103CA00090F83D00002520B984F83C50204600F0F3
:103CB00023F8242084F83D002068C16821F40051D5
:103CC000C160204602F018F82068016921F4904193
:103CD00001612068416921F02A0141612068C168C1
:103CE00041F40051C1602564202084F83D0084F82F
:103CF0003E00002070BD00002DE9F04F87B0002588
:103D0000009501950295039504950446026888483C
:103D1000864902270615A2F180434FF003084FF0B1
:103D2000070A4FF0400B4FF00069B3F588335ED0BF
:103D300013F5484300F0C080B3F54C431CBF07B0F7
:103D4000BDE8F08F0A6842F020020A60096801F0BD
:103D500020010591016841F0400101600068694659
:103D600000F0400005904FF48440CDE900070820A2
:103D7000CDE903806F48FDF777FF704F6E484FF035
:103D800020683860C7E90185C7E903567D614FF4B3
:103D90000039BD61C7E9075938467D62FDF738FE35
:103DA000002818BFFCF7D6FFA763BC63654F6448C3
:103DB000C7F808B0C7E903567D61BD61C7E9075977
:103DC0007D62C7E900083846FDF722FE002818BFCB
:103DD000FCF7C0FF6763002205214720BC63FEF7A4
:103DE000EFFB4720FEF7DCFB07B0BDE8F08F0A6869
:103DF00042F010020A60096801F0100105910168A3
:103E000041F002010160016801F0020105910168C1
:103E100041F0010101600068694600F00100059071
:103E20008020CDE90007CDE9038A4748FDF71CFF54
:103E30004FF40070CDE90007CDE902586946CDF88E
:103E400010A04248FDF710FF424F41484FF4803820
:103E50003860C7E90195C7E903567D61BD61C7E9CF
:103E6000075838467D62FDF7D3FD002818BFFCF7E0
:103E700071FFA763BC63394F3748C7F808B0C7E97B
:103E800003567D61BD61C7E907587D62C7E9000936
:103E90003846FDF7BDFD002818BFFCF75BFF6763E0
:103EA000002205212520BC63FEF78AFB2520FEF7B2
:103EB00077FB07B0BDE8F08F29490A6842F48022F9
:103EC0000A60096801F480210591016841F004014C
:103ED00001600068694600F0040005904FF44060FE
:103EE000CDE90007CDE9038A1E48FDF7BDFE1F4F4F
:103EF0001D483860C7E90195C7E9035680157D6103
:103F0000C7E906504FF44030C7E908053846FDF7C9
:103F10007FFD002818BFFCF71DFFA76300220521C5
:103F20002720BC63FEF74CFB2720C0E74438024043
:103F3000303802400018024040640240640600200D
:103F4000A0640240C40600200004024000000240B9
:103F50008864024044050020B8640240A4050020A3
:103F60004038024000080240286002400406002059
:103F700090F83E30202B0FD1002912BF002A0120DB
:103F8000704790F83C30012B06D0012380F83C307C
:103F90000023036301F02EBF022070477047704773
:103FA00037B5044690F83D00202836D10199002904
:103FB00011BF002A012003B030BD94F83C00012855
:103FC0002BD0012084F83C002162A284E2840025E9
:103FD0002564212084F83D00636B1148D863636B2E
:103FE00010481864636B1048D864606B134605650D
:103FF000206800F1040C6246606BFDF7AFFD21689C
:104000006FF04000086084F83C502068416941F03E
:104010008001416103B0002030BD03B0022030BDFB
:10402000CD5B0008FD5B0008E15A0008704770474F
:10403000FEE700002DE9F84F044600688846DDE9F8
:104040000AA501681E46174641F480610160206898
:10405000016841F480710160534600224FF0011164
:104060002046009500F012F94FF4007938B120682D
:10407000006810F4807F53D0C4F8409050E021686D
:1040800008F0FE000861DFF8C4B02B4652465946DE
:10409000204600F04EF9002855D12068416980691A
:1040A00000902A465146204600F0E8F940B1206CC5
:1040B000042848D12068016841F40071016042E0A1
:1040C0003046FEB201280CD02168380A08612A4621
:1040D0005146204600F0D2F918B1206C0428E9D0EE
:1040E00031E0206806612A465146204600F0C6F9B4
:1040F00018B1206C0428DDD025E02068016841F467
:1041000080710160534600224FF001112046009556
:1041100000F0BCF838B12068006810F4807FABD1A3
:104120000320BDE8F88F216808F0FF0040F001008F
:1041300008612B4652465946204600F0FAF80028FE
:1041400008BFBDE8F88F0120BDE8F88F020001002C
:104150002DE9F843044600680D46DDE9089701683B
:104160009846164641F4807101604B4600224FF09C
:1041700001112046009700F089F850B120680068CE
:1041800010F4807F1CBF4FF4007020640320BDE852
:10419000F883216805F0FE0008613B464A4618494D
:1041A000204600F0C6F810BB206841698069009085
:1041B0003A464946204600F061F940B1206C042897
:1041C00015D12068016841F4007101600FE0F5B27B
:1041D000B8F1010F0ED02168300A08613A4649460D
:1041E000204600F04BF928B1206C0428E9D00120CA
:1041F000BDE8F883206805610020BDE8F883000071
:10420000020001002DE9F0410446006816460D4603
:10421000406910F0040F04BF00274FF0200824D19C
:104220002068406910F4806F11D021686FF48060BD
:104230004861276384F83D8084F83E70206C40F02C
:104240000400206484F83C700120BDE8F081B5F1E1
:10425000FF3F05D0FDF724FE801BA84208D83DB1E2
:104260002068406910F0040FDAD00020BDE8F0812A
:10427000276384F83D8084F83E70206C40F0200075
:10428000206484F83C700120BDE8F0812DE9F047FE
:104290000446C1F30748DDF8209000681E46174623
:1042A0000D46B8F1010F06D0806925EA0000000430
:1042B000000C1ED005E0406925EA00000004000C57
:1042C00017D00020B8422FD1B6F1FF3F06D0FDF73E
:1042D000E7FDA0EB0900B0420DD866B12068B8F147
:1042E000010F18D0806925EA00000004000C1ED0E0
:1042F00017E00120E6E700202063202184F83D102C
:1043000084F83E00216C41F02001216484F83C00D7
:104310000120BDE8F087406925EA00000004000C98
:1043200005D00020B842CFD00020BDE8F0870120A2
:10433000F8E72DE9F0470446C1F3074800681F4637
:1043400016460D46B8F1010F26D0806925EA000017
:104350000004000C3AD04FF000094FF0200A20680A
:10436000406910F4806F1ED02068016841F400712C
:10437000016021686FF480604861C4F8309084F86F
:104380003DA084F83E90206C40F00400206484F846
:104390003C900120BDE8F087406925EA0000000458
:1043A000000CD8D112E0B6F1FF3F05D0FDF778FD43
:1043B000C01BB0420DD866B12068B8F1010F17D00C
:1043C000806925EA00000004000CC8D10020BDE887
:1043D000F087C4F8309084F83DA084F83E90206CBB
:1043E00040F02000206484F83C900120BDE8F08774
:1043F000406925EA00000004000CB0D1E6E72DE991
:10440000F0410446006816460D46406910F0400F22
:1044100004BF00274FF020081FD12068406910F02A
:10442000100F0FD021686FF010004861276384F8E7
:104430003D8084F83E70206C206484F83C7001203C
:10444000BDE8F081FDF72CFD801BA84208D83DB1E6
:104450002068406910F0400FDFD00020BDE8F081F7
:10446000276384F83D8084F83E70206C40F0200083
:10447000206484F83C700120BDE8F0812DE9F04112
:104480000446006816460D46406910F0800F04BFD0
:1044900000274FF0200824D12068406910F4806F75
:1044A00011D021686FF480604861276384F83D80F3
:1044B00084F83E70206C40F00400206484F83C7066
:1044C0000120BDE8F081B5F1FF3F05D0FDF7E8FC24
:1044D000801BA84208D83DB12068406910F0800FC9
:1044E000DAD00020BDE8F081276384F83D8084F8AD
:1044F0003E70206C40F02000206484F83C70012065
:10450000BDE8F08110B502F091FCFCF7D5F99FED04
:10451000142ADFED141A9FED141ADFED140A9FED33
:10452000140A144802F060FE1348FEF7B3FE00219F
:104530001148FFF7FBF91148FEF7E7FEDFED100A1F
:10454000BDE81040F0EE602AB0EE602AF0EE601A8E
:10455000B0EE601AB7EE000A0A4800F053B8000047
:104560000000BE4400401C4600000000CDCCCC3D05
:104570000080894470520020E803002030040020AD
:10458000CDCC4C3DA052002010B51B4C04F12402B0
:1045900004F10C012046FCF79BF904F1180002F02D
:1045A00083FC94ED090ADFED150AA4F1900002F0F6
:1045B000C9FDBCEEC00A124910EE100A096880B2AB
:1045C000486394ED084AD4ED073A94ED063AD4EDE9
:1045D000022A94ED012AD4ED001A94ED051AD4EDC7
:1045E000040A94ED030AA4F1600104F12800BDE877
:1045F000104000F035B800000053002000003442A5
:10460000E803002080EC060AB7EE000A80ED110AEC
:1046100080ED100A80ED0F0A80ED0E0A80ED0D0A84
:1046200080ED0C0A9FED0D0A80ED170A80ED160A49
:1046300080ED150A80ED140A80ED130A80ED120A50
:1046400080ED080A80ED070A80ED060A80ED090A70
:1046500080ED0A0A80ED0B0A7047000000000000A0
:104660002DE9F04105462DED108BB0EE44CAF0EE79
:1046700063CAF0EE43DAB0EE628AF0EE428AB0EE40
:10468000619AF0EE419AF0EE60EAB0EE40FA0C4624
:10469000C869FBF7D1FF9FEDFEAB53EC1A2BFBF77C
:1046A0001CFFFBF7DCFF0DEE100A206AFBF7C4FFCE
:1046B00053EC1A2BFBF711FFFBF7D1FF6FEE0F0A3C
:1046C0000EEE100A49EEA90AB1EEE00AB4EE400A75
:1046D000F1EE10FA1CBFB0EE600A01F0ABFFCEEEB7
:1046E000800AB0EE600A01F085FD10EE100AFBF7BB
:1046F000A3FF9FEDE9BB53EC1B2BFBF7EEFEFBF793
:10470000AEFF6EEEAE0A0AEE100A49EEA90AB1EE4D
:10471000E00AB4EE400AF1EE10FA1CBFB0EE600AF7
:1047200001F088FFB1EE4F1AC1EE000AB0EE600A48
:1047300001F060FD10EE100AFBF77EFF53EC1B2B1F
:10474000FBF7CBFEFBF78BFF0AEE900AB0EE4D0AAB
:1047500001F000FE60EE2D9AB0EE4E0A01F0FAFD77
:1047600060EE0CDAB0EE4D0A01F09CFE4DEE809A40
:10477000B0EE4D0A01F096FE60EE2CDAB0EE4E0A75
:1047800001F090FE4DEE809AB0EE4E0A01F0E2FD8F
:1047900060EE2CCAB0EE4E0A01F084FEF0EE6C0A18
:1047A0004CEE400AB0EE690A01F0FCFB10EE100A74
:1047B000FBF742FF53EC1B2BFBF78FFEFBF74FFF82
:1047C0000BEE100A94ED060AB54EB64F3BEE400ACA
:1047D00010EE100ADFEDB49AB042C8BF3BEE69BAE2
:1047E00005DC10EE100AB84288BF3BEE29BAB0EEE5
:1047F0004E0A01F0AFFDD4ED0B0A78EE600A20EE10
:1048000020CAB0EE4D0A01F0A5FDCCEE00BAB0EE24
:104810004E0A01F047FED4ED0A0A78EEE00A20EED7
:1048200020CAB0EE4D0A01F095FDCCEE000A94EDE1
:10483000001A94ED060A7BEEA00A00EE810A84EDD0
:10484000060AB0EE4E0A01F085FDD4ED0A0A78EEB4
:10485000E00A60EE20BAB0EE4E0A01F023FED4ED7D
:104860000B0A78EE600A40EE60BAD4ED000A94EDCF
:10487000070A0BEEA00A84ED070AB0EE4E0A01F01B
:1048800069FDF0EE40BAB0EE4D0A01F0F1FED4ED54
:104890000B0A94ED091A2BEE800A78EE600A79EE85
:1048A00041BA40EE20BAB0EE4D0A01F0E1FEB0EEA2
:1048B00040CAB0EE4E0A01F0F5FDD4ED0A0A2CEE26
:1048C000000A78EEE00A40EE20BAD4ED000A94ED3A
:1048D000080A0BEEA00A84ED080AD4ED0FCA94ED85
:1048E00010CAD4ED11BAB0EE4E0A01F033FDD4ED8A
:1048F000170A94ED001A60EE810A60EE20DAB0EE3D
:104900004D0A01F027FDCDEE800A94ED0C0A94EDDE
:10491000011A30EE010A70EE60DAB0EE4E0A01F0D4
:1049200019FDD4ED000A60EE20EAB0EE4E0A01F067
:1049300011FDD4ED110A94ED001A60EE810A20EE0B
:1049400020FAB0EE4D0A01F005FDCFEE000A94ED1D
:10495000170A30EE600A6EEE80EAB0EE4D0A01F002
:10496000F9FCCEEE800A3DEEE00A84ED0C0AB0EED2
:104970004E0A01F0EFFCD4ED000A60EE20EAB0EE42
:104980004E0A01F0E7FCF0EE400A94ED100A94EDB7
:10499000001A20EE011A94ED150A01EE600AD4ED1A
:1049A0000D0A94ED021A70EE81DA4EEEC0DAB0EE26
:1049B0004E0A01F077FDD4ED000A60EE20EAB0EE79
:1049C0004E0A01F06FFDF0EE400A94ED110A94EDED
:1049D000001A20EE011A94ED160A01EE200A4EEE9E
:1049E00080DAB0EE4E0A01F0B5FCD4ED150A94ED74
:1049F000001A60EE810A40EEC0DAB0EE4E0A01F015
:104A000051FDD4ED160A94ED001A60EE810A40EED5
:104A100080DAB0EE4D0AC4ED0DDA01F029FED4EDD6
:104A2000000A60EE20DAB0EE4E0A01F03BFD6DEEBA
:104A300080EAB0EE4D0A01F01BFED4ED100A94EDB1
:104A4000001A60EE810A60EE20DAB0EE4E0A01F044
:104A500029FD94ED131AD4ED020AD4ED0F1A0DEED0
:104A6000C01A94ED0E0A70EE20DAD4ED120A94ED1D
:104A7000000A40EEC0DA41EEC00A40EE60DAB0EE65
:104A80004E0A4EEEC1DA01F065FCD4ED140A0DE0D9
:104A9000399D52A246DF913FF8C1631ADCA54C4014
:104AA00000003443000034C30000B44394ED001A06
:104AB00060EE810A60EE20EAB0EE4D0A01F0D8FD0A
:104AC0004EEEC0DAB0EE4D0A01F0D2FDD4ED130A7D
:104AD00094ED001A60EE810A60EE20EAB0EE4E0A14
:104AE00001F0E0FC4EEEC0DAB0EE4E0A01F032FC0E
:104AF000D4ED000A60EE20EAB0EE4D0A01F0B8FDF8
:104B00006EEE80EAB0EE4E0A01F024FCD4ED110AFC
:104B100094ED001A60EE810A20EE20FAB0EE4D0A04
:104B200001F0A6FDD4ED140A4FEE400A4EEEE0DA95
:104B3000C4ED0EDAD4ED0F0A94ED030A70EE800A8C
:104B4000C4ED0F0AD4ED100A70EE800AC4ED100A0D
:104B5000D4ED110A30EE800A84ED110AB0EE4E0A4F
:104B600001F0F8FBD4ED000A60EEAB0A60EE20DA4B
:104B7000B0EE4D0A01F0EEFBCDEE800A94ED170A7F
:104B800030EE600A84ED170AB0EE4E0A01F0E2FB47
:104B900094ED001AD4ED150A21EE0C1A41EE400AEC
:104BA000B0EE4E0AC4ED150A01F07CFCF0EE400AAE
:104BB00094ED000A94ED161A60EE2B1A01EEA01A7D
:104BC00084ED161AD4ED120A4CEEC00AB0EE4D0A6E
:104BD000C4ED120A01F04CFDD4ED000A60EE8C0A1F
:104BE00020EE20CAB0EE4E0A01F05CFCD4ED130AB0
:104BF0004CEE400AB0EE4E0AC4ED130A01F0AAFBD7
:104C0000D4ED000A60EEAB0A60EE20BAB0EE4D0AB9
:104C100001F02EFDD4ED140AD4ED0C1A94ED08DA4F
:104C20004BEEC00A94ED040A94ED0D6A3AEE4D1A6B
:104C300071EE802A94ED050AD4ED0E5AD4ED173AA0
:104C400036EE00AA35EE80EAC3EEA2CAD4ED07DA4A
:104C5000D4ED154A94ED125A7AEEED6A94ED062AD7
:104C600094ED134A7BEE427A81EEA27AD4ED162AB5
:104C700086EE0A3A07EE272A67EEAC7A84ED062A1A
:104C800085EE8E0A43EE26DAC4ED07DAC4EE8AAA70
:104C900000EE01DA84ED08DAD4ED09EA82EE8ACA80
:104CA000C5EE0EBA4CEE267A84EE0EBA4BEE81EAD1
:104CB000C4ED09EA94ED0AFA80EE8EAA26EEAAEA7D
:104CC000F0EE616A41EEC76A0BEE01EAF0EE461AB9
:104CD00046EE431A3EEE0FEA84ED0AEA4AEE017A06
:104CE00094ED0B1A37EE811A84ED0B1AC4ED0C6AA1
:104CF000C4ED0D1AF0EE651A45EEC01AC4ED0E1A99
:104D0000D4ED0F1A45EE6B1AC4ED0F1A64EEAA1A11
:104D1000D4ED105A4BEE041A75EEE11AC4ED101AD8
:104D200063EEAC1AD4ED115A4CEE221A4AEE201A58
:104D300075EEE11AC4ED111AF0EE631A43EEC71ACC
:104D400012EE100AB042C4ED171AF0EE641A44EEE7
:104D5000C31AC4ED151AF0EE621A42EEC31AC4ED7E
:104D6000161AF0EE451A45EE401AC4ED121AF0EE8E
:104D7000441A44EE401AC4ED131AF0EE601A40EEE5
:104D8000C01AC4ED141AC8BF32EE690A08DC12EE6C
:104D9000100AB8428CBF32EE290A94ED060A01D9F6
:104DA00084ED060A10EE100A79EE6E0A286078EE9D
:104DB000CE1AC5ED01DA38EE411A85ED02DAC5EDFD
:104DC000030AC5ED041A85ED051ABDEC108BBDE88C
:104DD000F08100000F4810B50D49016003214160CA
:104DE00000214FF410228160C0E903124FF4001239
:104DF0004261017641768176C17601774177FCF791
:104E00007BFA002808BF10BDBDE81040FBF7A2BF29
:104E100000640040000100200F4810B50D490160FA
:104E20000321416000214FF410228160C0E9031288
:104E30004FF400124261017641768176C1760177A6
:104E40004177FCF759FA002808BF10BDBDE81040B3
:104E5000FBF780BF0068004028010020254808B506
:104E6000016841F400110160016801F40011009132
:104E7000016841F4800101600068002200F48000B4
:104E8000009005210C20FDF79BFB0C20FDF788FB13
:104E9000002205213820FDF793FB3820FDF780FB29
:104EA000002205213A20FDF78BFB3A20FDF778FB25
:104EB000002205213B20FDF783FB3B20FDF770FB23
:104EC000002205214420FDF77BFB4420FDF768FB11
:104ED000002205214520FDF773FB4520FDF760FB0F
:104EE000002205214620FDF76BFBBDE80840462067
:104EF000FDF756BB3038024010B50A4A00210A4877
:104F000002F0D0F8094C0A4A00212060094802F05A
:104F1000C9F86060084A0021084802F0C3F8A060A0
:104F200010BD0000508E0008150C00080000002085
:104F3000748E0008B1560008988E0008DD570008EE
:104F40002DE9F04786B000245C4800940194029457
:104F500003940494016841F002010160016801F0CA
:104F600002010591016841F040010160016801F012
:104F700040010591016841F001010160016801F003
:104F800001010591016841F008010160016801F02B
:104F900008010591016841F004010160016801F018
:104FA00004010591016841F480710160016801F418
:104FB00080710591016841F020010160016801F0F4
:104FC00020010591016841F080010160016801F054
:104FD00080010591016841F0100101600068384FBF
:104FE00000F010000590012240213846FCF753FFE5
:104FF000DFF8D080012210214046FCF74CFFDFF89B
:10500000C8900022B9144846FCF745FF012211461A
:105010004846FCF740FF2D4E8020CDE90006DFF822
:10502000B0A0694602945046FCF71EFE4025CDE92B
:105030000054694650460294FCF716FE009501257F
:10504000CDE90154694638460395FCF70DFE08206A
:1050500000902048CDE9010569463846FCF704FE7A
:105060001020CDE900050327CDE9025769464046E7
:10507000FCF7FAFD3020CDE9000669460295164896
:10508000FCF7F2FD28030090CDE90154694648463B
:105090000394FCF7E9FDCDE90257009569464846BF
:1050A0000195FCF7E1FD002205211720FDF788FAA4
:1050B0001720FDF775FA06B0BDE8F08730380240DA
:1050C00000180240000002400004024000001110DD
:1050D0000020024000002110000802400D4810B5D9
:1050E0000B4901600C49416000214FF4804281600E
:1050F000C0E9031241618161C1610162FCF7D6FE22
:10510000002808BF10BDBDE81040FBF723BE00001B
:105110000058004050010020A08601000D4810B545
:105120000B4901600C49416000214FF480428160CD
:10513000C0E9031241618161C1610162FCF7B6FE01
:10514000002808BF10BDBDE81040FBF703BE0000FB
:10515000005C0040A4010020801A0600104810B531
:105160000E4901604FF4827141600021022281608A
:10517000C0E9031201224261520282613822C0E971
:105180000721416281620A21C162FDF797FD002873
:1051900008BF10BDBDE81040FBF7DCBD003001408A
:1051A000F801002010B588B000241948009401943B
:1051B000029403940494059414490694C0E90014DD
:1051C00041F28731C0E9024104618461FDF7DCFFEF
:1051D000002818BFFBF7BEFD0D48FEF777FB00283F
:1051E00018BFFBF7B7FD6020CDE900040294002250
:1051F000694607480494FEF7B1FA002818BFFBF788
:10520000A9FD0348FEF73AFA08B010BD004401407A
:10521000E80300200C4810B50A49016042F2CF01B2
:10522000416000213122C0E90212016180218161C7
:10523000FDF7AAFF002808BF10BDBDE81040FBF72E
:1052400089BD0000002000403004002010B596B059
:105250000024009401940294049405940694039409
:10526000079409940A940B943F4808940C940E9464
:105270000F94109411941294139414943949159422
:105280000160A721C0E9011444F61F61C0E90314BD
:105290008021C0E90541FDF777FF002818BFFBF723
:1052A00059FD4FF48050009069462F48FEF76DF885
:1052B000002818BFFBF74EFD2B48FEF707FB002820
:1052C00018BFFBF747FD049404A927480594FDF790
:1052D0000FFF002818BFFBF73DFD602006904FF43C
:1052E000FA60CDE9070409940A940B94002206A9F8
:1052F0001D480C94FEF732FA002818BFFBF72AFD70
:10530000042206A91848FEF729FA002818BFFBF75F
:1053100021FD082206A91448FEF720FA002818BF2C
:10532000FBF718FD0C2206A90F48FEF717FA002814
:1053300018BFFBF70FFD0E944FF40050CDE912405B
:1053400010940F9411940EA907481594FDF79DFE33
:10535000002818BFFBF7FEFC0348FEF78FF916B0D4
:1053600010BD0000000001401003002010B58EB0F9
:1053700000240094019402942F480394049405940B
:1053800006940794089409940A940B9429490C9460
:10539000C0E900144FF6FF71C0E902410461846165
:1053A000FDF7F2FE002818BFFBF7D4FC4FF4805045
:1053B000009069462048FDF7E8FF002818BFFBF77A
:1053C000C9FC1D48FEF782FA002818BFFBF7C2FC93
:1053D000049404A918480594FDF78AFE002818BF14
:1053E000FBF7B8FC6020069042F21070CDE907048C
:1053F000002206A910480A94FEF7B0F9002818BF49
:10540000FBF7A8FC042206A90B48FEF7A7F9002821
:1054100018BFFBF79FFC082206A90748FEF79EF974
:10542000002818BFFBF796FC0348FEF727F90EB0DB
:1054300010BD0000000C00405803002010B596B0CD
:1054400000241094119412941394149415940894B5
:1054500009940A940B940C9431480D940E94009482
:105460000194029403940494059406942B490794A0
:105470000160A721C0E9011444F61F61C0E90314CB
:105480008021C0E90541FDF77FFE002818BFFBF72A
:1054900061FC4FF48050109010A92148FDF775FF72
:1054A000002818BFFBF756FC1D48FEF70FFA00282E
:1054B00018BFFBF74FFC149414A919481594FDF775
:1054C00017FE002818BFFBF745FC602008904FF43A
:1054D000FA60CDE909040B940C940D94002208A9FC
:1054E0000F480E94FEF73AF9002818BFFBF732FC7C
:1054F00000944FF40050CDE90440029401940394C9
:10550000694607480794FDF7C0FD002818BFFBF760
:1055100021FC0348FEF7B2F816B010BD00040140AC
:10552000A00300200C4810B50A4901604FF4E13196
:105530004160002181600C22C160C0E904128161D8
:10554000C161FEF7A7FB002808BF10BDBDE81040F1
:10555000FBF700BC00100140780400200C4810B597
:105560000A4901600B494160002181600C22C16041
:10557000C0E904128161C161FEF78CFB002808BFFD
:1055800010BDBDE81040FBF7E5BB0000004800403F
:10559000BC040020A08601000C4810B50A49016037
:1055A0004FF4E1314160002181600C22C160C0E90B
:1055B00004128161C161FEF76DFB002808BF10BDB8
:1055C000BDE81040FBF7C6BB0014014000050020F9
:1055D000FEE7704710B50E48FDF75CFE0D48FDF77D
:1055E00059FE00210A48FEF7A1F904210848FEF7F8
:1055F0009DF908210648FEF799F90C210448FEF7A9
:1056000095F9BDE8104000210248FEF78FB900006F
:1056100010030020A0030020DFF888C010B4DCF8DD
:1056200000305C6944F040045C61DCF80030D3F881
:105630000CC04CF0100CC3F80CC0DFF86CC0DCF8E8
:1056400000301C6824F001041C60DCF800301B688A
:1056500013F0010F0BD0DCF800301C6824F00104BB
:105660001C60DCF800301B6813F0010FF3D1DCF88C
:1056700000400E4BA360DCF80030D860DCF800007E
:105680000161DCF800004260DCF80000016841F4D0
:1056900080210160DCF80000016841F00101016037
:1056A00010BC7047BC0400200406002004480040E1
:1056B000FEE7000038B504461348DFF850C0006824
:1056C000B0FBFCF04FF47A7C00FB0CF000906068BB
:1056D000B0F5827F0DD10B4600920022802120463A
:1056E00000F016F870B1606D40F020006065032096
:1056F00038BD009830B1401E00902068806810F0DE
:10570000800FF6D1002038BD1C00002000366E014D
:105710002DE9F8431F46904689460446089DFCF74C
:10572000BFFB401B3D1AFCF7BBFB06462A4800683E
:10573000C0F3CB30684300902068806839EA0000ED
:105740000CBF01200020404517D0B7F1FF3F0BD020
:10575000FCF7A6FB801BA84212D28DB1009800284E
:1057600008BF0025401E00902068806839EA0000CC
:105770000CBF012000204045E7D10020BDE8F883A0
:105780002068416821F0E00141606068B0F5827FE7
:105790000BD1A068B0F5004F18BFB0F5806F04D1F1
:1057A0002068016821F040010160A06AB0F5005F47
:1057B00009D12068016821F4005101602068016866
:1057C00041F400510160012084F85100002084F868
:1057D00050000320BDE8F8831C000020FBF75CF9B3
:1057E000FBF7BCF9052001F019FCF7E710B54FF005
:1057F000E020006903F02CF9012808BF10BDBDE8C6
:10580000104002F0EBBD000030B593B000241E48FC
:1058100002940394049405940C940D940E940F94A4
:105820001094016841F080510160006800F08050E0
:1058300011901648016841F480410160006802251A
:1058400000F480401190012000900004019080013C
:10585000CDE9065006200890A820CDE909050420CE
:105860000B906846FDF71CF80F20CDE90C054FF4AE
:10587000A050CDE90E40E802109005210CA8FCF7DD
:10588000E3FE13B030BD000040380240007000401D
:105890000F48016841F4700101600E48016841F051
:1058A000010101600C4A00211160026822F41022FB
:1058B00022F080720260031D084A1A60026822F416
:1058C0008022026006480160064958060860704759
:1058D00088ED00E000380240083802401030002413
:1058E0000C38024008ED00E00148FDF710BE000052
:1058F0002407002010B50448FDF709FEBDE810405C
:105900000248FDF704BE0000A00300203004002080
:10591000F0B402682B4B2C4C2C4D2D4EDFF8B4C04C
:10592000984218BFB0F1804F07D0A04218BFA842DC
:1059300003D0B04218BF604503D14F6822F0700217
:105940003A43984218BFB0F1804F25D0A04218BF0B
:10595000A84221D0B04218BF60451DD0A0F18044BC
:10596000B4F5A0341CBFA0F18044B4F5A23413D028
:10597000A0F18044B4F5A4341CBFA0F18044B4F578
:10598000C05409D0A0F18044B4F5E0541CBFA0F18C
:105990008044B4F5005403D1CC6822F44072224311
:1059A0004C6922F08002224302608A68C2620A685F
:1059B0008262984212BF6045096901630121416119
:1059C000F0BC7047000001400004004000080040A7
:1059D000000C00400004014001F01F010123D0F839
:1059E00020C08B402CEA03030362036A02FA01F130
:1059F000194301627047000070B4026A22F001028C
:105A00000262036A4268D0F818C00C682CF0730C6C
:105A100044EA0C0C8C6823F0020323430E4C0F4D18
:105A2000A04218BFA84205D1CE6823F00803334333
:105A300023F00403A04218BFA84205D14C6922F408
:105A4000407222438C6922434260C0F818C0496802
:105A50004163036270BC70470000014000040140D4
:105A600070B4026A22F010020262036A4268D0F83F
:105A700018C00C682CF4E64C4CEA042C8C6823F01B
:105A8000200343EA0413104C104DA04218BFA84253
:105A900006D1CE6823F0800343EA061323F04003C7
:105AA000A04218BFA84207D14C6922F4406242EAE2
:105AB00084028C6942EA84024260C0F818C04968D6
:105AC0008163036270BC7047000001400004014024
:105AD00010B5806B0021C185C184FDF7A2FF10BD08
