:020000040800F2
:10000000387E002029030008FB670008954A000895
:10001000F9670008C50800089D8F0008000000006F
:10002000000000000000000000000000690200085D
:10003000290C000800000000C5020008316B000810
:100040004303000843030008430300084303000878
:1000500043030008430300082B0C00084303000877
:100060004303000843030008430300084303000858
:10007000050B00084303000843030008430300087E
:100080004303000843030008430300084303000838
:10009000C90800084303000843030008310C0008A6
:1000A0004303000843030008430300084303000818
:1000B0002D6C0008430300084303000843030008B5
:1000C00043030008430300084303000843030008F8
:1000D0004303000821730008430300083D73000830
:1000E00043030008430300084303000843030008D8
:1000F000556C0008396C00084303000843030008EE
:1001000043030008430300084303000843030008B7
:1001100043030008430300084303000843030008A7
:10012000110B0008430300081D0B0008290B0008F1
:100130004303000843030008430300084303000887
:100140008909000843030008430300088D6800087C
:10015000350B0008410B00084D0B000851730008D7
:100160004303000843030008430300084303000857
:100170004303000843030008430300080000000095
:10018000430300084303000800F002F800F05CF8A5
:100190000AA090E8000C82448344AAF10107DA45E2
:1001A00001D100F051F8AFF2090EBAE80F0013F0D8
:1001B000010F18BFFB1A43F001031847ACCE000033
:1001C000CCCE00000A444FF0000C10F8013B13F0B5
:1001D000070408BF10F8014B1D1108BF10F8015BA0
:1001E000641E05D010F8016B641E01F8016BF9D193
:1001F00013F0080F1EBF10F8014BAD1C0C1B09D1EA
:100200006D1E58BF01F801CBFAD505E014F8016B5B
:1002100001F8016B6D1EF9D59142D6D370470000ED
:100220000023002400250026103A28BF78C1FBD8FF
:10023000520728BF30C148BF0B6070471FB50CF094
:10024000F0FD1FBD10B510BD00F0E4F91146FFF739
:10025000F5FF0AF049FA00F002FA03B4FFF7F2FFE3
:1002600003BC00F005FA00002C4B19680868B0E8E0
:10027000F04F80F30988BFF36F8F4FF0000080F3D9
:10028000118870470000000008480068006880F38B
:1002900008884FF0000080F3148862B661B6BFF39F
:1002A0004F8FBFF36F8F00DF00BF00BF08ED00E08E
:1002B000DFF80C00016841F470010160704700BF75
:1002C00088ED00E0EFF30980BFF36F8F134B1A68DE
:1002D0001EF0100F08BF20ED108A20E9F04F1060CB
:1002E00009B44FF0500080F31188BFF34F8FBFF374
:1002F0006F8F0BF073FB4FF0000080F3118809BC87
:1003000019680868B0E8F04F1EF0100F08BFB0EC95
:10031000108A80F30988BFF36F8F7047A000002018
:10032000EFF30580704700000948804709480047FF
:10033000FEE7FEE7FEE7FEE7FEE7FEE7FEE7FEE795
:10034000FEE7FEE704480549054A064B70470000F2
:10035000D56B00088901000838780020387E00201D
:10036000387A0020387A002053EA020C00F06980C5
:100370002DE9F04B4FF00006002B1FBFB3FA83F5B9
:1003800003FA05F424FA05F65E4012BF1643B2FAEA
:1003900082F502FA05F4C5F120051EBF22FA05FC1C
:1003A00044EA0C04203556EA044C4FEA144418BFC2
:1003B000641C4FF000084FF00009904271EB030CF1
:1003C00039D3002919BFB1FA81F701FA07F6B0FA5B
:1003D00080F700FA07F6C7F120071EBF20FA07FCD6
:1003E00046EA0C062037B6FBF4FCA7EB0507103FE6
:1003F00007F01F0BCBF120060CFA0BFB2CFA06F6CC
:1004000044BFB3460026202FA4BF5E464FF0000B2A
:100410005BEA060C08BF4FF0010B19EB0B09ABFBB5
:10042000027C48EB0608C01B06FB02CC0BFB03CC8E
:1004300071EB0C01C1E70B46024641464846BDE858
:10044000F08B13B54FF000004FF00001AFF30080C8
:10045000BDE81C407047032A40F2308010F0030CC6
:1004600000F0158011F8013BBCF1020F624498BF07
:1004700011F801CB00F8013B38BF11F8013BA2F1A4
:10048000040298BF00F801CB38BF00F8013B11F01F
:10049000030300F02580083AC0F0088051F8043BBF
:1004A000083A51F804CBA0E80810F5E7121D5CBF2C
:1004B00051F8043B40F8043BAFF30080D20724BF5F
:1004C00011F8013B11F801CB48BF11F8012B24BFF3
:1004D00000F8013B00F801CB48BF00F8012B704742
:1004E00010B5203AC0F00B80B1E81850203AA0E8CF
:1004F0001850B1E81850A0E81850BFF4F5AF5FEA03
:10050000027C24BFB1E81850A0E8185044BF18C9B5
:1005100018C0BDE810405FEA827C24BF51F8043B5C
:1005200040F8043B08BF7047D20728BF31F8023BB0
:1005300048BF11F8012B28BF20F8023B48BF00F844
:10054000012B704702F0FF0343EA032242EA024212
:1005500000F010B870477047704710B500F02EF8E3
:10056000006810BD10B5044600F028F8046010BD06
:100570004FF000020429C0F0128010F0030C00F0CC
:100580002380CCF1040CBCF1020F18BF00F8012B42
:10059000A8BF20F8022BA1EB0C0100F015B85FEA10
:1005A000C17C24BF00F8012B00F8012B48BF00F8E4
:1005B000012B704700487047D477002000487047EF
:1005C000D47700204FF0000200B5134694469646BB
:1005D000203922BFA0E80C50A0E80C50B1F1200156
:1005E000BFF4F7AF090728BFA0E80C5048BF0CC004
:1005F0005DF804EB890028BF40F8042B08BF704762
:1006000048BF20F8022B11F0804F18BF00F8012BD3
:10061000704770477546FFF7CDFFAE460500694647
:10062000534620F00700854618B020B5FFF78AFE34
:10063000BDE820404FF000064FF000074FF00008E3
:100640004FF0000B21F00701AC46ACE8C009ACE864
:10065000C009ACE8C009ACE8C0098D46704710B5C8
:100660000446AFF300802046BDE81040FFF7F5BD1B
:1006700001491820ABBEFEE726000200012210212E
:10068000014801F0F5BA00000000024000221021EC
:10069000014801F0EDBA0000000002407047000080
:1006A00001221146014801F0E3BA000000040240B3
:1006B00000220121014801F0DBBA000000040240E1
:1006C000704770B5411E8CB22CBF4FF47A7570BD67
:1006D0004FF47A70B0FBF5F001F090F9611E8CB226
:1006E000F6D270BD4FF47A71B0FBF1F001F086B92B
:1006F00010B5FFF7D3FFFFF7E3FF09F04FFA044609
:1007000009F0D6FA204310BD2DE9F04383B0074627
:1007100000201646884600900190FFF7B7FF922010
:1007200000F0BEF86D460624922000F0B9F855207E
:1007300000F0B6F805F8010B601E10F0FF04F6D1CA
:10074000FFF79CFF9DF801009DF80010000200B229
:10075000084300EE100ADFF84091B8EEC00AD9ED68
:10076000000A20EE200A88ED000A9DF803009DF89B
:100770000210000200B2084300EE100AF8EEC00AB0
:1007800099ED000A60EE800AC8ED010A9DF80500A7
:100790009DF80410000200B2084300EE900AF8EE43
:1007A000E00A20EE800A88ED020AFFF781FF6D461D
:1007B0000824802000F074F8552000F071F805F846
:1007C000010B601E10F0FF04F6D1FFF769FF9DF8E2
:1007D00000000F2830D19DF803009DF802100002A0
:1007E00000B2084300EE100AD9ED010AB8EEC00AC3
:1007F00020EE200A87ED000A9DF805009DF8041000
:10080000000200B2084300EE100AF8EEC00A99EDAB
:10081000010A60EE800AC7ED010A9DF807009DF805
:100820000610000200B2084300EE900AF8EEE00A5B
:1008300020EE800A87ED020AFFF728FFA22000F0D1
:100840002FF86D460224A22000F02AF8552000F06F
:1008500027F805F8010B601E10F0FF04F6D1FFF732
:100860000DFF9DF800009DF80110C00040EA5110F6
:10087000B0F5806FA8BFA0F5006000EE100AB4EEDE
:10088000001AF8EEC00A9FED050A00EE810A86ED17
:10089000000A03B0BDE8F0832001002000003442CC
:1008A00001B582B04FF47A700090012301AA02A929
:1008B000034802F06FFF9DF8040003B000BD000084
:1008C000AC030020FEE70000014800F072BB00000E
:1008D000B402002030B52A4D83B04FF40070286078
:1008E0000020A860E860082005F130042861208815
:1008F00002AB010A8DF800108DF80100208C6A46C9
:10090000010A8DF802108DF80300B4F84000010AC6
:100910008DF804108DF80500B4F86000010A8DF818
:1009200006108DF80700A4F13001164800F0A0F978
:1009300040F2FF102860B4F8800002AB010A8DF885
:1009400000108DF80100B4F8A0006A46010A8DF885
:1009500002108DF80300B4F8C000010A8DF80410ED
:100960008DF80500B4F8E000010A8DF806108DF846
:100970000700A4F13001034800F07AF903B030BD5C
:10098000A0700020B4020020014800F012BB00005B
:10099000DC02002030B52B4D83B04FF4007028608E
:1009A0000020A860E860082005F118042861B4F868
:1009B000600102AB010A8DF800108DF80100B4F857
:1009C00080016A46010A8DF802108DF80300B4F820
:1009D000A001010A8DF804108DF80500B4F8C001DB
:1009E000010A8DF806108DF80700A4F118011648C9
:1009F00000F03EF940F2FF102860B4F8E00102ABCD
:100A0000010A8DF800108DF80100B4F800026A4662
:100A1000010A8DF802108DF80300B4F82002010AD3
:100A20008DF804108DF80500B4F84002010A8DF825
:100A300006108DF80700A4F11801034800F018F91A
:100A400003B030BDB8700020DC0200204FF08055AC
:100A5000094C0AF0BBFFFFF73DFFFFF79BFF0BF0D0
:100A6000B1FC20B92560BFF34F8FBFF36F8F0A2011
:100A700009F094FEEDE7000004ED00E0002070476F
:100A80000020704710B500220449054806F09BFD80
:100A90000449034806F08DFD002010BD601C0020B5
:100AA000680900206014002010B50988044689B246
:100AB00008F076FA2146044806F07BFD024806F06D
:100AC00057FD002010BD000068090020002070477D
:100AD0000A46094910B5D1F8BC12D1F81412002900
:100AE0001CBF012010BD0146034806F06CFDBDE8A7
:100AF0001040014806F0F0BD680900200A2009F006
:100B00004DFEFBE7014800F095BD000048080020BD
:100B1000014800F08FBD000004040020014800F0EF
:100B200089BD0000A8080020014800F083BD000036
:100B300064040020014800F07DBD0000880700200B
:100B4000014800F077BD000008090020014800F0CE
:100B500071BD0000E80700202D4882B000680168E0
:100B600011F0200F04D001684068009002B0704777
:100B70002849096811F0100F04BF02B070470168DE
:100B800040680090244A10680168244B11F4002F3B
:100B900001684FF0240C21F0010101601BD01168A5
:100BA0004868C0F1240080B21880C1F804C01C4914
:100BB0008B6A23F400238B6211680A6842F00102F9
:100BC0000A6012281CBF02B07047164902B001F13A
:100BD0003A000AF085BB10684168C1F1240189B26E
:100BE0001980C0F804C01068036843F40023036050
:100BF0001068026842F00102026012291CBF02B0B4
:100C00007047084902B001F116000AF069BB000004
:100C10000007002000480040480800207001002024
:100C200000600240907300207047012000F002BF76
:100C300010B5202000F0FEFEBDE81040802000F03E
:100C4000F9BE7047052009F0A9FDFBE790F82020C8
:100C5000012A18BF022A05D0416A41F4802141626D
:100C600001207047006842691143416100207047CC
:100C700070B490F82040D0F800C0DCF808C0012C17
:100C800018BF022C06D0416A41F48021416270BC39
:100C9000012070471CF0E05F55D0CCF3016CBCF133
:100CA000020F06D9416A41F40001416270BC012083
:100CB0007047012404FA0CF41C608B684FF4C07474
:100CC0009BB1CD6804EB0C162B434D6843EAC5037A
:100CD0000568AB514FF4C273066803EB0C130D6942
:100CE000F550097D01290ED108E00D88CB6804EB91
:100CF0000C1643EA45530568AB51EBE70168CD5844
:100D000045F48075CD501179D2F805304FF4C67591
:100D100041EA0321036805EB0C1559511178D2F80B
:100D200001204FF4C47341EA0222016803EB0C1363
:100D3000CA50006804EB0C11425842F001024250C4
:100D400070BC00207047416A41F40011416270BCE0
:100D50000120704790F82020012A18BF022A05D0F0
:100D6000416A41F480214162012070473D48D0F83A
:100D7000002242F00102C0F80022D0F8002222F442
:100D80007C52C0F80022D0F800224B6A42EA0322CB
:100D9000C0F800220A7D012302F01F0203FA02F2CA
:100DA000D0F81C329343C0F81C32CB69D3B9D0F8C9
:100DB0000C329343C0F80C32B1F80CC04B686CF3A2
:100DC0001F43D1F814C000EBCC0CCCF84032B1F882
:100DD00008C00B686CF31F43D1F814C000EBCC0CB7
:100DE000CCF84432CB69012B1AD1D0F80C32134322
:100DF000C0F80C32B1F800C04B686CF31F43D1F857
:100E000014C000EBCC0CCCF84032B1F808C0CB6871
:100E10006CF31F43D1F814C000EBCC0CCCF8443277
:100E20008B69002BD0F804320CBF93431343C0F8F6
:100E300004320B69002BD0F814320CBF93431343D8
:100E4000C0F81432096A012904D1D0F81C121143E8
:100E5000C0F81C12D0F8001221F00101C0F80012F5
:100E60000020704700640040704710B490F820C024
:100E7000BCF1010F18BFBCF1020F06D0416A41F46A
:100E80008021416210BC01207047D0F800C029B118
:100E9000DCF810C01CF0030F7DD004E0DCF80CC0BF
:100EA0001CF0030F7ED04FF4D87C04680CEB011CBF
:100EB00054F80C4014F004049460046854F80C4096
:100EC00007BF640D1460E4085460046854F80CC053
:100ED0000CF0020CC2F80CC04FF4DA7C04680CEB86
:100EE000011C54F80C4004F00F041461046854F819
:100EF0000C40C4F307249461046854F80CC04FEA12
:100F00001C4CC2F814C04FF4DC72D0F800C002EBE5
:100F100001125CF802C083F800C0D0F800C05CF891
:100F200002C04FEA1C2C83F801C0D0F800C05CF866
:100F300002C04FEA1C4C83F802C0D0F800C05CF835
:100F40000220120EDA704FF4DE72D0F800C002EB0D
:100F500001125CF802C083F804C0D0F800C05CF84D
:100F600002C04FEA1C2C83F805C0D0F800C05CF822
:100F700002C04FEA1C4C83F806C0D0F800C05CF8F1
:100F80000220120EDA71006800290CBFC1680169E5
:100F900041F0200100E005E00CBFC16001610020CC
:100FA00010BC7047416A41F40011416210BC01203D
:100FB00070472DE9F05F0546006800244669D0F8C7
:100FC00004908768D0F80CB0D0F810A0D0F8188042
:100FD00016F0010F25D017F0010F07D00121816015
:100FE00017F0020F7CD0284600F091FA17F4807FAA
:100FF00009D029684FF48070886017F4007F70D0A2
:10100000284600F086FA17F4803F0AD029684FF48A
:101010008030886017F4003F00F0B980284600F067
:101020007AFA16F0080F18BF1BF0100F04D02968C9
:10103000102044F40074C86016F0040F4FF0080745
:1010400018BF1BF0080F04D02868C760284600F0BE
:10105000D7F916F0020F07D02868C06810F0030F08
:101060001CBF284600F0CEF916F0400F18BF1AF04A
:10107000100F04D02968102044F48064086116F031
:10108000200F18BF1AF0080F04D0286807612846FF
:1010900000F008FA16F0100F07D02868006910F069
:1010A000030F1CBF284600F0FEF916F4003F18BFDE
:1010B00019F0100F05D0296810204860284600F06C
:1010C000F3F916F4803F18BF19F0080F04D0286810
:1010D0004760284600F020FA16F4004F78D001E06F
:1010E00035E044E019F0040F6FD016F4807F1CBF88
:1010F00018F0010F44F0010416F4007F1CBF18F033
:10110000020F44F0020416F4806F1CBF18F0040FA5
:1011100044F0040416F4006F18BF18F0700F54D098
:1011200008F07000402808BF44F0400448D03EDC7E
:10113000102808BF44F0080442D0202808BF44F01B
:1011400010043DD0302808BF44F0200438E017F0E8
:10115000040F18BF4FF400647FF448AF17F0080F76
:101160000ABF28464FF4805400F0D0F93EE717F448
:10117000806F18BF44F400547FF445AF17F4006F3C
:101180000ABF284644F4804400F0C2F93BE717F454
:10119000802F18BF44F400447FF443AF17F4002FAE
:1011A0000ABF284644F4803400F0B4F939E75028E7
:1011B00008BF44F0800403D0602808BF44F4807462
:1011C0002868816921F070018161296804204860E4
:1011D000002C08BFBDE8F09F686A2043686228467B
:1011E000FFF742FEBDE8F09F002804BF01207047D2
:1011F00070B5044690F82000002804BF204600F097
:1012000087F82068016841F00101016000F036FDB7
:101210000546206840684FF0050610F0010F09D11F
:1012200000F02CFD401B0A2816D82068406810F0FA
:10123000010FF5D02068016821F00201016000F083
:101240001DFD05462068406810F0020F11D000F027
:1012500015FD401B0A2807D9606A40F4003060621F
:1012600084F82060012070BD2068406810F0020FF3
:10127000EDD1207E0128206801680CBF41F080017B
:1012800021F080010160607E0128206801680CBFA8
:1012900041F0400121F040010160A07E012820685A
:1012A00001680CBF41F0200121F020010160E07EC7
:1012B0000128206801680CBF21F0100141F01001E5
:1012C0000160207F0128206801680CBF41F00801FF
:1012D00021F008010160607F0128206801680CBFCF
:1012E00041F0040121F004010160D4E90201084346
:1012F000D4E90412114308436168491E0843216878
:10130000C86100206062012084F82000002070BDC8
:10131000F0B587B00021354E009101910291039103
:10132000049101683068324B02240925314A401C7F
:10133000A1F180474FF0030CB7F5C84710D0B7F5BF
:1013400080671CBF07B0F0BD116841F0806111607B
:101350001168012801F08061059130602BD122E0F5
:101360003060012807D1106840F0007010601068EC
:1013700000F000700590186840F0080018601868C8
:10138000CDE900C400F00800CDE904506946CDF86D
:101390000CC0194800F05AFB00220521142000F06F
:1013A000FDFF14201EE0106840F00070106010680F
:1013B00000F000700590186840F00200186018688E
:1013C000694600F0020005906020CDE90004CDE9F7
:1013D00003C50A4800F03AFB00220521402000F036
:1013E000DDFF402000F0CAFF07B0F0BD2000002064
:1013F0003038024040380240000C024000040240F5
:101400007047000010B58AB004466B4602AA00215E
:10141000FFF72BFD0298694680B205F0AFFA1F482E
:101420001F498442029801EB40101AD1A0F5804078
:10143000203842884281BDF8002052BA4280BDF86F
:10144000022052BA8280BDF8042052BAC2809DF8B0
:1014500006200272029801EB4010A0F5804020386F
:1014600017E0A0F57B5042884281BDF8002052BAB7
:101470004280BDF8022052BA8280BDF8042052BAE0
:10148000C2809DF806200272029801EB4010A0F580
:101490007B5009F087FA0AB010BD0000B4020020AA
:1014A000D070002070477047704770B5044690F8C0
:1014B0002000012804D0606A40F4002060621BE034
:1014C000022084F820002068016821F001010160F9
:1014D00000F0D4FB05462068406810F0010F12D0E0
:1014E00000F0CCFB401B0A2808D9606A40F40030A9
:1014F0006062052084F82000012070BD20684068EB
:1015000010F0010FECD10020606270BD7047704791
:1015100070477047704770477047002804BF01202C
:10152000704710B50446407920B90020207120464C
:1015300000F004F801206071002010BD006881B047
:10154000A0F18041B1F50C311CBF01B070470548D6
:10155000016841F480510160006800F480500090FF
:1015600001B07047303802402DE9F0410446866DE5
:1015700000F084FB054694F835000027022806D0C9
:101580008020606584F834700120BDE8F081206817
:10159000016821F0160101602068416921F0800195
:1015A0004161206C002804BFA06C002804D0206892
:1015B000016821F0080101602068016821F0010143
:1015C00001602068006810F0010F12D000F056FB97
:1015D000401B052808D920206065032084F83500C9
:1015E00084F83470BDE8F0812068006810F0010FC5
:1015F000ECD194F85C003F2101FA00F0B0600120CA
:1016000084F8350084F834700020BDE8F08190F84B
:101610003510022903D08021416501207047052142
:1016200080F835100068016821F001010160002098
:10163000704700002DE9F84304464FF00008CDF84C
:10164000008071484FF41651A56D0068B0FBF1F7AA
:101650002E6894F85C00082101FA00F0304211D0A5
:101660002068026812F0040F0CD0026822F0040215
:10167000026094F85C0001FA00F0A860606D40F030
:101680000100606594F85C004FF0010909FA00F070
:10169000304209D02168496911F0800F04D0A86058
:1016A000606D40F00200606594F85C100420884092
:1016B000304209D02168096811F0020F04D0A860F7
:1016C000606D40F00400606594F85C101020884064
:1016D000304220D02168096811F0080F1BD0A860A3
:1016E0002068016811F4802F09D0006810F4002FE1
:1016F00002D0A16C79B10CE0216C51B90BE001680A
:1017000011F4807F03D1016821F008010160216C90
:1017100009B12046884794F85C1020208840304268
:1017200049D02168096811F0100F44D0A86094F8DE
:10173000350005282068016809D011F4802F2AD0CF
:10174000006810F4002F23D0E16B19B331E021F0D1
:10175000160101602068416921F080014161206C1F
:10176000002804BFA06C002804D02068016821F084
:101770000801016094F85C003F2101FA00F0A860C4
:1017800084F8359084F83480216DC1BBBDE8F883BE
:10179000616C71B90FE0016811F4807F07D10168B5
:1017A00021F01001016084F8359084F83480E16BF9
:1017B00009B120468847606D002808BFBDE8F8835E
:1017C000606D10F0010F15D0052084F835002068F9
:1017D000016821F0010101600098401C0090B842AE
:1017E00004D82068006810F0010FF5D184F8359016
:1017F00084F83480E16C002908BFBDE8F8832046F6
:1018000001B0BDE8F04308479C00002070B50446D5
:1018100000F034FA0646002C04BF012070BD0220FF
:1018200084F83500002584F834502068016821F0E0
:10183000010101602068006810F0010F0FD000F076
:101840001DFA801B052805D920206065032084F837
:10185000350070BD2068006810F0010FEFD12168DD
:1018600008683B4A1040D4E901231A43D4E9033CF9
:1018700043EA0C031A4363691A43A3691A43E369F1
:101880001A43236A1A431043626A042A03D1D4E933
:101890000B231A431043086026687069012320F067
:1018A0000701606A40EA0102042838D1A16AE06AAF
:1018B0000A4330B3D4F818C0BCF1000F0AD0BCF50D
:1018C000005F14D000291CBF0129022921D003295F
:1018D0001CD024E019B1012905D002291FD110F034
:1018E000807F1CD015E0B0F1C07F18D111E081B12C
:1018F000012907D002290CD0032908BFB0F1C07F0D
:1019000007D00CE010F0807F03D108E010F0807F5A
:1019100005D04020606584F83530012070BD7261CB
:1019200020680C4AC1B21039A2FB01210A4A0909F8
:101930000329525CE2656FF3090088BF001D3F2157
:101940009140A0658160656584F83530002070BDE8
:101950003F8010F0ABAAAAAABCCF000870B490F8E0
:1019600034C00024856DBCF1010F02BF022070BCA1
:1019700070474FF0010C80F834C090F835604FF09C
:10198000000C012E1CBF80F834C0022402D0204677
:1019900070BC7047022680F83560C0F854C0D0F89B
:1019A00000C0DCF8006026F48026CCF80060D0F897
:1019B00000C0CCF804308368402B036803BF9A60F2
:1019C0000268D16099601CBF0168CA6090F85C1021
:1019D0003F2202FA01F1A96001680A6842F016028A
:1019E0000A60016C21B101680A6842F008020A60CD
:1019F0000068016841F001010160C8E770B5044664
:101A000000F03CF90546B4F1FF3F02D004480078ED
:101A1000044400F033F9401BA042FAD370BD00002B
:101A200090000020012818BF70476FF0FF0008F0F9
:101A300061BC000004490A68024208BF704710B543
:101A40000860FFF7EFFF10BD143C01402DE9F84F8F
:101A5000DFF810A20022DFF808924FF0010E0327F2
:101A60004FF00F080AF1040B0B680EFA02FC03EAB0
:101A70000C03634540F0EE800C7904F00304012C64
:101A800018BF022C14D18568540007FA04F6B54338
:101A9000CE6806FA04F42C438460446824EA0C0CF3
:101AA0000C79C4F30014944044EA0C0CC0F804C050
:101AB000D1F804C037EA0C0C0CD0C4684FEA420CD1
:101AC00007FA0CF5AC438D6805FA0CFC4CEA040CE3
:101AD000C0F80CC091F804C00CF0030CBCF1020F6C
:101AE00012D14FEAD20C00EB8C04256A4FEA427CFB
:101AF0004FEADC6C08FA0CF6B5430E6906FA0CFCEA
:101B00004CEA050CC4F820C004684FEA420C07FAFE
:101B10000CF5AC430D7905F0030505FA0CFC4CEA15
:101B2000040CC0F800C0D1F804C01CF4403F7CD0C5
:101B3000D9F800C04CF4804CC9F800C0D9F800C0F6
:101B40000CF4804CCDF800C022F0030C0CF1804561
:101B500005F59835D5F808C89407240F08FA04F657
:101B60002CEA0606A0F1804CBCF5003C38D0A0F170
:101B7000804CBCF5013C08BF4FF0010C30D0A0F107
:101B8000804CBCF5023C08BF4FF0020C28D0A0F1FD
:101B9000804CBCF5033C08BF4FF0030C20D0A0F1F3
:101BA000804CBCF5043C08BF4FF0040C18D0A0F1E9
:101BB000804CBCF5053C08BF4FF0050C10D0A0F1DF
:101BC000804CBCF5063C08BF4FF0060C08D0A0F1D5
:101BD000804CBCF5073C0CBF4FF0070C4FF0080CD5
:101BE0000CFA04FC4CEA060CC5F808C8DAF800C088
:101BF0004C682CEA030C14F4803F18BF4CEA030C29
:101C0000CAF800C0DBF800C04C682CEA030C14F4DE
:101C1000003F18BF4CEA030CCBF800C0124CD4F8BC
:101C200000C04D682CEA030C00E013E015F4801F9F
:101C300018BF4CEA030CC4F800C00C4CD4F800C028
:101C40004D682CEA030C15F4001F18BF4CEA030C76
:101C5000C4F800C0521C102AFFF406AFBDE8F88F8C
:101C600044380240003C0140083C01400C3C01402B
:101C7000002A08BF0904816170470000014880689C
:101C80007047000090000020002804BF012070472A
:101C900070B5044690F83D00002520B984F83C500A
:101CA000204600F07FFA242084F83D002068016877
:101CB00021F0010101602068016841F400410160E8
:101CC0002068016821F40041016001F011FA544BD1
:101CD0006168994203D85349814203D804E05249CC
:101CE000814201D9012070BD50492268B0FBF1F159
:101CF000D2F804C02CF03F0C4CEA010CC2F804C02E
:101D00006268934228BF4A1C07D24FF4967251432F
:101D10004FF47A72B1FBF2F14A1C2168D1F820C06D
:101D20002CF03F0C42EA0C020A6261688B420FD32E
:101D30004900401EB0FBF1F2521CC2F30B02042A10
:101D400031BF0420B0FBF1F0401CC0F30B0022E0D7
:101D5000A268002A52D001EBC10303EB0113A0F1EA
:101D6000010CBCFBF3F35B1C43F480431B051B0D10
:101D700008BF01200FD0002A48D001EBC10202EBBE
:101D80000111401EB0FBF1F0401CC0F30B0040F409
:101D9000804040F400402168CA6922F0FF0222F42A
:101DA0004F421043C861D4E907010143206802682B
:101DB00022F0C00211430160D4E9031001432068FE
:101DC000826822F0FF0222F4034211438160D4E9C9
:101DD000050101432068C26822F0FF021143C1607F
:101DE0002068016841F0010101602564202084F829
:101DF0003D00256384F83E50002070BD01EB410397
:101E0000A0F1010CBCFBF3F35B1CAFE701EB41015C
:101E1000401EB0FBF1F0401CC0F30B00B9E700001E
:101E2000A086010080841E0000093D0040420F0092
:101E30002DE9FF4F83B09A46DDE9118693460446AB
:101E4000DDF84090FFF71AFF054694F83D00202882
:101E500040F0F880192301227C492046009502F0C9
:101E600047FF002840F0EE8094F83C00012800F085
:101E7000E980012084F83C002068016811F0010F1E
:101E800003D1016841F0010101602068016821F47B
:101E900000610160222084F83D00402084F83E006B
:101EA00000272764C4F82490A4F82A80608D208538
:101EB0006748E062CDE9006553465A4620460499DA
:101EC00002F0EAFD00287DD1208D40B101280FD01D
:101ED0000228206812D04169806900901EE02068C5
:101EE000416981690091016841F40071016012E06B
:101EF0002068016821F480610160F0E7016821F445
:101F0000806101602068016841F40061016020681F
:101F1000416980690090208D00287DD0DFF83481F0
:101F2000208D032856D801280BD0022833464FF0C5
:101F3000000241462046009518D002F0D9FEC8B1F3
:101F40004EE02A463146204602F08BFF002847D15A
:101F500020680069616A0870606A401C6062208DB8
:101F6000401E2085608D401E60855CE002F0C0FE52
:101F700040BB19E02068016821F48061016020689D
:101F80000069616A0870606A401C6062208D401EB2
:101F90002085608D401E60853346002241462046E4
:101FA000009502F0A5FE68B92068016841F400714F
:101FB000016020680069616A0870606A401C6062A4
:101FC000218D00E00CE0491E2185618D491E61854F
:101FD00021681BE02A463146204602F042FF18B134
:101FE00007B00120BDE8F08F20680069616A0870C1
:101FF000606A401C6062218D491E2185618D491EE9
:10200000618521684A6912F0040F0CD009690170DA
:10201000606A401C606200E009E0208D401E20855F
:10202000608D401E6085208D00287FF479AF2020D0
:1020300084F83D0084F83E7084F83C7007B00020BE
:10204000BDE8F08F07B00220BDE8F08F020010005D
:102050000000FFFF040001002DE9FF4F83B09A4606
:10206000DDE9118693460446DDF84090FFF706FE51
:10207000054694F83D0020287BD1192301224749C9
:102080002046009502F034FE002872D194F83C00FE
:1020900001287FD0012084F83C002068016811F0FD
:1020A000010F03D1016841F001010160206801685E
:1020B00021F400610160212084F83D00402084F873
:1020C0003E0000272764C4F82490A4F82A80608D7D
:1020D00020853348E062CDE9006553465A462046E4
:1020E000049902F067FD00283FD1208D002833D0ED
:1020F0002A463146204602F0F3FE40B1206C042807
:1021000033D12068016841F4007101602DE0606AFC
:10211000216800780861606A00F1010CC4F824C0ED
:10212000208D401E80B22085618D491E6185236807
:10213000596911F0040F0CD070B19CF800001861BF
:10214000606A401C6062208D401E2085608D401EAC
:102150006085208D0028CBD12A463146204602F0EA
:1021600083FD38B1206C0428CBD007B00120BDE836
:10217000F08F0FE02068016841F4007101602020B9
:1021800084F83D0084F83E7084F83C7007B000206D
:10219000BDE8F08F07B00220BDE8F08F020010000C
:1021A0000000FFFF2DE9F04186B000210091019170
:1021B00002910391049100682E49032512260127FC
:1021C0002D4CA0F180424FF00408B2F5B04238D057
:1021D000B2F580621CBF06B0BDE8F081086840F02F
:1021E00004000860086800F004000590086840F0EA
:1021F000010008600868CDE9027500F00100059053
:102200004FF40070CDE900066946CDF810801B48F8
:10221000FFF71CFC4FF48070CDE90006CDE9027594
:102220006946CDF810801648FFF710FC206840F48E
:1022300000002060206800F40000059006B0BDE8B2
:10224000F081086840F0200008600868CDE9005679
:1022500000F02000CDE90480CDE902756946094807
:10226000FFF7F4FB206840F480002060206800F451
:102270008000E2E730380240403802400008024067
:1022800000000240001402400248816802781144B4
:1022900081607047900000200B4810B5016841F440
:1022A00000710160016841F480610160016841F4DE
:1022B00080710160032000F0A3F8002000F006F810
:1022C00000F03EF8002010BD003C024010B5014671
:1022D00088B000221C2000F061F81C2000F04EF8AD
:1022E00014480024016841F001010160006805A95B
:1022F00000F001000690684600F0D4FE00F0F8FE01
:102300000D494000B0FBF1F0411E0C484FF08042F7
:10231000026040F2E732C0E90324C0E9011401F091
:10232000B5FB00280ABF0548012001F098FC08B061
:1023300010BD00004038024040420F0060240020E1
:102340000C4882B0016841F480410160006800F4EB
:10235000804000900848016841F0805101600068A9
:10236000002200F0805000900F21901E02B000F07B
:1023700015B8000044380240403802400028B8BF79
:10238000704700F01F01012202FA01F140098000AC
:1023900000F1E020C0F8001170470000174B10B4A6
:1023A0001B68C3F30223C3F1070CBCF1040F88BF01
:1023B0004FF0040C1C1D072C34BF0023DB1E01242E
:1023C00004FA0CFCACF1010C0CEA0101994004FA8E
:1023D00003F35B1E1A40114300284FEA0111A1BF0D
:1023E00000F1E02080F8001410BC704700F00F00EE
:1023F00000F1E02080F8141D10BC70470CED00E0E7
:10240000074A00F0070011684FF6FF03194041EA40
:10241000002040F0FD7040F08060106070470000C8
:102420000CED00E07047006841620020704770B416
:102430000368586A002904BF40EA0240986219D034
:10244000D3F828C000EB1C4C00204C1E18BF4FF4E2
:10245000827508D005EB80069E59401CC0B20CEB7B
:10246000164C8442F6D84CEA02404FF4807202EBDC
:102470008101585070BC00207047D0F8040405F06A
:1024800055BCC1EBC10200EB8202D0F80404926C8F
:1024900005F0B6BBC1EBC10200EB8202D0F8040428
:1024A000D2F8082205F00ABCD0F8040405F040BCBC
:1024B00070B5044611F0800F01F00F00C0EBC001B1
:1024C00004EB81014FF001024FF0000519BF81F8C4
:1024D0003D203C3181F8FD5101F5FE71087094F802
:1024E000BC03012804BF022070BD84F8BC2320680F
:1024F00006F066F884F8BC53002070BD70B5044641
:10250000406801F00F02824284BF012070BD11F0CB
:10251000800F01F00F00C0EBC00004EB80004FF013
:1025200001034FF0000519BF00F13C0180F83D3078
:1025300000F5FE7180F8FD518D700A7094F8BC03AF
:10254000012804BF022070BD84F8BC33206806F067
:1025500051FA84F8BC53002070BD01F00F01C1EBAB
:10256000C10100EB8100D0F81402704770B5044639
:1025700011F0800F01F00F00C0EBC00104EB8101EE
:102580004FF0010C4FF0000519BF81F83DC03C3100
:1025900081F8FD5101F5FE7108708A60CB704A78B0
:1025A000002A18BFC880022B08BF0D7194F8BC0325
:1025B000012804BF022070BD84F8BCC3206805F068
:1025C00035FF284684F8BC5370BD10B50C4601F0A9
:1025D0000F0CCCEBCC0100EB8101C1F81032C1F83B
:1025E00008220023C1F8143281F8FD3181F8FCC1C2
:1025F000036901F5FE71012B08BF0A6114F00F0F8A
:10260000027C006803D006F050FA002010BD06F0EE
:102610002DF9FAE770B504460D4601F00F00616828
:10262000884284BF012070BD15F0800F4FF0000676
:102630004FF0010214BFC0EBC001C5EBC50104EBB4
:10264000810119BF81F83D203C3181F8FD6101F520
:10265000FE718A70087094F8BC03012804BF022040
:1026600070BD84F8BC23206806F0F0F915F00F0F58
:1026700005D1217C04F57172206806F08DF984F88B
:10268000BC63002070BD10B50C4601F00F0CCCEB04
:10269000CC0100EB81010B658A6400234B650123AB
:1026A00081F83D3001F83CCF0369012B08BF0A6176
:1026B00014F00F0F027C006803D006F0F6F900203A
:1026C00010BD06F0D3F8FAE72DE9F04F056804468F
:1026D00083B0284606F040FB00281CBF03B0BDE8CD
:1026E000F08F206806F064FB002804BF03B0BDE84B
:1026F000F08F206806F05CFB10F0020F04D0206819
:10270000416901F002014161206806F051FB10F0BF
:10271000100F35D02068816921F0100181612F6A86
:1027200007F00F00C0EBC00004EB800000F5FE7660
:10273000C7F34340022802D0062811D01BE047F619
:10274000F070074217D0C7F30A1217462846F168FF
:1027500006F032FBF0683844F060B069384409E0B4
:10276000082204F57171284606F026FBB069C7F30C
:102770000A110844B0612068816941F0100181614B
:10278000206806F015FB10F4002F7CD0002620688E
:1027900006F0EDFA5FEA00081CBF4FF4004ADFF8CC
:1027A00000B570D018F0010F6ED0F1B2206806F0BD
:1027B000F7FA074610F0010F51D005EB4611012042
:1027C000C1F8080B23681A6C03EB4611D1F8080B0B
:1027D000D4F810C0BCF1010F07D0DFF8C8C46245BF
:1027E00066D110F4004F08D15BE010F0080F07D05D
:1027F0005A4534D910F4004F31D0C1F808AB2EE05F
:1028000010F0200F1ABF2020C1F8080B10F0280F7D
:1028100025D15A4502D910F4004FEED1C6EBC602BD
:1028200004EB8200D1F8101BD0F80422C1F312018E
:10283000511AC0F81412D0F80812002E1144C0F832
:10284000081204BFD4F81002002804D104F57172F4
:102850000121206836E0F1B22046FFF71BFE17F099
:10286000080F38D005EB46110820C1F8080B206886
:10287000D0F8409000EB4610D0F8081BD94507D996
:1028800011F4004F01E044E03EE018BFC0F808AB8F
:10289000204600F014FBD9451DD9206901281AD122
:1028A00013E010F0200F1CBF2020C1F8080BD2E766
:1028B000002E04BFD4F810020028CCD104F57172A8
:1028C0000021184606F068F8C5E704F57172012189
:1028D000206806F061F817F0100F04D005EB4611E0
:1028E0001020C1F8080B17F0200F04D005EB46119B
:1028F0002020C1F8080B17F4005F05D005EB461146
:102900004FF40050C1F8080B761C5FEA58087FF4BA
:1029100049AF206806F04CFA10F4802F79D0206877
:1029200006F01EFA5FEA000A4FF0000871D01AF0B4
:10293000010F6FD008F0FF01206806F01FFA06466D
:1029400010F0010F2AD008F00F000121D5F834282B
:1029500001FA00F022EA0000C5F8340805EB48103F
:10296000C0F808192069012813D1C8EBC80004EB8E
:102970008000B8F1000FD0E911211144816404BF37
:10298000206D002805D104F571720121206806F040
:1029900003F808F0FF012046FFF773FD16F0080F5B
:1029A00004D005EB48110820C1F8080916F0100FF3
:1029B00004D005EB48111020C1F8080916F0400FAB
:1029C00004D005EB48114020C1F8080916F0020FA9
:1029D00004D005EB48110220C1F8080916F0800F59
:1029E0004AD0C8EBC80004EB800000F13C06D4F8E4
:1029F00000B0D6E9051088423ED8081AB168814275
:102A000038BF0846C01C4FEA90090BEB48100190F4
:102A100019E037E030E0471AB068B84238BF0746DF
:102A2000F81C4FEA9009207C0090BBB208F0FF022E
:102A30005846F16806F09AFAF0683844F060B069D8
:102A40003844B0610198D0F8180980B2484524BFD5
:102A5000D6E90501884201D90028DCD1D6E9050173
:102A6000884209D808F00F0101208840DBF83418AB
:102A700021EA0000CBF8340808F101085FEA5A0A9D
:102A80007FF455AF206806F093F910F0004F11D095
:102A9000D5F8040820F00100C5F8040894F8F40300
:102AA000012868D0204600F0EEF92068416901F065
:102AB00000414161206806F07BF910F4006F0CD0F2
:102AC000D5F8080810F0010F1CBF204600F01EFAD0
:102AD0002068416901F400614161206806F068F9ED
:102AE00010F4805F6DD0D5F8040820F00100C5F81F
:102AF00004081021206806F009F960680021002808
:102B000088BF4FF67F3221D905EB4110C0F8082964
:102B1000D0F8003923F40013C0F80039D0F8003998
:102B200043F00063C0F80039C0F8082BD0F8003B30
:102B300023F40013C0F8003BD0F8003B43F00063DF
:102B4000C0F8003B6068491C8842DDD8D5F81C08F5
:102B500040F00110C5F81C08206BA0B1D5F884081E
:102B600040F00B00C5F88408D5F8440840F00B008D
:102B7000C5F8440814E0002084F8F4030146204618
:102B8000FFF750FC91E7D5F8140842F22B010843F7
:102B9000C5F81408D5F8100840F00B00C5F8100867
:102BA000D5F8000820F4FE60C5F80008217C04F583
:102BB0007172206805F0F0FE2068416901F48051CF
:102BC0004161206806F0F4F810F4005F16D0206828
:102BD00005F078FC206806F0B3F8E06000F082FAB7
:102BE00023680146227B184606F04EF9204600F085
:102BF00033F92068416901F400514161206806F011
:102C0000D7F810F0080F07D0204600F040F92068F0
:102C1000416901F008014161206806F0C9F810F42B
:102C2000801F08D00021204600F03EF8206841694E
:102C300001F480114161206806F0BAF810F4001F19
:102C400008D00021204600F033F82068416901F4E3
:102C500000114161206806F0ABF810F0804F07D0FA
:102C60002046FFF70AFC2068416901F0804141617C
:102C7000206806F09DF810F0040F04BF03B0BDE813
:102C8000F08F2068456815F0040F1CBF2046FFF741
:102C90000BFC206841682943416003B0BDE8F08F18
:102CA0000A30544F0A31544FD0F8040405F092B85A
:102CB000D0F8040405F09FB8002804BF0120704735
:102CC0002DE9F0470446066890F8BD038AB0002558
:102CD00020B984F8BC53204600F070F8032084F833
:102CE000BD03F06B10F4807F08BF2561206805F0FC
:102CF000B7FD1034B4E8CF118DE8CF1174E80C01A2
:102D0000CDE9080194E80F0005F0EAFB022700284E
:102D100043D10021206806F077F860680021012681
:102D2000002813D9C1EBC10004EB800080F83D609E
:102D300080F83C10A0F8421080F83F50456485644C
:102D40000565481CC1B260688842EBD800210028A4
:102D500014D9C1EBC10004EB800080F8FD5180F86C
:102D6000FC1180F8FF51C0F80452C0F80852C0F8B6
:102D70001052481CC1B260688842EAD804F11000C1
:102D800090E80F178DE80F17D4E90C01CDE9080181
:102D900094E80F0005F09EFC28B184F8BD730AB0DA
:102DA0000120BDE8F08784F8385084F8BD632068BE
:102DB00005F082FC0AB00020BDE8F08710B586B0AF
:102DC0000021009101910291039104910068B0F1FA
:102DD000A04F1CBF06B010BD1B48016841F00101A7
:102DE00001600068194C00F0010005904FF4C050DC
:102DF000009002200190032003900A20049069466D
:102E00002046FEF723FE1249086840F08000086063
:102E100010490A6842F480420A600868002200F4FF
:102E20008040059005214320FFF7B8FA4320FFF7C3
:102E3000A5FA012211032046FEF71AFF4120FEF7F2
:102E4000DDFD06B010BD0000303802400000024039
:102E5000343802404438024070B50446C068012549
:102E6000002808BF002503D0022818BFFDF7E9FE9F
:102E70002946D4F8040405F02DF8D4F80404BDE87C
:102E8000704004F0DEBFD0F8040405F008B8D0F8B4
:102E9000040405F00EB810B5044690F8BC030128F0
:102EA00004BF022010BD012084F8BC0384F8381050
:102EB000206805F0D7FF002084F8BC0310BDD0F8CF
:102EC000042400F57171104605F010B810B50446E1
:102ED000006894F8BC13012904BF022010BD012131
:102EE00084F8BC13A16A012906D1A169012903D084
:102EF000816B41F480318163206805F0E9FE206830
:102F000005F0CCFB002084F8BC0310BD10B50446CE
:102F1000D0F8040405F02EF82068D0F8001E41F027
:102F20000101C0F8001E206A002808BF10BD034838
:102F3000016841F00601016010BD000010ED00E0E5
:102F4000002804BF012070472DE9F047DFF83C91CD
:102F500004460D46D9F80000CFB200F00700A842A1
:102F600007D289F80070D9F8000000F00700A842E5
:102F700062D12068464E10F0020F14D010F0040FFA
:102F800003D0306840F4E0503060207810F0080F33
:102F900003D0306840F4604030603068A16820F0B1
:102FA000F00008433060207810F0010F36D06068E0
:102FB0003849012822D0022818BF0328096822D0E6
:102FC00011F0020F38D0316821F00301084330605E
:102FD000FEF754FE80463068616800F00C00B0EBEC
:102FE000810F18BF41F2883A18D0FEF747FEA0EBD8
:102FF000080050450BD90320BDE8F087096811F49B
:10300000003FE0D118E011F0007FDCD114E030681F
:10301000616800F00C00B0EB810FE6D1D9F8000038
:1030200000F00700A8420AD989F80070D9F800001A
:1030300000F00700A84202D00120BDE8F087207808
:1030400010F0040F05D03068E16820F4E050084328
:103050003060207810F0080F06D03068216920F425
:10306000604040EAC100306000F062F831680A4A0E
:10307000C1F30311515CC840084908600848006862
:10308000FFF724F90020BDE8F0870000003C024073
:103090000838024000380240C4CF00089C000020DD
:1030A000940000200F2202600C4A136803F003030F
:1030B0004360136803F0F0038360136803F4E05384
:1030C000C36012684FF4E05303EAD202026104487D
:1030D000006800F0070008607047000008380240F0
:1030E000003C024001480068704700009C0000203E
:1030F0000448054900680968044AC1F38221515C0B
:10310000C84070479C00002008380240D4CF000817
:103110000448054900680968044AC1F34231515C1A
:10312000C84070479C00002008380240D4CF0008F7
:103130001848006810F00C01174808BF7047174B7B
:10314000042904BF18467047082918BF704710B5F6
:10315000134C216801F03F02216811F4800F08D060
:103160002068C0F38810A0FB03010023FDF7FCF8E2
:1031700007E021680023C1F38811A1FB0001FDF7DE
:10318000F3F82168C1F30141491C4900B0FBF1F09B
:1031900010BD0000083802400024F400001BB700F6
:1031A00004380240002804BF012070472DE9F84F81
:1031B00004460078F94E10F0010FA6F1040556D030
:1031C000301D016801F00C01042908D0006800F0EE
:1031D0000C0008280CD1306810F4800F08D0286843
:1031E00010F4003F43D06068002800F0D0813EE03A
:1031F0006068B0F5803F19D0B0F5A02F28680CBFEB
:1032000040F4802020F48030286028680CBF40F40F
:10321000803020F4802028606068B8B1FEF72EFD71
:103220000746286810F4003F05D020E0286840F4E5
:1032300080302860F0E7FEF721FDC01B642800F213
:103240004081286810F4003FF5D010E0FEF716FD2D
:103250000746286810F4003F09D0FEF70FFDC01B99
:10326000642800F22E81286810F4003FF5D1207800
:10327000CB4F10F0020F4FF0000947D0C94801684A
:1032800011F00C0F14D0006800F00C00082804BFE7
:10329000306810F4800F0BD0E06820B30120386054
:1032A000FEF7ECFC8046286810F0020F09D012E00F
:1032B000286810F0020F1CBFE06801280BD000F056
:1032C00066B9FEF7DBFCA0EB080002287ED8286870
:1032D00010F0020FF5D02868216920F0F80040EACC
:1032E000C100286012E0C7F80090FEF7C7FC8046D6
:1032F000286810F0020F09D0FEF7C0FCA0EB080010
:10330000022863D8286810F0020FF5D1207810F059
:10331000080F2FD0A448DFF894A26169A9B1012158
:103320000160FEF7ABFC8046DAF8000010F0020FF7
:1033300020D1FEF7A3FCA0EB0800022846D8DAF85B
:10334000000010F0020FF4D014E0C0F80090FEF777
:1033500095FC8046DAF8000010F0020F0AD0FEF764
:103360008DFCA0EB0800022830D8DAF8000010F03D
:10337000020FF4D1207810F0040F7CD08C484FF06D
:103380000008006810F0805F0AD18948016841F0A8
:103390008051016000684FF0010800F080500090FB
:1033A000DFF810B2DBF8000010F4807F1AD1DBF8F0
:1033B000000040F48070CBF80000FEF75FFC82460E
:1033C000DBF8000010F4807F0CD100E079E0FEF71C
:1033D00055FCA0EB0A00022873D8DBF8000010F4BB
:1033E000807FF2D0A068DFF8D0B101281DD0052879
:1033F000DBF800000CBF40F0040020F00100CBF827
:103400000000DBF800000CBF40F0010020F00400D9
:10341000CBF80000A068E8B1FEF730FC8246DBF88C
:10342000000010F0020F07D02BE0DBF8000040F0A6
:103430000100CBF80000EDE7FEF720FCA0EB0A014D
:1034400041F2883081423CD8DBF8000010F0020FD6
:10345000F2D016E0FEF712FC8246DBF8000010F016
:10346000020F0ED0FEF70AFCA0EB0A0141F28830F1
:10347000814226D800E00CE0DBF8000010F0020FDB
:10348000F0D1B8F1000F04D04948016821F0805113
:103490000160A069E8B34349096801F00C010829FB
:1034A0004ED00228C7F860900ED0FEF7E7FB044626
:1034B000286810F0007F6DD0FEF7E0FB001B0228AB
:1034C00039D90320BDE8F88FFEF7D8FB804628687D
:1034D00010F0007F09D0FEF7D1FBA0EB0800022816
:1034E000EFD8286810F0007FF5D1D4E90701084330
:1034F000A16A324A490802EB0141626A41EA82113B
:10350000084394F82C1040EA0160306001203866CE
:1035100000E03FE0FEF7B2FB0446286810F0007FB1
:1035200038D1FEF7ABFB001B0228CAD8286810F080
:10353000007FF6D02EE0286810F0007FBCD129E093
:10354000012808BFBDE8F88F3068E26900F4800107
:1035500091421CD1226A00F03F01914217D147F6F7
:10356000C071626A0140B1EB821F10D1A26A4FF0B4
:10357000FF3300F4403103EB5202B1EB024F06D1AE
:1035800094F82C1000F07060B0EB016F02D00120B5
:10359000BDE8F88F0020BDE8F88F00000438024035
:1035A0000000474208380240800E4742743802400B
:1035B0004038024000700040703802400000FFFFB9
:1035C000002804BF0120704770B50446406A0025FA
:1035D00000281CBF2561656104D0A56294F85100E4
:1035E00058B905E06068B0F5827F18BFE561F4E77F
:1035F00084F85050204600F045F8022084F851002D
:103600002068016821F040010160A088218900F450
:10361000827001F404410843A18901F40061084368
:10362000217C01F002010843217D01F001010843E2
:10363000218B01F400710843217F01F03801084318
:1036400094F8201001F080010843218D01F400510D
:10365000084321680860A169042000EA114094F839
:10366000241001F010010143206841602068C16905
:1036700021F40061C1616565012084F851000020DA
:1036800070BD00002DE9F04387B00024054600948A
:1036900001940294039404940068A0F18041B1F570
:1036A00098311CBF07B0BDE8F0833248016841F48F
:1036B00080510160006800F4805005902E48016838
:1036C00041F002010160016801F002010591016809
:1036D00041F0010101600068022700F0010005903F
:1036E0001820CDE900074FF003080526CDE9038631
:1036F00069462248FEF7AAF98020CDE90007CDE906
:103700000248694604961E48FEF7A0F91E4E1D4861
:103710004FF0C0693060C6E901940715C6E9034758
:1037200074614FF44038B461C6E9074830467462AA
:10373000FEF76CF8002818BFFDF783FAEE64B56356
:10374000134E1248C6E900094020C6E90204C6E942
:103750000474B461C6E9074830467462FEF756F84F
:10376000002818BFFDF76DFAAE64B56307B0BDE879
:10377000F083000044380240303802400004024028
:10378000000002401064024004040020586402401B
:10379000640400202DE9F84F044690F850000125FC
:1037A0000A9E1F4692468B464FF00008012804BF30
:1037B0000220BDE8F88F012084F85000FEF75EFA81
:1037C000814694F851006168012809D0B1F5827FE3
:1037D00003BFA168002904284FF0020840F0CC8004
:1037E000BBF1000F1ABFBAF1000F002F4FF0010814
:1037F00000F0C28094F8510004281CBF052084F812
:10380000510000206065C4F838A0E787A787C4F896
:1038100030B0E786A786206460642068016811F0F4
:10382000400F03D1016841F040010160E068B0F54C
:10383000006F606804D0002818BF012F50D08BE0C3
:10384000002818BF012F39D1206B21680088C8607B
:10385000206B801C2063E08E401EE0862EE02068F6
:10386000816811F0020F1CBFE18E00290BD0012DE1
:1038700009D1216B0988C160206B801C2063E08E18
:10388000401EE08600252068816811F0010F1CBFF2
:10389000E18F002909D0C068A16B0880A06B801C53
:1038A000A063E08F401EE0870125FEF7E7F9A0EB5B
:1038B0000900B04202D3B6F1FF3F54D1E08E002898
:1038C00004BFE08F0028CAD14A463146204603F0A3
:1038D0009BF800284AD020204FF0010860654BE09B
:1038E000206B216800780873206B401C2063E08EF9
:1038F000401EE08630E02068816811F0020F1CBF96
:10390000E18E00290BD0012D09D1216B09780173BB
:10391000206B401C2063E08E401EE086002520685E
:10392000816811F0010F1CBFE18F002909D0C06828
:10393000A16B0870A06B401CA063E08F401EE08765
:103940000125FEF79BF9A0EB0900B04203D3B6F1C5
:10395000FF3F01D007E036B1E08E002804BFE08FC2
:103960000028C8D1B0E74FF0030805E0A06818B9F7
:103970002068C16880680090012084F85100002010
:1039800084F850004046BDE8F88F7047704790F8C3
:103990003C20012A04BF02207047012280F83C200D
:1039A000CA68D1F808C022F4407242EA0C02D1F889
:1039B00004C022F4806242EA0C02D1F800C022F472
:1039C000006242EA0C02D1F810C022F4805242EAAE
:1039D0000C02D1F814C022F4005242EA0C02C96968
:1039E000002322F4804211430268516480F83C3085
:1039F0000020704790F83C20012A04BF0220704745
:103A000030B4012480F83C40022280F83D20026856
:103A1000D2F804C093680D682CF0700C45EA0C0CC9
:103A2000C2F804C00268A2F1804CBCF5803C18BF0B
:103A3000B2F1804F1DD0A2F1804CBCF5806C1CBF50
:103A4000A2F1804CBCF5006C13D0A2F1804CBCF507
:103A5000406C1CBFA2F1804CBCF5823C09D0A2F1A5
:103A6000804CBCF5A03C1CBFA2F1804CBCF5C05CF6
:103A700004D1496823F080031943916080F83D40E8
:103A8000002180F83C1030BC08467047002804BF75
:103A90000120704710B5044690F83D0028B9002079
:103AA00084F83C00204600F01FF8022084F83D0016
:103AB000211D206803F0DCF8012084F8460084F81A
:103AC0003E0084F83F0084F8400084F8410084F808
:103AD000420084F8430084F8440084F8450084F8E8
:103AE0003D00002010BD000008B500683D4AA0F16F
:103AF0008041B1F5803127D0111FA0F18043B3F58B
:103B0000006329D0B3F580632ED0B3F5784333D06A
:103B1000B3F580434AD013F5943250D0B2F58062A9
:103B200018BF08BD086840F480700860086800226B
:103B300000F48070009005212D20FEF72FFCBDE8D9
:103B400008402D20FEF71ABC106840F001001060FC
:103B5000106800F0010030E0086840F004000860E0
:103B6000086800F0040028E0086840F008000860D9
:103B7000086800F0080020E0106840F002001060C3
:103B80001068002200F00200009005212C20FEF7B2
:103B900005FC2C20FEF7F2FB002205212D20FEF76C
:103BA000FDFBBDE808402D20FEF7E8BB106840F49F
:103BB00000301060106800F40030009008BD086804
:103BC00040F0800008600868002200F0800000904B
:103BD00005212C20FEF7E2FBBDE808402C20FEF773
:103BE000CDBB00004438024090F83D1001291CBFB5
:103BF00001207047022180F83D100068A0F180414B
:103C0000B1F5803118BFB0F1804F1DD0A0F18041D7
:103C1000B1F580611CBFA0F18041B1F5006113D006
:103C2000A0F18041B1F540611CBFA0F18041B1F528
:103C3000823109D0A0F18041B1F5A0311CBFA0F1C3
:103C40008041B1F5C05104D1816801F00701062916
:103C500003D0016841F0010101600020704790F835
:103C60003D1001291CBF01207047022180F83D1042
:103C70000168CA6842F00102CA600068A0F1804190
:103C8000B1F5803118BFB0F1804F1DD0A0F1804157
:103C9000B1F580611CBFA0F18041B1F5006113D086
:103CA000A0F18041B1F540611CBFA0F18041B1F5A8
:103CB000823109D0A0F18041B1F5A0311CBFA0F143
:103CC0008041B1F5C05104D1816801F00701062996
:103CD00003D0016841F0010101600020704790F8B5
:103CE0003C200023012A0DBF02204FF0010C80F878
:103CF0003CC0704770B4022280F83D20026894688E
:103D000024F0770424F47F4494600A68502A43D056
:103D10000CDC202A75D004DC002A18BF102A0FD131
:103D20008BE0302A6DD0402A6DD009E0602A4DD05A
:103D3000702A0ED0B2F5805F03D0B2F5005F19D0C3
:103D4000012380F83DC0002180F83C1070BC18466B
:103D50007047D1E901450268C968966844EA0121C3
:103D600026F47F4629433143916001688A6842F016
:103D700077020FE002684D688C68C968966845EA6A
:103D8000012126F47F4621433143916001688A680E
:103D900042F480428A60D4E702684C68C968156AB8
:103DA000166A26F001061662966925F00A0526F0C5
:103DB000F00646EA01112C439161146201688A6899
:103DC00022F0700242F057028A60BAE70268CD68BA
:103DD0004C68116A21F0100111629669116A26F48B
:103DE000704646EA053521F0A00141EA04119561CB
:103DF000116201688A6822F0700242F067028A60EC
:103E00009FE71AE0FFE702684C68C968156A166AFE
:103E100026F001061662966925F00A0526F0F006DE
:103E200046EA01112C439161146201688A6822F00C
:103E3000700242F047028A6083E701688C6824F0D0
:103E40007004224342F007028A607AE7704770B537
:103E50000446006801694FF0000511F0020F1CBF15
:103E6000C16811F0020F13D06FF00201016101204F
:103E700020772068806910F0030F204602D0FFF7FA
:103E8000E5FF04E000F020F9204600F00FFA257766
:103E90002068016911F0040F1CBFC16811F0040F04
:103EA00013D06FF00401016102202077206880693F
:103EB00010F4407F204602D0FFF7C8FF04E000F076
:103EC00003F9204600F0F2F925772068016911F026
:103ED000080F1CBFC16811F0080F13D06FF0080164
:103EE0000161042020772068C06910F0030F20468C
:103EF00002D0FFF7ABFF04E000F0E6F8204600F048
:103F0000D5F925772068016911F0100F1CBFC16831
:103F100011F0100F13D06FF010010161082020770D
:103F20002068C06910F4407F204602D0FFF78EFF62
:103F300004E000F0C9F8204600F0B8F925772068C1
:103F4000016911F0010F1CBFC16811F0010F05D00C
:103F50006FF001010161204600F010FA206801694C
:103F600011F0800F1CBFC16811F0800F05D06FF0F9
:103F7000800101612046FFF708FD2068016911F00A
:103F8000400F1CBFC16811F0400F05D06FF0400119
:103F90000161204600F00DFA2068016911F0200F40
:103FA0001ABFC16811F0200F70BD6FF020010161D0
:103FB0002046BDE87040FFF7E9BC000030B587B08F
:103FC0000021009101910291039104910068384908
:103FD00002220123A0F1804CBCF5803C26D01CF5C8
:103FE000784C33D0BCF5806C40D00324A0F18045E0
:103FF0004FF0400CB5F5823548D0B5F580451CBF73
:1040000007B030BD086840F0200008600868CDF8AF
:1040100000C0CDE9012300F02000CDE9044069464D
:1040200003932448FDF712FD07B030BD086840F047
:10403000100008600868694600F0100005904FF411
:10404000D440CDE9000204931B482CE0086840F0FE
:10405000080008600868694600F0080005904FF401
:104060008040CDE90002154804921CE0086840F049
:10407000800008600868694600F0800005904FF4F1
:10408000E050CDE900020E4804920CE0086840F0D0
:10409000040008600868694600F00400CDE90440A7
:1040A000CDE900C20748FDF7D1FC07B030BD0000E4
:1040B000303802400014024000100240000C024060
:1040C000001C024000080240704700002DE9F0414A
:1040D000044690F83C0000260D46012804BF02204B
:1040E000BDE8F081012084F83C0082B1042A20D090
:1040F000554FDFF858C1082A2FD00C2A18BF0126C7
:104100006DD0002084F83C003046BDE8F081206886
:1041100002F022FE2068816941F008018161206877
:10412000816921F004018161206881692A69114354
:1041300011E0206802F044FE2068816941F40061CA
:1041400081612068816921F48061816120688169D1
:104150002A6941EA02218161D3E72068016A21F4DA
:1041600080710162016A4268C369D5F8008023F05A
:10417000730348EA0303D5F8088021F4007141EA8B
:104180000821B84218BF604507D1D5F80C8021F44A
:10419000006141EA082121F48061B84218BF6045FE
:1041A00009D1D5F814C022F4405242EA0C12D5F8D5
:1041B00018C042EA0C124260C3616A68C2630162BD
:1041C0002068C16941F00801C1612068C16921F01E
:1041D0000401C1612068C1692A69114331E0206886
:1041E000016A21F480510162026A4168C369D5F80D
:1041F000008023F4E64343EA0823D5F8088022F43C
:10420000005242EA0832B84218BF604505D1D5F8DD
:1042100014C021F4804141EA8C114160C361696896
:10422000016402622068C16941F40061C1612068D3
:10423000C16921F48061C1612068C1692A6941EACC
:104240000221C1615DE7000000000140000401405F
:10425000002804BF0120704710B5044690F83D00C7
:1042600028B9002084F83C00204600F01EF8022007
:1042700084F83D00211D206802F0FAFC012084F83A
:10428000460084F83E0084F83F0084F8400084F83B
:10429000410084F8420084F8430084F8440084F824
:1042A000450084F83D00002010BD704770470000B5
:1042B00010B50446002908BF94F83E000AD004292E
:1042C00008BF94F83F0005D008290CBF94F84000BF
:1042D00094F8410001281CBF012010BD02200029D4
:1042E00008BF84F83E000AD0042908BF84F83F00C4
:1042F00005D008290CBF84F8400084F84100012251
:10430000206802F019FD1B4A20681B49904218BF23
:10431000884203D1436C43F40043436420689042D5
:1043200018BFB0F1804F1AD0A0F18042B2F5806280
:104330001CBFA0F18042B2F5006210D0A0F1804213
:10434000B2F5406218BF884209D0A0F18041B1F5B2
:10435000A0311CBFA0F18041B1F5C05104D18168EA
:1043600001F00701062903D0016841F00101016055
:10437000002010BD000001400004014010B50446BB
:104380000068B0F1804F08BFFDF77EFF2068A0F104
:104390008041B1F5E05108BF10BDA0F18041B1F5F9
:1043A000005118BF10BD00F039FEBDE8104001F00B
:1043B00085BF7047704710B504460068406994F89F
:1043C0003D10C0F3C01021291CD1D8B12068143091
:1043D00050E8001F21F0800140E80012002AF5D1CA
:1043E000606B002818BFFDF7BFF820680C3050E85C
:1043F000001F21F0C00140E80012002AF5D1202062
:1044000084F83D002068406994F83E10C0F38010A5
:10441000222912D188B12068143050E8001F21F001
:10442000400140E80012002AF5D1A06B002818BF17
:10443000FDF79AF8204602F0CBFD002010BD704732
:10444000F8B5016804460868CA684B6910F00F0F98
:104450004FF0000567D003F0010C02F490765CEA9F
:10446000060674D010F0010F18BF12F4807F03D03D
:10447000216C41F00101216410F0040F18BF13F00A
:10448000010F03D0216C41F00201216410F0020FF2
:1044900018BF13F0010F03D0216C41F00401216417
:1044A00010F0080F1CBF02F0200151EA0C0103D0EC
:1044B000216C41F008012164216C002908BFF8BD7E
:1044C00010F0200F1EBF12F0200F204602F0A7FDB3
:1044D00020684069216CC0F3801001F00801084396
:1044E000204630D002F074FD2068406910F0400F83
:1044F00024D02068143050E8001F21F0400140E82B
:104500000012002AF5D1A06BC0B177490165A06BFC
:10451000FDF77DF8002808BFF8BDA06B016D01B064
:10452000BDE8F040084710F0200F18BF12F0200F30
:104530000DD02046BDE8F84002F071BD2046FFF7DF
:104540007EFFF8BD03E0FFF77AFF2564F8BDD4F8DD
:1045500030C02023BCF1010F7ED110F0100F18BF26
:1045600012F0100F7DD0086848680090486910F07C
:10457000400F44D0A16B086840680004000C1CBFC9
:10458000A28D824298BFF8BDE085C869B0F5807FF2
:104590002DD020680C3050E8001F21F4807140E8D5
:1045A0000012002AF5D12068143050E8001F21F0D5
:1045B000010140E80012002AF5D12068143050E8CB
:1045C000001F21F0400140E80012002AF5D184F8D4
:1045D0003E30256320680C3050E8001F21F01001A8
:1045E00040E80012002AF5D1A06BFCF7BDFFA08DBA
:1045F000E18D401A81B22046FFF7DCFEF8BDA08DA8
:10460000E18D401A81B2E08D002814BF0029F8BD69
:1046100020680C3050E8002F22F4907240E8002C03
:10462000BCF1000FF4D12068143050E8002F22F0C4
:10463000010240E8002CBCF1000FF4D184F83E30B8
:10464000256320680C3050E8002F22F0100240E86B
:104650000023002BF5D100E003E02046FFF7AAFE7F
:10466000F8BD10F0800F18BF12F0800F2BD094F817
:104670003D00212818BFF8BDA068B0F5805F04BFD9
:1046800020690028206A16D0411C21622168007828
:104690004860E08C401E0004000CE08418BFF8BDA8
:1046A0002068C16821F08001C1602068C16841F0C4
:1046B0004001C160F8BD0088C0F308004860206A6E
:1046C000801C2062E5E710F0400F14BF12F0400F8D
:1046D000F8BD2046CA6822F04002CA6084F83D3026
:1046E00000F0D6F9F8BD0000316E0008002804BFC4
:1046F0000120704770B5044690F83D00002520B9B0
:1047000084F83C50204600F023F8242084F83D0033
:104710002068C16821F40051C160204602F0E4FC29
:104720002068016921F4904101612068416921F00C
:104730002A0141612068C16841F40051C1602564CB
:10474000202084F83D0084F83E00002070BD000069
:104750002DE9F04F87B0002500950195029503954E
:104760000495044602688848864902270615A2F186
:1047700080434FF003084FF0070A4FF0400B4FF013
:104780000069B3F588335ED013F5484300F0C0806C
:10479000B3F54C431CBF07B0BDE8F08F0A6842F088
:1047A00020020A60096801F020010591016841F0CA
:1047B000400101600068694600F0400005904FF438
:1047C0008440CDE900070820CDE903806F48FDF75C
:1047D0003DF9704F6E484FF020683860C7E9018599
:1047E000C7E903567D614FF40039BD61C7E9075938
:1047F00038467D62FDF70AF8002818BFFCF721FA59
:10480000A763BC63654F6448C7F808B0C7E903569F
:104810007D61BD61C7E907597D62C7E90008384677
:10482000FCF7F4FF002818BFFCF70BFA67630022BF
:1048300005214720BC63FDF7B1FD4720FDF79EFD34
:1048400007B0BDE8F08F0A6842F010020A600968FC
:1048500001F010010591016841F002010160016859
:1048600001F002010591016841F001010160006859
:10487000694600F0010005908020CDE90007CDE9F0
:10488000038A4748FDF7E2F84FF40070CDE90007CE
:10489000CDE902586946CDF810A04248FDF7D6F898
:1048A000424F41484FF480383860C7E90195C7E965
:1048B00003567D61BD61C7E9075838467D62FCF744
:1048C000A5FF002818BFFCF7BCF9A763BC63394FEC
:1048D0003748C7F808B0C7E903567D61BD61C7E92D
:1048E00007587D62C7E900093846FCF78FFF0028AA
:1048F00018BFFCF7A6F96763002205212520BC63D9
:10490000FDF74CFD2520FDF739FD07B0BDE8F08F20
:1049100029490A6842F480220A60096801F480216A
:104920000591016841F0040101600068694600F0EA
:10493000040005904FF44060CDE90007CDE9038AFB
:104940001E48FDF783F81F4F1D483860C7E90195E1
:10495000C7E9035680157D61C7E906504FF4403022
:10496000C7E908053846FCF751FF002818BFFCF7D7
:1049700068F9A763002205212720BC63FDF70EFD1F
:104980002720C0E744380240303802400018024077
:1049900040640240A8080020A064024008090020EA
:1049A00000040240000002408864024088070020A2
:1049B000B8640240E8070020403802400008024086
:1049C000286002404808002090F83E30202B0FD18C
:1049D000002912BF002A0120704790F83C30012BBB
:1049E00006D0012380F83C300023036302F0FABBB9
:1049F000022070477047704737B5044690F83D0075
:104A000020283BD10199002911BF002A012003B0C1
:104A100030BD94F83C00012830D0012084F83C00DF
:104A20002162A284E28400252564212084F83D00CF
:104A3000636B1448D863636B13481864636B134843
:104A4000D864606B134605652068D4F834C0021D35
:104A50006046FCF783FF21686FF04000086084F82F
:104A60003C502068143050E8001F41F0800140E8BD
:104A70000012002AF5D103B0002030BD03B002209F
:104A800030BD0000436F0008896F0008416E0008C8
:104A900070477047FEE700002DE9F84F04460068B4
:104AA0008846DDE90AA501681E46174641F4806183
:104AB00001602068016841F4807101605346002262
:104AC0004FF001112046009500F012F94FF40079E3
:104AD00038B12068006810F4807F53D0C4F840904B
:104AE00050E0216808F0FE000861DFF8C4B02B46F2
:104AF00052465946204600F04EF9002855D120680C
:104B00004169806900902A465146204600F0E8F944
:104B100040B1206C042848D12068016841F400713C
:104B2000016042E03046FEB201280CD02168380A0C
:104B300008612A465146204600F0D2F918B1206C8F
:104B40000428E9D031E0206806612A465146204613
:104B500000F0C6F918B1206C0428DDD025E02068EB
:104B6000016841F480710160534600224FF0011149
:104B70002046009500F0BCF838B12068006810F4B9
:104B8000807FABD10320BDE8F88F216808F0FF00DB
:104B900040F0010008612B4652465946204600F07D
:104BA000FAF8002808BFBDE8F88F0120BDE8F88FAB
:104BB000020001002DE9F843044600680D46DDE9D6
:104BC000089701689846164641F4807101604B468B
:104BD00000224FF001112046009700F089F850B1F3
:104BE0002068006810F4807F1CBF4FF400702064C0
:104BF0000320BDE8F883216805F0FE0008613B460C
:104C00004A461849204600F0C6F810BB20684169A2
:104C1000806900903A464946204600F061F940B16B
:104C2000206C042815D12068016841F400710160EE
:104C30000FE0F5B2B8F1010F0ED02168300A08611B
:104C40003A464946204600F04BF928B1206C04282A
:104C5000E9D00120BDE8F883206805610020BDE8A7
:104C6000F8830000020001002DE9F04104460068CD
:104C700016460D46406910F0040F04BF00274FF0A0
:104C8000200824D12068406910F4806F11D0216879
:104C90006FF480604861276384F83D8084F83E703B
:104CA000206C40F00400206484F83C700120BDE8D2
:104CB000F081B5F1FF3F05D0FCF7E0FF801BA84273
:104CC00008D83DB12068406910F0040FDAD0002008
:104CD000BDE8F081276384F83D8084F83E70206C45
:104CE00040F02000206484F83C700120BDE8F08191
:104CF0002DE9F0470446C1F30748DDF8209000682D
:104D00001E4617460D46B8F1010F06D0806925EA08
:104D100000000004000C1ED005E0406925EA0000F8
:104D20000004000C17D00020B8422FD1B6F1FF3F8D
:104D300006D0FCF7A3FFA0EB0900B0420DD866B186
:104D40002068B8F1010F18D0806925EA000000043E
:104D5000000C1ED017E00120E6E700202063202190
:104D600084F83D1084F83E00216C41F0200121645C
:104D700084F83C000120BDE8F087406925EA000086
:104D80000004000C05D00020B842CFD00020BDE8C0
:104D9000F0870120F8E72DE9F0470446C1F3074802
:104DA00000681F4616460D46B8F1010F26D08069EF
:104DB00025EA00000004000C3AD04FF000094FF043
:104DC000200A2068406910F4806F1ED020680168B6
:104DD00041F40071016021686FF480604861C4F89B
:104DE000309084F83DA084F83E90206C40F00400A0
:104DF000206484F83C900120BDE8F087406925EAF2
:104E000000000004000CD8D112E0B6F1FF3F05D03D
:104E1000FCF734FFC01BB0420DD866B12068B8F172
:104E2000010F17D0806925EA00000004000CC8D1EA
:104E30000020BDE8F087C4F8309084F83DA084F8E5
:104E40003E90206C40F02000206484F83C900120CB
:104E5000BDE8F087406925EA00000004000CB0D1ED
:104E6000E6E72DE9F0410446006816460D46406924
:104E700010F0400F04BF00274FF020081FD120681A
:104E8000406910F0100F0FD021686FF010004861DA
:104E9000276384F83D8084F83E70206C206484F899
:104EA0003C700120BDE8F081FCF7E8FE801BA842C1
:104EB00008D83DB12068406910F0400FDFD00020D5
:104EC000BDE8F081276384F83D8084F83E70206C53
:104ED00040F02000206484F83C700120BDE8F0819F
:104EE0002DE9F0410446006816460D46406910F071
:104EF000800F04BF00274FF0200824D120684069AC
:104F000010F4806F11D021686FF4806048612763CE
:104F100084F83D8084F83E70206C40F004002064EA
:104F200084F83C700120BDE8F081B5F1FF3F05D069
:104F3000FCF7A4FE801BA84208D83DB12068406958
:104F400010F0800FDAD00020BDE8F081276384F8EC
:104F50003D8084F83E70206C40F02000206484F88E
:104F60003C700120BDE8F08110B505F041F9FBF778
:104F7000BFFB1F48B7EE000A9FED1E1A80ED100A16
:104F800080ED111A80ED121A80ED131A80ED170AC8
:104F900080ED181A80ED191A80ED1A1A9FED162A65
:104FA000DFED161ADFED160A9FED160A903805F0B0
:104FB000E3FC1548FEF718FE00211348FFF778F9C7
:104FC0001248FEF74CFE1248FEF749FEDFED110ACB
:104FD000BDE81040F0EE602AB0EE602AF0EE601AF4
:104FE000B0EE601AB7EE000A0B4800F089B8000076
:104FF00024700020000000000000BE440000FA45BC
:105000000AD7233C00009643E40500202C0600202C
:1050100074060020CDCC4C3DC46F002010B5314C3F
:1050200004F1240204F10C012046FBF76DFB94ED22
:10503000090ADFED2D0AA4F1900005F043FCBCEE57
:10504000C00A2A4910EE100A096880B2486394ED3C
:10505000084AD4ED073A94ED063AD4ED022A94EDCD
:10506000012AD4ED001A94ED051AD4ED040A94ED4A
:10507000030AA4F1600104F1280000F071F894EC37
:10508000090A04F1400001F01FF904F1500204F193
:105090005803111D04F1400004F04AFF94EC060A85
:1050A00005F04EF9124804F16C0204F1740390ED1E
:1050B000000A104884ED170A111D90ED000A0E48F1
:1050C00084ED180A90ED000A0C4884ED190A90ED61
:1050D000000A04F15C0084ED1A0ABDE8104004F0F7
:1050E00027BF00002470002000003442E4050020A7
:1050F0004C010020500100205401002058010020E4
:1051000080EC060AB7EE000A80ED110A80ED100A65
:1051100080ED0F0A80ED0E0A80ED0D0A80ED0C0A7D
:105120009FED0D0A80ED170A80ED160A80ED150A35
:1051300080ED140A80ED130A80ED120A80ED080A52
:1051400080ED070A80ED060A80ED090A80ED0A0A63
:1051500080ED0B0A70470000000000000000000016
:105160002DE9F04105462DED108BB0EE44CAF0EE6E
:1051700063CAF0EE43DAB0EE628AF0EE428AB0EE35
:10518000619AF0EE419AF0EE60EAB0EE40FA0C4619
:10519000C86907F0A5FD9FEDFEAB53EC1A2B07F095
:1051A000EBFA07F00FFA0DEE100A206A07F098FDEF
:1051B00053EC1A2B07F0E0FA07F004FA6FEE0F0A2F
:1051C0000EEE100A49EEA90AB1EEE00AB4EE400A6A
:1051D000F1EE10FA1CBFB0EE600A04F044FBCEEE14
:1051E000800AB0EE600A04F0E1F810EE100A07F051
:1051F00077FD9FEDE9BB53EC1B2B07F0BDFA07F0E1
:10520000E1F96EEEAE0A0AEE100A49EEA90AB1EE15
:10521000E00AB4EE400AF1EE10FA1CBFB0EE600AEC
:1052200004F021FBB1EE4F1AC1EE000AB0EE600AA5
:1052300004F0BCF810EE100A07F052FD53EC1B2BE3
:1052400007F09AFA07F0BEF90AEE900AB0EE4D0A9E
:1052500004F05CF960EE2D9AB0EE4E0A04F056F9B7
:1052600060EE0CDAB0EE4D0A04F0F8F94DEE809ADB
:10527000B0EE4D0A04F0F2F960EE2CDAB0EE4E0A10
:1052800004F0ECF94DEE809AB0EE4E0A04F03EF9CF
:1052900060EE2CCAB0EE4E0A04F0E0F9F0EE6C0AB3
:1052A0004CEE400AB0EE690A03F058FF10EE100A07
:1052B00007F016FD53EC1B2B07F05EFA07F082F99E
:1052C0000BEE100A94ED060AB54EB64F3BEE400ABF
:1052D00010EE100ADFEDB49AB042C8BF3BEE69BAD7
:1052E00005DC10EE100AB84288BF3BEE29BAB0EEDA
:1052F0004E0A04F00BF9D4ED0B0A78EE600A20EEAA
:1053000020CAB0EE4D0A04F001F9CCEE00BAB0EEBE
:105310004E0A04F0A3F9D4ED0A0A78EEE00A20EE72
:1053200020CAB0EE4D0A04F0F1F8CCEE000A94ED7C
:10533000001A94ED060A7BEEA00A00EE810A84EDC5
:10534000060AB0EE4E0A04F0E1F8D4ED0A0A78EE4F
:10535000E00A60EE20BAB0EE4E0A04F07FF9D4ED18
:105360000B0A78EE600A40EE60BAD4ED000A94EDC4
:10537000070A0BEEA00A84ED070AB0EE4E0A04F00D
:10538000C5F8F0EE40BAB0EE4D0A04F089FAD4ED5B
:105390000B0A94ED091A2BEE800A78EE600A79EE7A
:1053A00041BA40EE20BAB0EE4D0A04F079FAB0EE00
:1053B00040CAB0EE4E0A04F051F9D4ED0A0A2CEEC0
:1053C000000A78EEE00A40EE20BAD4ED000A94ED2F
:1053D000080A0BEEA00A84ED080AD4ED0FCA94ED7A
:1053E00010CAD4ED11BAB0EE4E0A04F08FF8D4ED25
:1053F000170A94ED001A60EE810A60EE20DAB0EE32
:105400004D0A04F083F8CDEE800A94ED0C0A94ED79
:10541000011A30EE010A70EE60DAB0EE4E0A04F0C6
:1054200075F8D4ED000A60EE20EAB0EE4E0A04F002
:105430006DF8D4ED110A94ED001A60EE810A20EEA9
:1054400020FAB0EE4D0A04F061F8CFEE000A94EDB8
:10545000170A30EE600A6EEE80EAB0EE4D0A04F0F4
:1054600055F8CEEE800A3DEEE00A84ED0C0AB0EE6F
:105470004E0A04F04BF8D4ED000A60EE20EAB0EEDC
:105480004E0A04F043F8F0EE400A94ED100A94ED51
:10549000001A20EE011A94ED150A01EE600AD4ED0F
:1054A0000D0A94ED021A70EE81DA4EEEC0DAB0EE1B
:1054B0004E0A04F0D3F8D4ED000A60EE20EAB0EE14
:1054C0004E0A04F0CBF8F0EE400A94ED110A94ED88
:1054D000001A20EE011A94ED160A01EE200A4EEE93
:1054E00080DAB0EE4E0A04F011F8D4ED150A94ED0E
:1054F000001A60EE810A40EEC0DAB0EE4E0A04F007
:10550000ADF8D4ED160A94ED001A60EE810A40EE73
:1055100080DAB0EE4D0AC4ED0DDA04F0C1F9D4ED35
:10552000000A60EE20DAB0EE4E0A04F097F86DEE55
:1055300080EAB0EE4D0A04F0B3F9D4ED100A94ED10
:10554000001A60EE810A60EE20DAB0EE4E0A04F036
:1055500085F894ED131AD4ED020AD4ED0F1A0DEE6E
:10556000C01A94ED0E0A70EE20DAD4ED120A94ED12
:10557000000A40EEC0DA41EEC00A40EE60DAB0EE5A
:105580004E0A4EEEC1DA03F0C1FFD4ED140A0DE06D
:10559000399D52A246DF913FF8C1631ADCA54C4009
:1055A00000003443000034C30000B44394ED001AFB
:1055B00060EE810A60EE20EAB0EE4D0A04F070F968
:1055C0004EEEC0DAB0EE4D0A04F06AF9D4ED130ADB
:1055D00094ED001A60EE810A60EE20EAB0EE4E0A09
:1055E00004F03CF84EEEC0DAB0EE4E0A03F08EFF47
:1055F000D4ED000A60EE20EAB0EE4D0A04F050F956
:105600006EEE80EAB0EE4E0A03F080FFD4ED110A90
:1056100094ED001A60EE810A20EE20FAB0EE4D0AF9
:1056200004F03EF9D4ED140A4FEE400A4EEEE0DAF3
:10563000C4ED0EDAD4ED0F0A94ED030A70EE800A81
:10564000C4ED0F0AD4ED100A70EE800AC4ED100A02
:10565000D4ED110A30EE800A84ED110AB0EE4E0A44
:1056600003F054FFD4ED000A60EEAB0A60EE20DADE
:10567000B0EE4D0A03F04AFFCDEE800A94ED170A12
:1056800030EE600A84ED170AB0EE4E0A03F03EFFDA
:1056900094ED001AD4ED150A21EE0C1A41EE400AE1
:1056A000B0EE4E0AC4ED150A03F0D8FFF0EE400A42
:1056B00094ED000A94ED161A60EE2B1A01EEA01A72
:1056C00084ED161AD4ED120A4CEEC00AB0EE4D0A63
:1056D000C4ED120A04F0E4F8D4ED000A60EE8C0A7E
:1056E00020EE20CAB0EE4E0A03F0B8FFD4ED130A44
:1056F0004CEE400AB0EE4E0AC4ED130A03F006FF6A
:10570000D4ED000A60EEAB0A60EE20BAB0EE4D0AAE
:1057100004F0C6F8D4ED140AD4ED0C1A94ED08DAAE
:105720004BEEC00A94ED040A94ED0D6A3AEE4D1A60
:1057300071EE802A94ED050AD4ED0E5AD4ED173A95
:1057400036EE00AA35EE80EAC3EEA2CAD4ED07DA3F
:10575000D4ED154A94ED125A7AEEED6A94ED062ACC
:1057600094ED134A7BEE427A81EEA27AD4ED162AAA
:1057700086EE0A3A07EE272A67EEAC7A84ED062A0F
:1057800085EE8E0A43EE26DAC4ED07DAC4EE8AAA65
:1057900000EE01DA84ED08DAD4ED09EA82EE8ACA75
:1057A000C5EE0EBA4CEE267A84EE0EBA4BEE81EAC6
:1057B000C4ED09EA94ED0AFA80EE8EAA26EEAAEA72
:1057C000F0EE616A41EEC76A0BEE01EAF0EE461AAE
:1057D00046EE431A3EEE0FEA84ED0AEA4AEE017AFB
:1057E00094ED0B1A37EE811A84ED0B1AC4ED0C6A96
:1057F000C4ED0D1AF0EE651A45EEC01AC4ED0E1A8E
:10580000D4ED0F1A45EE6B1AC4ED0F1A64EEAA1A06
:10581000D4ED105A4BEE041A75EEE11AC4ED101ACD
:1058200063EEAC1AD4ED115A4CEE221A4AEE201A4D
:1058300075EEE11AC4ED111AF0EE631A43EEC71AC1
:1058400012EE100AB042C4ED171AF0EE641A44EEDC
:10585000C31AC4ED151AF0EE621A42EEC31AC4ED73
:10586000161AF0EE451A45EE401AC4ED121AF0EE83
:10587000441A44EE401AC4ED131AF0EE601A40EEDA
:10588000C01AC4ED141AC8BF32EE690A08DC12EE61
:10589000100AB8428CBF32EE290A94ED060A01D9EB
:1058A00084ED060A10EE100A79EE6E0A286078EE92
:1058B000CE1AC5ED01DA38EE411A85ED02DAC5EDF2
:1058C000030AC5ED041A85ED051ABDEC108BBDE881
:1058D000F08100000F4810B50D49016003214160BF
:1058E00000214FF410228160C0E903124FF400122E
:1058F0004261017641768176C17601774177FBF787
:1059000073FC002808BF10BDBDE81040FBF799B933
:1059100000640040B40200200F4810B50D4901603A
:105920000321416000214FF410228160C0E903127D
:105930004FF400124261017641768176C17601779B
:105940004177FBF751FC002808BF10BDBDE81040AF
:10595000FBF777B900680040DC020020074910B56A
:10596000054808600846FBF7D8FD002808BF10BDB1
:10597000BDE81040FBF765B900300240240000206C
:10598000254808B5016841F400110160016801F47F
:1059900000110091016841F480010160006800225B
:1059A00000F48000009005210C20FCF7F7FC0C208F
:1059B000FCF7E4FC002205213820FCF7EFFC38203E
:1059C000FCF7DCFC002205213A20FCF7E7FC3A203A
:1059D000FCF7D4FC002205213B20FCF7DFFC3B2038
:1059E000FCF7CCFC002205214420FCF7D7FC442026
:1059F000FCF7C4FC002205214520FCF7CFFC452024
:105A0000FCF7BCFC002205214620FCF7C7FCBDE8E2
:105A100008404620FCF7B2BC3038024010B5164AA8
:105A20000021164804F0FEFE154C164A0021606065
:105A3000154804F0F7FEA060144A0021144804F051
:105A4000F1FEE060134A0021134804F0EBFE2061F0
:105A5000124A0021124804F0E5FE6061114A00215B
:105A6000114804F0DFFEA061104A0021104804F044
:105A7000D9FEE06110BD0000C0CE0008099F0008FB
:105A800000000020E4CE00084D0A000808CF0008FE
:105A9000450C00082CCF0008FD69000850CF000815
:105AA000FD0A000874CF0008E19F000898CF0008A5
:105AB000FD6700082DE9F04F87B000246E48009480
:105AC0000194029403940494016841F0020101607E
:105AD000016801F002010591016841F04001016097
