:020000040800F2
:10000000B87E0020ED03000867A40008F18700080F
:1000100065A40008E1450008F5CA000800000000DA
:100020000000000000000000000000002D03000898
:10003000B1490008000000008903000889A60008F3
:100040000704000807040008070400080704000864
:100050000704000807040008070400080704000854
:100060000704000807040008070400080704000844
:100070008D4800080704000807040008070400086A
:100080000704000807040008070400080704000824
:10009000E54500080704000807040008B349000804
:1000A0000704000807040008070400080704000804
:1000B00085A70008070400080704000807040008D3
:1000C00007040008070400080704000807040008E4
:1000D0000704000879AE00080704000895AE000880
:1000E00007040008070400080704000807040008C4
:1000F000ADA7000891A7000807040008070400083E
:1001000007040008070400080704000807040008A3
:100110000704000807040008070400080704000893
:100120009948000807040008A5480008B1480008DD
:100130000704000807040008070400080704000873
:10014000A5460008070400080704000871A4000879
:10015000BD480008C9480008D5480008A9AE0008F5
:100160000704000807040008070400080704000843
:100170000704000807040008070400080000000046
:10018000070400080704000800F002F800F0BFF8B8
:100190000AA090E8000C82448344AAF10107DA45E2
:1001A00001D100F0B4F8AFF2090EBAE80F0013F075
:1001B000010F18BFFB1A43F0010318476036010016
:1001C000803601000A444FF0000C10F8013B13F098
:1001D000070408BF10F8014B1D1108BF10F8015BA0
:1001E000641E05D010F8016B641E01F8016BF9D193
:1001F00013F0080F1EBF10F8014BAD1C0C1B09D1EA
:100200006D1E58BF01F801CBFAD505E014F8016B5B
:1002100001F8016B6D1EF9D59142D6D370470000ED
:100220000023002400250026103A28BF78C1FBD8FF
:10023000520728BF30C148BF0B6070476E2901F0DC
:100240002A80702900F08582662912F03C86652993
:1002500012F03986672912F03686612912F0358648
:1002600003681B0A28BF41F08001692900F0F6816C
:10027000642900F0F381752900F0F0816F2901F005
:10028000E980782900F05182E92901F08380E4298E
:1002900001F08080F52901F07D80EF2901F0E680F2
:1002A000F82900F050820368DB0928BF41F0800183
:1002B000632902F08382732902F08882E32902F025
:1002C0009382F32902F09882002070471FB512F044
:1002D000F0FD9DE8030000F0D7FB01F087FE04006D
:1002E0000020002111F0A6FA401C606000200021CF
:1002F00011F0B6FAE06000F07DFD00F093FB1FBD49
:1003000010B5002000F06CFC00F0DDFD10BD00F029
:1003100056FF1146FFF7DAFF0FF04AFA01F0C0FD71
:1003200003B4FFF7EDFF03BC00F042FF2C4B19684C
:100330000868B0E8F04F80F30988BFF36F8F4FF083
:10034000000080F311887047000000000848006832
:10035000006880F308884FF0000080F3148862B6CC
:1003600061B6BFF34F8FBFF36F8F00DF00BF00BFD9
:1003700008ED00E0DFF80C00016841F47001016055
:10038000704700BF88ED00E0EFF30980BFF36F8F87
:10039000134B1A681EF0100F08BF20ED108A20E9D9
:1003A000F04F106009B44FF0500080F31188BFF394
:1003B0004F8FBFF36F8F10F049FC4FF0000080F3B8
:1003C000118809BC19680868B0E8F04F1EF0100FDA
:1003D00008BFB0EC108A80F30988BFF36F8F7047B5
:1003E0009C000020EFF3058070470000094880471B
:1003F00009480047FEE7FEE7FEE7FEE7FEE7FEE707
:10040000FEE7FEE7FEE7FEE704480549054A064B1E
:10041000704700002DA7000889010008B878002067
:10042000B87E0020B87A0020B87A002070B5064661
:1004300000F00AFB056806F10B0020F00704B44247
:100440009CBF002070BD2B466A68BAB11068A042FC
:1004500010D304F1080188423CBF5068586007D3AC
:100460005168101941601168091B016058601460DF
:10047000101D70BD13465268002AE7D12146284658
:1004800000F0EEFA0028DED170BD70B50446051FFD
:1004900000F0DAFA0068002C14BF446870BD002C2C
:1004A00018BFAC423CBF20466468F8D301680A1804
:1004B000AA4218BF456003D12A680546114401606D
:1004C00028684119A1421CBF6C6070BD61686960F9
:1004D00021680844286070BD53EA020C00F069806E
:1004E0002DE9F04B4FF00006002B1FBFB3FA83F548
:1004F00003FA05F424FA05F65E4012BF1643B2FA79
:1005000082F502FA05F4C5F120051EBF22FA05FCAA
:1005100044EA0C04203556EA044C4FEA144418BF50
:10052000641C4FF000084FF00009904271EB030C7F
:1005300039D3002919BFB1FA81F701FA07F6B0FAE9
:1005400080F700FA07F6C7F120071EBF20FA07FC64
:1005500046EA0C062037B6FBF4FCA7EB0507103F74
:1005600007F01F0BCBF120060CFA0BFB2CFA06F65A
:1005700044BFB3460026202FA4BF5E464FF0000BB9
:100580005BEA060C08BF4FF0010B19EB0B09ABFB44
:10059000027C48EB0608C01B06FB02CC0BFB03CC1D
:1005A00071EB0C01C1E70B46024641464846BDE8E7
:1005B000F08B13B54FF000004FF00001AFF3008057
:1005C000BDE81C40704710B54C1084EA530404D5B4
:1005D0004042C1F1000138BF491E1B4204D55242BE
:1005E000C3F1000338BF5B1EFFF776FF14F0804FA6
:1005F00004D04042C1F1000138BF491E14F0004F41
:1006000004D05242C3F1000338BF5B1E10BD70B569
:10061000044685690068C10601D5302600E0202621
:10062000C00707D070BDD4E9012130469047206A49
:10063000401C20626D1EF6D570BD70B504468569FC
:100640000078C00707D170BDD4E901212020904770
:10065000206A401C20626D1EF6D570BD2DE9F04168
:100660000646002410687529314616A510D000F002
:10067000D7FD002802DA404213A507E031688A0757
:1006800001D512A502E0490704D511A5012401E016
:1006900000F0CFFD00210A2206F1240709E0B0FB9B
:1006A000F2FCB0FBF2F302FB1C0030307854184629
:1006B000491C0028F3D123462A463046BDE8F041C4
:1006C00000F023BA000000002D0000002B00000005
:1006D00020000000F0B40D460188090502D5214C28
:1006E0007C4402E01F4C7C440E34002100F12406BF
:1006F00008E002F00F071209E75D42EA03721B09E6
:100700007754491C52EA0307F3D1027800231207F9
:1007100004D5702D06D009B1022311342246F0BC55
:1007200000F0F3B901231034F8E770B504460D4624
:100730002146106800F07DFD024629462046BDE8AE
:1007400070400023C6E7D21D22F00703D3E900233F
:10075000C0E70368126843F0200303600823C36105
:100760000023B7E7102A01002DE9F05F894604460F
:100770004FF0000ADFF874B1FB44C0F820A0204617
:10078000E1688847002874D0252806D0D4E90121E3
:100790009047206A401C2062F1E700265F46204611
:1007A000E16888472028054607DB312D05D27819F6
:1007B00010F8200C08B10643F1E7B00701D526F088
:1007C0000406C4F81CA00027C4F818A02A2D09D0DC
:1007D00028460EF0D9F838B304EB8708303DC8F846
:1007E000185019E059F8041B204604EB8702916168
:1007F000E1688847012F054618D1E069002820DA12
:1008000026F020061DE0D8F8180000EB800005EB6C
:1008100040003038C8F818002046E168884705468F
:100820000EF0B2F80028EED1012F0AD02E2D08D1FB
:100830002046E16888477F1C0546022F46F02006C7
:10084000C4DBA069002803DA404246F00106A0613B
:10085000F00701D026F010066C2D0BD0682D09D0C2
:100860004C2D39D06A2D35D0742D35D07A2D33D01A
:1008700016E038E0E1682F4620468847B842054632
:1008800009D16C2F26D04FF48060E16806432046E2
:100890008847054604E06C2F1AD04FF48070064359
:1008A0000DB3A5F14100192802D8203546F40066A1
:1008B0004A462946204626604E46FFF7BFFC80B1D7
:1008C00001280BD0F61D26F0070000F1080956E7B5
:1008D0004020E4E78020D8E70020D6E706F10409AD
:1008E0004DE7284652E7206ABDE8F09FA0290100A5
:1008F0002DE9F041074615460E461020FFF796FDFC
:1009000004000AD06760C4E9026500F0A1F801683C
:10091000216004600020BDE8F0810120FBE7032A8C
:1009200040F2308010F0030C00F0158011F8013B0C
:10093000BCF1020F624498BF11F801CB00F8013BF3
:1009400038BF11F8013BA2F1040298BF00F801CBB7
:1009500038BF00F8013B11F0030300F02580083A8E
:10096000C0F0088051F8043B083A51F804CBA0E8E5
:100970000810F5E7121D5CBF51F8043B40F8043B3A
:10098000AFF30080D20724BF11F8013B11F801CB6F
:1009900048BF11F8012B24BF00F8013B00F801CB40
:1009A00048BF00F8012B704710B5203AC0F00B800B
:1009B000B1E81850203AA0E81850B1E81850A0E863
:1009C0001850BFF4F5AF5FEA027C24BFB1E81850BD
:1009D000A0E8185044BF18C918C0BDE810405FEA2D
:1009E000827C24BF51F8043B40F8043B08BF7047A9
:1009F000D20728BF31F8023B48BF11F8012B28BFAE
:100A000020F8023B48BF00F8012B704702F0FF03BB
:100A100043EA032242EA024200F047B970477047B6
:100A20007047000070B5064C7C44064D7D4403E0E1
:100A3000206820448047241DAC42F9D170BD0000DD
:100A4000542F0100602F01000048704720780020DB
:100A500000487047507800207047704770477047D3
:100A600038B504460A4600206946AFF300800028E6
:100A700008BF38BD02460099204600F043F9012026
:100A800038BD012000F05DBAF8B5AFF3008005462F
:100A900000200C46102000BF0646A819A0420DD920
:100AA000324669460020AFF30080070008BF00F01F
:100AB00048FA0098A04218BF0546C419FFF7C4FFC2
:100AC00005600746F01D20F007004619284600F093
:100AD0000AF8B44208BFF8BDA21B31463868BDE829
:100AE000F84000F00FB900210160C0E90110704723
:100AF0001020704710B500F001F9006810BD10B566
:100B0000044600F0FBF8046010BD2DE9F0470D46E7
:100B100099469246044600F124080168880604D5E7
:100B2000E06921F01001216000E00120A84201DD10
:100B3000471B00E00027A1697A1902EB0900081A97
:100B4000A0612078C00602D42046FFF760FD002691
:100B500008E0D4E901211AF806009047206A401CF9
:100B6000761C20624E45F4DB2078C0060AD520466C
:100B7000FFF74DFD06E0D4E9012130209047206ABF
:100B8000401C2062381EA7F10107F4DC07E0D4E91D
:100B9000012118F805009047206A401C2062281E99
:100BA000A5F10105F3DC2046FFF747FD207800069C
:100BB00002D50220BDE8F0870120FBE7074B70B5A6
:100BC0000D467B4400F0E1F80446284600F00EF99B
:100BD00010B14FF0FF3070BD204670BD4FE10000F6
:100BE0002DE9F0410646FFF733FF8046454613E006
:100BF00016B1E068B0420ED120682860D4E9010146
:100C0000D8F8007088472046FFF73FFCD8F800006E
:100C1000B842EBD100E025462C68002CE8D1BDE8B5
:100C2000F081431A28BF9A427FF679AE032A104416
:100C3000114440F2268010F0030F1EBF11F8013D51
:100C4000521E00F8013D10F0030F7FF4F6AF11F0D3
:100C5000030300F0EA81083AC0F00B8051F8043D2C
:100C6000083A51F804CD40F8043D40F804CDFFF7B0
:100C7000F3BF121D5CBF51F8043D40F8043DAFF3D3
:100C80000080D20724BF11F8013D11F801CD48BF03
:100C900011F8012C24BF00F8013D00F801CD48BF38
:100CA00000F8012C70474FF000020429C0F01280B8
:100CB00010F0030C00F0E581CCF1040CBCF1020F44
:100CC00018BF00F8012BA8BF20F8022BA1EB0C01E4
:100CD00000F0D7B95FEAC17C24BF00F8012B00F80F
:100CE000012B48BF00F8012B7047000000487047F7
:100CF00018780020004870474C7800200048704762
:100D000018780020034640688C46002818BF8842A7
:100D10003CBF03464068F8D318681844884207D09F
:100D20000CF1030020F00700001D411A521A014681
:100D3000081D0A60FFF7A9BB0FB4014610B504AA4D
:100D40000398FFF73BFF10BC5DF814FB7CB51D4614
:100D500016460C00009001D02044401E074B7B44F7
:100D60002A4669460190304600F00FF805461CB14E
:100D70000020694600F0A3FA28467CBD6705000004
:100D800001694A1C02610878704700B58FB0CDE94F
:100D900001310021059105497944CDE9031011463F
:100DA0006846FFF7E1FC0FB000BD0000E5FFFFFF64
:100DB0000FB400B58DB010A9099000910B904FF0C1
:100DC000FF300A9000200C900648784406900648B0
:100DD00078446A4607900F9909A800F019FD0DB0F4
:100DE0005DF814FB630A00007B0A0000007B00F042
:100DF0008000704710B54248542100F040F9414846
:100E0000542100F03CF94048542100F038F93F49A2
:100E10003B483C4A3F4B08603D490A603A491960EB
:100E2000531C0365481C1065012008653B48344A83
:100E300039A1784400F090FF20B9384878440A3846
:100E400001F043F837482F4A35A1784400F084FF79
:100E500020B9344878440A3801F037F832482A4A31
:100E60002FA1784400F078FF20B92F4878440A3841
:100E700001F02BF840232248DC000021224600F03C
:100E800048FF20B125487844543801F01EF81D4829
:100E900022464023002100F03CFF20B12148784445
:100EA000543801F012F8184822461023002100F0AF
:100EB00030FF002806D01C487844BDE81040563862
:100EC00001F003B810BD104870B5006D20F00104AA
:100ED0000B4800F0B7FF0B4800F0B4FF0A4800F0E1
:100EE000B1FF09E0206D20F00105204600F0AAFFC7
:100EF0002046FFF7CAFA2C46002CF3D170BD000043
:100F00000077002054770020A87700209802002066
:100F10009C020020A0020020720000007625010043
:100F200077000000622501004E25010010B5002069
:100F300000F0C4FFFFF7E4F9BDE81040012000F025
:100F400037B910B500F0C8FFBDE8104000F0B1BFE0
:100F500040EA0103024630B59B0710D14FF001343F
:100F600000E008C208C91D1B9D4315EAC41FF8D044
:100F700013F0FF0102F8011B0DD01B0AF8E711F86E
:100F8000013B002B02F8013B05D011F8013B002B7F
:100F900002F8013BF3D130BD0022CBB210F8011BA7
:100FA000994200D1421E0029F8D11046704710B571
:100FB000431C02E010F8011B71B18107FAD14FF018
:100FC000013202C88C1A8C4314EAC211F9D0C01A3B
:100FD0000A0603D0C01E10BDC01A10BD0A0401D0FD
:100FE000801E10BD0902FCD0401E10BD421E12F82A
:100FF000013F002BFBD111F8013B002B02F8013B14
:10100000F9D17047431A28BF9A427FF6CDAC1044FD
:1010100010F0030F11441EBF11F8013D521E00F8DD
:10102000013D10F0030F7FF4F6AF103AC0F00A80D4
:1010300010B531E91850103A20E91850BFF4F9AF53
:10104000BDE81040530724BF31E9081020E908101B
:1010500044BF51F8043D40F8043D12F0030F08BFAF
:101060007047D20728BF31F8023D48BF11F8012C64
:1010700028BF20F8023D48BF00F8012C70474FF010
:10108000000200B5134694469646203922BFA0E8D8
:101090000C50A0E80C50B1F12001BFF4F7AF0907E4
:1010A00028BFA0E80C5048BF0CC05DF804EB8900D5
:1010B00028BF40F8042B08BF704748BF20F8022B18
:1010C00011F0804F18BF00F8012B704700F007B8EF
:1010D00010B50CF041FDBDE810400CF0A9BC10B5F6
:1010E00000F00DF8016919B100220261884701E0A2
:1010F00080688047FFF71AFF10B5FFF717FF70B53C
:1011000000F08AF804680546A4B92020FFF78EF99C
:10111000040011D0094900202C60C4E900010849ED
:10112000A1602073206160610649A06109B100F0EF
:101130003FFFE061204670BDFFF7F8FE00000000B1
:10114000F9100008000000000EB5CDE90001FFF71E
:101150002EFF029069460120ABBE0EBD08B5694660
:1011600000900220ABBE08BD1FB58DE807006946A0
:101170000520ABBE04B010BD1FB58DE80F00694659
:101180000620ABBEF6E708B5694600900920ABBE65
:1011900008BD1CB5CDE9000169460A20ABBE1CBDE7
:1011A000704708B5694600900C20ABBE08BD000032
:1011B00001491820ABBEFEE72600020070477546C5
:1011C000FFF794FDAE4605006946534620F0070040
:1011D000854618B020B5FFF717F9BDE820404FF05D
:1011E00000064FF000074FF000084FF0000B21F011
:1011F0000701AC46ACE8C009ACE8C009ACE8C009DE
:10120000ACE8C0098D46704710B500F0EFFE001D38
:1012100010BD00BF2106010000487047547800202F
:1012200009684A0501D540B27047C905FCD500B22E
:10123000704709684A0501D5C0B27047C905FCD599
:1012400080B2704770B50C460546012A05D0287853
:10125000800600D5EA69002302E0012305E05B1C5B
:10126000934202D2E05C0028F9D1A869E618C01ABE
:10127000A861286A184428622846FFF7C8F904E0E4
:10128000D5E9012114F8010B9047B442F8D3284660
:10129000FFF7D3F970BD11680268006A530501D5E4
:1012A00008700AE0D30501D5088006E0130603D5CF
:1012B000C217C1E9000200E00860012070470A6817
:1012C00002F8010B0A607047D1E900239A4202D26A
:1012D000531C0B60107070472DE9FF5F15468A465E
:1012E0000446DFF8AC80F8440027D8E900103E46F9
:1012F000CDE9001010E03AF816106A4602A802F094
:1013000091F8411C07D02178890603D5E269391884
:1013100091420DD80744761C2078800602D5E069FA
:10132000B84205DDAE42E6DB3AF816000028E2D10D
:10133000A069C01BA0612046FFF769F9D8E9001039
:10134000CDE90010002017E03AF818106A4602A80C
:1013500002F068F8B0F1FF3F81460BD000250DF197
:10136000080B05E0D4E901211BF8050090476D1C2E
:101370004D45F7D308F10100B0428046E4DB206A16
:10138000384420622046FFF758F9BDE8FF9F00006F
:10139000CE2001002DE9F0418046D21D22F0070247
:1013A0000025D2E90002F52915A614D0011E72F11C
:1013B000000106DA0023D0EB030063EB020211A662
:1013C00008E0D8F800108B0701D50FA602E0490706
:1013D00001D50EA601251146002408F1240704E0DA
:1013E00000F008FE30323A55641C50EA0102F7D191
:1013F0002B46324621464046BDE8F041FFF785BB0B
:10140000000000002D0000002B0000002000000064
:1014100030B4002100F1240408E002F00705D208EE
:10142000303542EA4372DB086554491C52EA030531
:10143000F3D10468002310A2250708D504F0200486
:101440000C4304D0C46901230CA2641EC46130BCE7
:10145000FFF75BBB10B5044621461068FFF7E9FEB5
:1014600002462046BDE810400023D1E7D21D22F0FD
:101470000701D1E90023CBE70000000030000000A5
:101480002DE9FF4F1C4691464FF0FF3581B00021FA
:101490008A468846D4E90167A16902986D1C88478D
:1014A000216A834688470028F6D1BBF1FF3F0CD064
:1014B000002F26F4C0661ADD700615D5BBF12B0F80
:1014C0000AD0BBF12D0F0FD104E04FF0FF3005B073
:1014D000BDE8F08F46F48066A16902986D1C8847CC
:1014E0007F1E8346002F02DDBBF1300F03D0B9F120
:1014F000000F2AD025E0A1696D1C02987F1E46F4DA
:1015000000768847002F834605DDBBF1780F06D0B3
:10151000BBF1580F03D0B9F1000F10D011E0B9F1B1
:10152000000F02D0B9F1100F0BD1A1696D1C029808
:101530007F1E26F4007688478346102000E00820AE
:1015400081464FEAE970009017E00A20F8E7434629
:10155000AAFB0928DDF800C07F1E03FB098046F4C2
:10156000007605F101050AFB0C0112EB0B0A02984B
:1015700041EBEB78A16988478346002F06DD494699
:10158000584601F03DF95FEA000BE0D5E1690298A9
:101590008847B00502D46FF0010098E7F00718D132
:1015A000700610D55146700505D50023D1EB030117
:1015B00063EB080200E042462068031D23600068D8
:1015C000C0E9001205E02068011D21600068C0E943
:1015D00000A828467BE72DE9FF5F1D464FF0FF3B43
:1015E00091464FF000085F46D5E90146A969019888
:1015F0007F1C8847296A824688470028F6D1BAF1BD
:10160000FF3F0CD0002E24F4C06419DD600614D511
:10161000BAF12B0F09D0BAF12D0F0ED103E05846C5
:1016200004B0BDE8F09F44F48064A96901987F1C70
:101630008847761E8246002E02DDBAF1300F03D0B5
:10164000B9F1000F26D032E0A969761E01987F1CFF
:1016500044F400748847002E824605DDBAF1780F05
:1016600006D0BAF1580F03D0B9F1000F10D01EE028
:10167000B9F1000F02D0B9F1100F18D1A969761E87
:1016800001987F1C24F4007488478246102002E0F1
:10169000082000E00A20814609E0A96908FB090842
:1016A000761E01987F1C44F4007488478246002E01
:1016B00005DD4946504601F0A3F80028EDDAE96956
:1016C00001988847A00502D46FF00100A8E7E00761
:1016D00025D1600613D5600502D5C8F1000000E0F1
:1016E000404629680A1D2A600968220501D508704C
:1016F00015E0220701D5088011E008600FE0286896
:10170000011D29600068210502D580F8008006E0EF
:10171000210702D5A0F8008001E0C0F8008038461B
:101720007EE72DE9FF5F4FF00008994614464646D4
:101730009169D2E901A7DDF838B0019888470546DC
:1017400059EA0B0005D009E0A1690198761C884789
:101750000546216A284688470028F5D1681C03D031
:101760005FEACA7005D015E04FF0FF3004B0BDE865
:10177000F09F2068011D2160D0F800800AE05FEA38
:10178000CA7001D108F8015BA169761C01987F1E1F
:1017900088470546002F1ADD681C18D0B9F1000FE4
:1017A0000DD0E81705EBD060421120F01F0059F86A
:1017B00022102A1A012090400142E0D107E0BBF13B
:1017C000000FDCD12846216A88470028D7D0E1697C
:1017D00001988847BBF1000F07D1002E05DD5FEAB5
:1017E000CA7002D1002188F80010A068B84203DD59
:1017F000BBF1000F03D017B16FF00100B6E7304620
:10180000B4E700000268114413780160184670477D
:10181000D16005497944516104497944116200213C
:101820001161114600F0FABFEDFFFFFF61080000F3
:10183000426842B1016811F8013B23B1521EC0E970
:101840000012184670470121C160881E7047426827
:101850005AB1C368016843B983688B4205D0491EF9
:10186000521CC0E90012002070474FF0FF30704753
:101870002DE9FF4F4FF000089A461446C1464646F0
:1018800083B0D2E901B7CDF80080CDF8048091692A
:1018900004988847109905465AEA010005D009E0E6
:1018A000A1690498761C88470546216A284688471E
:1018B0000028F5D1681C03D05FEACB7005D02AE080
:1018C0004FF0FF3007B0BDE8F08F2068011D2160A8
:1018D000D0F800801FE002A86A46E9B201F084FD5A
:1018E000411C07D0801C09D04FF000095FEACB7083
:1018F00007D00AE0E169049888473EE04FF001090B
:1019000004E0BDF8081028F8021B7F1EA1690498A6
:10191000761C88470546002F1ADD681C18D0BAF1DE
:10192000000F0DD0E81705EBD060421120F01F002A
:101930005AF822102A1A012090400142CBD107E028
:1019400010980028C7D12846216A88470028C2D0AD
:10195000E16904988847B9F1000F0ED1109830B9A9
:10196000002E04DD5FEACB7001D1A8F80000A0686A
:10197000B84202DD109818B117B16FF00100A1E76D
:1019800030469FE72DE9FF4F4FF000089B46144675
:10199000454683B0D2E90196CDF80080CDF80480A9
:1019A0009169DDF848A00498884707465BEA0A0079
:1019B00005D009E0A16904986D1C88470746216A93
:1019C000384688470028F5D1781C03D05FEAC970F3
:1019D00005D01BE04FF0FF3007B0BDE8F08F206866
:1019E000011D2160D0F8008010E05FEAC97007D1C6
:1019F0006A464046B9B201F015FD411C31D0804421
:101A0000A1696D1C0498761E88470746002E14DDD8
:101A1000781C12D0BBF1000007D03B46DDE9101264
:101A200001F008FB0028E0D107E0BAF1000FDCD19B
:101A30003846216A88470028D7D0E169049888474A
:101A4000BAF1000F06D1002D04DD5FEAC97001D1A3
:101A500088F80000A068B04203DDBAF1000F03D09F
:101A600016B16FF00100B7E72846B5E72DE9FF5F33
:101A70009B46144600273D469169D2E90196DDF860
:101A800040A00198884780465BEA0A0005D009E03B
:101A9000A16901986D1C88478046216A40468847A5
:101AA0000028F5D1B8F1FF3F03D05FEAC97005D037
:101AB00014E04FF0FF3004B0BDE8F09F2068011D36
:101AC000216007680AE05FEAC97001D127F8028B3C
:101AD000A1696D1C0198761E88478046002E15DD91
:101AE000B8F1FF3F12D0BBF1000007D04346DDE95B
:101AF0000E1201F09FFA0028E5D107E0BAF1000FBD
:101B0000E1D14046216A88470028DCD0E16901988C
:101B10008847BAF1000F05D1002D03DD5FEAC970D7
:101B200000D13880A068B04203DDBAF1000F03D0C5
:101B300016B16FF00100BEE72846BCE72DE9F0477B
:101B400005460C46C86820F4201040F48000C860A8
:101B5000800602D5084601F050FBE06841F28201A0
:101B60004FF0FF390140022903D0204601F0EEFA80
:101B7000B5E000F42041B1F5004F0FD1C00306D508
:101B80006168E06A884200D80846606006E0206923
:101B9000E06260606069FFF704FBA061A06800225A
:101BA000EEB200280DDAE1688B050AD4C043A060CC
:101BB00041F490302260E0606068411C6160067012
:101BC000A5E0E0689046226040F40050E0602069A3
:101BD00068BB6069FFF7D7FA012704F12405A0B1BB
:101BE000A08910F4407F08D0E069FEF71FFC206157
:101BF00018B1E06840F4006016E0E7612561E06834
:101C000020F4407040F480600EE0E069FEF70EFCC6
:101C100000282061F1D0E06840F4006010F4407FBB
:101C2000E06002D140F48070E06020696060E068AC
:101C300025696FF0010AC1051FD56168E06A884215
:101C400000D80846411B04D02246284601F088FAF5
:101C5000F0BBE068010203D5E562C4E9015854E035
:101C6000691CE1626160E16940F48030491EC4E9A9
:101C7000021030462E70BDE8F087010202D500F454
:101C800080320AE06068411C61600670E0680A2EDC
:101C900040F48030E06006D00022E16A6068814252
:101CA00003D90B4602E00122F7E70346A7895B1B35
:101CB0007F0503D4E7699F4200DDE2B1814200D88D
:101CC0000146E5620F1AC4E90158002B09DD00E066
:101CD00005E022461946284601F042FA08B1484676
:101CE000C9E747B1A069E5626560C01BA061E06813
:101CF00040F01000E060E068000208D56168A0696B
:101D0000E562491B08446560A0615046B3E7304670
:101D1000B1E770B5C468A50713D0650211D4B2F558
:101D2000807F09D0B2F5007F06D0B2F5806F08D170
:101D3000012300F1240106E05D1E6FF07F46B542ED
:101D400001D3012070BD0161C361416024F4706161
:101D50001143C160002070BD2DE9F0410C460746DB
:101D60001646104600F06EF82078611C61280AD0F3
:101D7000722802D077283CD102E00125002405E03A
:101D80000225042402E0082448F2020511F8010BA0
:101D90002B2806D0622809D011F8010C74280AD02B
:101DA0000BE045F0030544F00204EFE745F00405BD
:101DB00044F00104EAE744F0100438462146FFF7F6
:101DC000C3F9411C15D00021316171604FF40071DD
:101DD000F560F1617061200704D5304602220021D0
:101DE00001F038F9306D40F0010030653046BDE853
:101DF000F0810020FBE72DE9F0410D460646104C2E
:101E0000206DC10704D0410804D020F00104F7E799
:101E100022460EE05420FEF709FB07000ED0206D8D
:101E200047F001010843542120653846FFF727F9A0
:101E30003A4629463046BDE8F0418DE70020D6E716
:101E4000007700202DE9F04704464FF000094FF0DD
:101E5000FF37C568D4E90486A80707D0204601F0FB
:101E6000A9F93046FFF77AF9002802DA3846BDE8CA
:101E7000F087280502D54046FEF707FB4C21204697
:101E8000FFF7FDF8206D20F0010020654846EEE7E1
:101E90000A460146014801F01EBA00007878002089
:101EA00010B50446AFF300802046BDE81040FEF7B1
:101EB00037BA002801D0FFF77BB9704710B501F0A1
:101EC000EBFABDE81040FFF7F4BF10B501F0FCFAE3
:101ED000BDE81040FFF7EDBF10B5012805D0002187
:101EE00003A001F0BFFA012010BD09A1F8E700002E
:101EF00053494752544D454D3A204F7574206F66F3
:101F00002068656170206D656D6F7279000000005A
:101F10003A2048656170206D656D6F727920636F3E
:101F2000727275707465640001B5FEF7F8FC01BD4E
:101F30004FF0013C50F8042B51F8043B9A4221D158
:101F4000A2EB0C03934313EACC1317D150F8042BE4
:101F500051F8043B9A4215D1A2EB0C03934313EAC8
:101F6000CC130BD150F8042B51F8043B9A4209D101
:101F7000A2EB0C03934313EACC13DBD04FF0000029
:101F8000704700BFD01A01BAB1FA81F101F018010F
:101F900022FA01F0CB40C1F12001DBB2C0B2C01A7D
:101FA0002CFA01F3D11A914311EAC311E6D170471B
:101FB00010B58820FEF73AFA002801D00021017000
:101FC00010BD802902D808B1017809B100207047FE
:101FD000012100F8081B704718B100F10802914276
:101FE00001D0002070470021017070470048704701
:101FF0003878002030B5B0F10A024FEA900E71F146
:1020000000034EEA817EB0EB0E0061EB91014FEAD6
:10201000101E4EEA017E10EB0E0041EB11114FEA4B
:10202000102E4EEA016E10EB0E0041EB11214FEA2B
:10203000104E4EEA014E10EB0E0041EB11414018DC
:1020400041F100014FEAD00040EA41704FEAD1016E
:1020500010EB80054FEA810444EA907444EB0104DC
:102060006D1944EB0404521BA3414FF0000348BF19
:102070000A3200D530BD401C41F1000130BD10B521
:102080000446FFF7C1F80068005D00F0010010BDD4
:1020900070472DE9FF4F0C461E464FF0FF378BB0BF
:1020A000D2E90001DDF860800A908A46C1F30A5542
:1020B00005B93D46002108464FF00000BAF1000F77
:1020C00000F4400005DA00EB80004FF4400101EA23
:1020D00050004FEA9059B9F1010F00DDB9460A9856
:1020E00050EA4A000ED044F61050A5F2FF354543A1
:1020F0002F14B8F1000F1ED07542291E1EDDC9F144
:1021000000021CE0B8F1010F4FF0000001D03021B7
:1021100003E0F24305E02154401CB042FBDB3046B3
:102120000022002121540B99C1F80880C1E9002048
:102130000FB0BDE8F08FBD1B6D1CDEE74A4600DA2C
:10214000694206A801F034FA06AB93E8070003AB36
:1021500083E8070050460A9901F005FD8DE8070065
:10216000A0F500501F3800900398002D09DD42F2C1
:102170001F014A46084403A90390684601F08FFFF7
:1021800008E0A0F500504A461F3803A903906846AE
:1021900001F0ADFF8DE807000004000C03D04FF004
:1021A000FF30410800E01046B8F1000F03D00022D4
:1021B000009215461EE0751E05D4FFF71BFF303256
:1021C00062556D1EF9D5B3460122084302D00022A4
:1021D0007F1C04E02078302801D100227F1E002AD5
:1021E000099786D01DE0112D07DAFFF703FF303283
:1021F00062556D1C50EA0102F5D1084302D00098E7
:10220000C8B10EE00021681E05E0235C625C6354E7
:102210002254401E491C8142F7DBAB46A81B401EDE
:102220000990002004F80B000B98099AC0F8088068
:10223000C0E9002B7CE711264FF0000859E72DE993
:10224000F04F88460446D21D22F0070191B0D1E933
:102250000001CDE90A010BF054FC02460B98C00FB7
:1022600001D02D2007E02068810701D52B2002E056
:10227000202101EAC000032A099001D0072A05DBCA
:1022800003464146204601F053F90BE120788006D1
:1022900001D5E06900E00620B8F1650F814606D05F
:1022A000B8F1660F18D0B8F1670F70D131E0002097
:1022B000B9F1110F009001DB112301E009F10103D5
:1022C0000AAA01A90CA8FFF7E4FEDDE90C700026BC
:1022D00009F10105834647E001204B4600904FF08D
:1022E00000470AAA01A90CA8FFF7D3FEDDE90DB04B
:1022F0000C995D46002610B909F101000D18B9EBE3
:10230000050003D4C0F1FF3609F10105A5EB090072
:102310002BE0B9F1010F01DA4FF001090020B9F10A
:10232000110F0090484601DD112300E003460AAA80
:1023300001A90CA8FFF7ADFEDDE90C704D460026A3
:102340008346207800070AD4AB4500DA5D4601A831
:10235000012D04DD411911F8011C302907D04F452A
:1023600002DA17F1040F04DA012082460FE06D1E35
:10237000EEE7002F02DCED1B3E4403E0781CA84290
:1023800000DD7D1CB81B00F1010A4FF000472078EA
:10239000000703D4AA4501DB4FF0FF3A0021B7F153
:1023A000004F0DF143088DF8431024D002202B2359
:1023B000002F01DA7F422D230A21021EA0F1010025
:1023C00000DC5FB197FBF1FC97FBF1F201FB1C7C99
:1023D00017460CF1300C08F801CDEEE7A8F101002A
:1023E00003702188090501D5452100E06521A0F190
:1023F000010800F8011C09980FA9A1EB0807FF1DAF
:1024000000B10120411901EBEA70A1693844081AB2
:10241000401EA0612078C00602D42046FEF7F7F8DF
:10242000099828B1D4E901219047206A401C206214
:102430002078C00622D52046FEF7E9F81EE0002EDF
:1024400004DBB34502DD01A8805D00E03020D4E963
:1024500001219047206A401C2062761CAAF10100ED
:102460005FEA000A0AD1FFF7C1FDC0680168405C5D
:10247000D4E901219047206A401C2062281EA5F162
:102480000105DCDC07E0D4E9012118F8010B9047D5
:10249000206A401C2062381EA7F10107F3DC2046A9
:1024A000FEF7CBF8032011B043E600002DE9F04F12
:1024B00004460D46D21D22F0070089B0D0E90097EE
:1024C000484639460BF01DFB0246F80F01D02D237C
:1024D00007E02068810701D52B2302E0202101EAD3
:1024E000C0038DF820300BB1012000E00020032A4A
:1024F000824601D0072A04DB2946204601F018F85D
:102500003FE12078800601D40D2500E0E569C7F39E
:102510000A560D2D49DA00214FEA175B08464FF0A5
:102520000000002F00F4400007DA00EB80004FF4B9
:10253000400100EBD07001EA60008115012901DD46
:102540004FF0FF3100224FEA850CBCF1180F06D383
:102550001346ACF118004FF08052C24003E04FF434
:10256000801323FA0CF30CF10C0CBCF1200F04D3F4
:10257000ACF1200C09FA0CF001E007FA0CF000298C
:102580004FF0004801DD18B90FE00ED140450CD3E3
:1025900019EB02095F4121B9404502D19F4329EA65
:1025A0000209BBEB175F00D0761C2088000502D51E
:1025B0007B48784402E07A487844193808AA3023E6
:1025C00002F80A30037C0AF10101002E0AF1020A26
:1025D00053546A4602DC4FF0300101E04FF0310104
:1025E0004FF001088DF8001002D0A6F2FF3603E08C
:1025F00059EA470100D06B4E002D02DC2178090713
:1026000004D54FF002082E218DF80110C446002198
:102610000BE0C7F303433F01C35C491C6D1E02F886
:102620000830052908F1010801DA002DF1DC00214C
:102630000CE000EB1973491C1B786D1E082902F889
:1026400008304FEA091908F1010801DA002DF0DC21
:1026500021688B0602D516E0A8F10108E04505DDEA
:1026600002EB080313F8013C302BF5D0B8F1000F52
:1026700009DD02EB080313F8013C2E2B03D10907F7
:1026800001D4A8F10108002D05DD3E2102F8081053
:102690006D1E08F10108407C002E02F8080008F1C8
:1026A000010804DA2D20764202F8080002E02B200F
:1026B00002F808000A214FF47A70864208F10108F6
:1026C0000BDB96FBF0F3303302F8083096FBF0F3A7
:1026D00008F1010800FB136601E0642E0CDB6420A6
:1026E00096FBF0F3303302F8083096FBF0F308F174
:1026F000010800FB136601E00A2E06DB96FBF1F0F1
:10270000303002F8080008F1010896FBF1F001FBF7
:102710001060303002F80800A16908F1010808EBE8
:10272000050202EB0A00081AA0612078C00602D454
:102730002046FDF76CFF216A08AE01EB0A0020621B
:1027400004E0D4E9012116F8010B9047BAF1010A1F
:10275000F7D22078C00602D52046FDF758FF6E4616
:1027600009E016F8010B3E280FD0D4E9012190476B
:10277000206A401C2062B8F10108F2D22046FDF721
:102780005CFF09B00320BDE8F08F206A2844206276
:1027900003E0D4E90121302090476D1EEBD3F8E728
:1027A0001D0E010002FCFFFF10B5436913B1AFF32A
:1027B000008001E0FEF746FD012010BD127800F117
:1027C00024010A7000224A700122EDE711684FF0DF
:1027D000FF32E9E710B5436913B1AFF3008001E0C0
:1027E000FEF77AFD012010BD128800F124018284D9
:1027F0000022C2840122EDE711684FF0FF32E9E7C1
:102800003A2800D2303820F02002412A01D3A2F128
:102810003700884201D34FF0FF3070472DE9F34F66
:102820004FF0000A0C4656468DB001200C9001F185
:102830000C000B9062690B9801219047051E2DD06A
:10284000252D2CD0216A8847C0B162690B980121DF
:102850009047216A88470028F7D16269411E0B988A
:10286000904700E0761CA1690D988847216A884747
:102870000028F7D1E1690D988847DBE7A1690D9839
:102880008847A842074601D1761CD3E7E1690D9835
:1028900088477F1C02D1BAF1000F6FD06BE16269EB
:1028A0000B9800273D46394690472A2804D1626993
:1028B0000B98012190470125DFF8D08262690B98BF
:1028C00001219047A0F130010A290AD24745E5DCF1
:1028D00007EB870100EB4107303FDFD445F01005DF
:1028E000ECE7E90601D46FF000476C280AD04C28C9
:1028F00014D0682815D06A280DD074281CD07A28E6
:102900001AD01DE062690B98012190476C2802D013
:1029100045F0040514E045F002050DE045F0200502
:102920000AE062690B9801219047682802D045F0BF
:10293000080505E045F4006562690B9801219047A0
:10294000C4E9015765283DD019DC58287AD00CDC41
:10295000452837D004DC252826D041289ED131E0F7
:1029600046282FD0472899D12CE05B2877D06128C2
:1029700028D063287CD0642823D15AE0F6E06F2861
:1029800048D008DC66281DD067281BD0692821D0D4
:102990006E2816D127E0702845D0732868D0752896
:1029A00047D078280DD14DE0A1690D98884725289A
:1029B00005463FF469AFE1690D9888476D1C3FF407
:1029C0006AAFD8E00D9923466A466FF0010010F017
:1029D000DEFAC5E045F0400023464FF0000260609B
:1029E000A80736D43EE0E8077FF447AF2068011D12
:1029F00021600068290501D506701BE7290701D56C
:102A0000068017E7A90703D5F117C0E9006111E7B0
:102A100006600FE745F0400023464FF00802606073
:102A2000A80716D41EE040F60E0125EA01006060FA
:102A300016E045F0400023464FF00A026060A80708
:102A400007D40FE045F040006060A80708D5234692
:102A500010220D996FF00100FEF712FD80E007E0F3
:102A6000102223460D996FF00100FEF7B4FD77E0C8
:102A70004FF0000963284F46C8464B46CB4602D06C
:102A80005B2806D038E0E80601D40120A0600127C9
:102A900032E06269D4F80CB00B98012190475E28AF
:102AA00007D14FF0010949466269D4F80CB00B9880
:102AB0009047216939B900210A4603AB43F8212028
:102AC000491C0829FADBD8B3216949B308F1010888
:102AD00062690B98012190475D28F4D1B9F1000F8C
:102AE00009D0002003A951F82020D24341F820202A
:102AF000401C0828F7DB03AB2069002820794FEA47
:102B000040701ED05B462246CDF80080CDE901978B
:102B10000D9900286FF0010020DAFEF7A7FF1FE0F3
:102B2000C11703AA00EBD1614B1121F01F0102EB89
:102B30008302411A13680120884003431360C7E7EA
:102B400019E00D99224600286FF00100009702DA83
:102B5000FEF78EFE04E0FEF7E4FD01E0FEF712FF53
:102B600000280ADA401C06D10C9820B14FF0FF3043
:102B70000FB0BDE8F08F5046FAE7E90701D10AF13E
:102B8000010A064400200C9054E60000CCCCCC0C8A
:102B90002DE9FF4F064689B00878FF2806D0491C6A
:102BA0002D2805D000244FF0000908E000200CE09B
:102BB0000124F8E709EB8903491C00EB4309087875
:102BC000FF28F7D114B1C9F1000081461078002523
:102BD0002C46AA4629462D2801D02B2804D1521C68
:102BE0002D2813D0002082468B461078FF280FD066
:102BF0004FF0000C0A21521CA5FB017804FB018157
:102C000005FB0C11C5194BEB0104EEE70120EAE7C7
:102C1000002108464FF00000BAF1000F02D000EB8F
:102C200080004008C0F38158B8F1010F01DD4FF07A
:102C3000FF380C9809EB000755EA040009D04FF063
:102C4000020917F5FA7F0BDA4FEACA70C6E900B03D
:102C500012E04FEACA70C6E900B00DB0BDE8F08FCF
:102C6000B7F5FA7F0DDDF0487844D0E90010C6E9E9
:102C7000001040EACA707060FEF740F8C0F800909B
:102C8000EBE7391E02DAC8F1000200E0424600DA42
:102C9000794206A800F08CFC06AB93E8070003AB72
:102CA00083E8070044F23E005BEA040100905846C6
:102CB00004D144F21E012C465D460091210C09040A
:102CC000014306D10099240444EA15442D04103927
:102CD000009104F07F41014306D10099240244EAA7
:102CE00015642D020839009104F07041014306D1AA
:102CF0000099240144EA15742D01091F009104F084
:102D00004041014306D10099A40044EA9574AD0006
:102D1000891E009104F00041084304D100986D1908
:102D20006441401E009042466846002FCDE90145AF
:102D300003A902DD01F0EFF901E001F0C4F9BAF1F5
:102D4000000F04460D4601D084F0004440F2FF77A6
:102D500024F00040284303D0C4F30A50B84212D1F3
:102D6000FDF7CCFFC0F80090C4F30A50B8420AD176
:102D7000AE487844D0E90010C6E9001004F00041E4
:102D80000843706069E7C6E9005466E72DE9FF4F24
:102D90001F464FF0000A4FF0FF38454691B0D7E983
:102DA0000146CDF83CA0FFF721F9C0680168405CFE
:102DB0001090B96912986D1C8847396A8146884716
:102DC0000028F6D1B9F1FF3F0AD0002E24F4D064D8
:102DD00011DDB9F12B0F08D0B9F12D0F0BD102E0A5
:102DE000404615B03AE744F48064B96912986D1C06
:102DF0008847761E8146600504A901D52D2000E094
:102E00002B20002E01F1010B0DF130088DF8100080
:102E10003FDDB9F1690F08D0B9F1490F05D0B9F11B
:102E20006E0F02D0B9F14E0F1CD13B4601A80095A0
:102E300080E85002DDE912126FF0020010F0ABF8EA
:102E4000C11CCED10EE0B96912986D1C884781462D
:102E50001398761E44F4007405600F98401C002EF1
:102E60000F9016DDB9F1300FEDD0B9F1780F02D027
:102E7000B9F1580F0DD10F9801280AD13B46CDE981
:102E80000054DDE91212001F029610F082F8C11CF6
:102E9000A7D1109989453ED144F0800406E01399EA
:102EA000681CAAF1010A44F400740860B9696D1C39
:102EB0001298761E884730288146F0D02BE0109972
:102EC000894505D1200603D4761E44F0800418E01D
:102ED00048460BF059FD08B3761E0DF123018B45D2
:102EE00044F4007408D2A9F130000BF8010B20065D
:102EF00007D5AAF1010003E0200602D40AF101007F
:102F00008246A00502D51399681C0860B969129819
:102F10006D1C88478146002ED1DC53E0002E51DD28
:102F2000B9F1650F02D0B9F1450F4BD1A00549D5D4
:102F3000B9696D1C1298761E24F440748847002EDF
:102F400081460CDD2B2804D0B9F12D0F07D144F4B4
:102F50008074B96912986D1C8847761E8146E00519
:102F600001D52D2100E02B2108F8011BCDF80080B0
:102F700021E0761E0DF13901884544F400740CD22D
:102F8000A9F1300010F0FF0088F8000002D100998C
:102F9000884509D908F1010806E0E00501D5244873
:102FA00001E042F20F708246B96912986D1C8847A1
:102FB000814613980560002E04DD48460BF0E4FCC2
:102FC0000028D6D1F96912988847FF2053468BF81C
:102FD000000088F8000000200A900B9004AA0CA9B9
:102FE0000AA8FFF7D5FDA00502D46FF00100F8E6AE
:102FF00014F0240F0AD0E00714D13868DDE90A1272
:10300000031D3B600068C0E900120BE00AA9684696
:103010000BF05EFBE00705D13868009A011D3960AE
:10302000006802602846DCE6D00B0100C60A0100F9
:10303000F1D8FFFF10B508E030F8024B9C4204D1F4
:103040000AB1002010BD012010BD491EF4D2104667
:1030500010BD00002DE9F041044616460D464769B3
:10306000007B80072ED03846FEF78DF850BB3EB36C
:10307000012E02D0022E25D104E0204600F006FBEE
:1030800005441DE03846FEF78CF8E168002841F061
:103090001001E16005DA204600F058F80120BDE893
:1030A000F081C9030BD56268E16A914200D81146EC
:1030B000A26911442269891A814200DD084605444B
:1030C000002D01DA0220EAE7E16A6068E2688142E5
:1030D00006D29103E06203D522F4003141F01002E0
:1030E000A6690027AE4213DCE16A814201D90B4692
:1030F00000E0034603EB060C2369ACEB030CAC4584
:1031000006DD814201D98C4600E084469C4505D10C
:10311000A760276042F02000A5620DE0AD1BE669C4
:10312000AE1B8142A66000D90846C01A281A20604A
:103130005819606022F0200003490840E060002038
:1031400084F84870ABE70000BFCFD7FFC16821F417
:10315000001141F08001C160002181600160704771
:103160002DE9F047814614460E464FF0FF383248AD
:10317000D5685769054209D03846A169FEF709F8B4
:10318000002811DB2C48C0430540E5602B46324641
:1031900049463846FDF7E8FFA16920F00042B21A1F
:1031A00011440028A16103D02046FFF7CFFF40461D
:1031B000BDE8F08770B504460569C06A6168884259
:1031C00000D80846E16821F42011E160C90312D556
:1031D000A84208D02246411B2846FFF7C1FF10B184
:1031E0004FF0FF3070BD0020E562C4E90150E06897
:1031F00020F48030E060002070BD10B50446C06847
:1032000020F02000E060A16AA06988420DD020462D
:10321000FFF7D0FFE06820F4405040F01000E0607D
:10322000A06AA0612069E062606044F24001E06849
:103230008843E06010BD00001000020070B5064633
:10324000484231EA00000FD02A20741C002530705B
:10325000FEF7CCFE0346002253F82500010F0001C3
:1032600009292BD957312AE0042913D004DC01297C
:1032700008D0022904D109E008290FD0102911D063
:10328000002070BDFEF7B2FE00680EE0FEF7AEFE55
:1032900040680AE0FEF7AAFE806806E0FEF7A6FE98
:1032A000C06802E0FEF7A2FE006928B120F003002A
:1032B00050F8041C084470BD49A070BD3031521C48
:1032C000082A04F8011BC9D36D1C052DC3DB00209F
:1032D0002070304670BD2DE9F047E1B14B091AD19D
:1032E00032B113782A2B06D0BDE8F04700F02AB897
:1032F000BDE8F047A2E753786BB1551C81460F46F5
:103300004FF0010800240026314615F8010B39283A
:1033100004D8303803E00020BDE8F0875738491C56
:10332000082940EA0616F0D308FA04F0384203D020
:10333000FEF75CFE40F82460641C052CE3DB394694
:103340004846D5E72DE9F0410C4606461546880764
:103350000AD51146234878440EF06CFA071E3CD07B
:10336000FEF744FE7F1C4760E0070AD029461D484F
:1033700078441A38AFF30080071E2ED0FEF736FED1
:10338000076060070AD52946164878443438AFF3F9
:103390000080071E21D0FEF729FE876020070AD58E
:1033A0002946104878444E380EF05AFA071E14D0B9
:1033B000FEF71CFEC760E0060AD529460948784496
:1033C0006838AFF30080051E07D0FEF70FFE0561D9
:1033D00021463046BDE8F04130E7BDE8F08100000D
:1033E000430000000606010070B516460C4605466F
:1033F000FDF70AFF036893F80101012804D0185D66
:1034000068B101202C8070BDD3F8030132462146FB
:1034100003F2031303442846BDE8704018474FF0F9
:10342000FF3070BD70B516460C460546FDF7ECFE44
:10343000036893F80101012806D0FF2C0FD8185D0E
:1034400068B101202C7070BDD3F8070132462146C7
:1034500003F2071303442846BDE8704018474FF0B5
:10346000FF3070BD70B505460C460A2000E06D1CAB
:1034700000F056F835B128780028F8D102E0641C35
:1034800000F04EF814B120780028F8D1BDE8704063
:103490000A2000F045B8000010B5002102A0FFF797
:1034A000E1FF012010BD0000534947414252543A08
:1034B0002041626E6F726D616C207465726D696E11
:1034C0006174696F6E00000010B5014602A0FFF73D
:1034D000C9FF012010BD00005349475254524544D2
:1034E0003A2052656469726563743A2063616E279D
:1034F00074206F70656E3A200000000000DE2DE938
:10350000F04117460E46054633B107FB0354E41B52
:103510002046B047A542FAD1A5F10800BDE8F081E8
:1035200008B569468DF800000320ABBE08BD000059
:103530002DE9F0411F46044603260168072A01F4DD
:10354000006004DB08B116A505E016A503E008B18C
:1035500015A500E015A521F010002060A069C01E8F
:10356000A0610FB1401EA0612046FDF750F84FB199
:10357000D4E9012138469047206A401C2062C01CD3
:10358000206206E0206AFAE7D4E9012115F8010B70
:103590009047761EF8D22046FDF74FF8BDE8F0813F
:1035A0004E414E006E616E00494E4600696E6600E7
:1035B0002DE9F047814616468AB0334878440DC855
:1035C0008DE80D0030487844801C03AC0DC884E8B9
:1035D0000D0041F69B300844372190FBF1F290FB3F
:1035E000F1F5A5F1800501FB12041B3C02D56442F4
:1035F000012000E00020DFF890A080460027FA4478
:10360000AAF1BE0A0DE0E00709D03246684607EB92
:1036100047010AEB810100F06AFD8DE807006410A4
:103620007F1C002CEFD1184F7F44AC3F18E0E80717
:1036300014D007EB04100DF1180A90E80E008AE888
:103640000E00C068F04201D198190890324606A9D0
:1036500003A800F04CFD03AB83E807006D10641C69
:10366000002DE4D132466946B8F1000F03A802D01C
:1036700000F015FD01E000F03AFDC9E90001C9F8CC
:1036800008200AB0BDE8F087A4FE000010B501468E
:10369000C268900703D0900607D5886A0AE0FDF754
:1036A0002DFB01210160881E10BD8B6948681844FC
:1036B0000B69C01A91F848301BB191F84910401AB3
:1036C00010BD1103FCD50028FADD401E10BD00001E
:1036D0002DE9FF4F1F464FF03C0987B04FF00042E5
:1036E000DDE9141001F10108DDF858A002EA4050AC
:1036F0000390002005908346054604460490B9696E
:10370000461E08988847AAF1010A0290BAF1000FF4
:103710003BDD02982E2815D01021FFF771F8002804
:103720002EDB4FF0010B0599014317D0B9F1000FC3
:103730000BDB4A46C11700F003FA05430C43A9F11D
:10374000040905E0012004900BE008B145F00105F3
:1037500001200590049820B9361D02E0049800B1BC
:10376000361FB969089808F101088847BBF1000FB6
:10377000AAF1010A0290C9D00999C1F80080C5E7F1
:103780000298702808D0502806D0F9690898884710
:10379000BBF1000F14D04FE0002002900120BBF1DC
:1037A000000F049009D0B969089808F1010888470A
:1037B000AAF10109B9F1000F07DCF96908988847F7
:1037C0006FF001000BB0BDE8F08F2B2804D02D283E
:1037D0000CD14FF0FF300490B969089808F1010846
:1037E0008847A9F10109B9F1000FE6DD411CE4D0D9
:1037F0000A21FFF705F80028DFDB029908F101082C
:1038000001EB810100EB41000290B96908988847FB
:103810000A21FEF7F5FF099AA9F10109B9F1000F94
:10382000C2F8008001DD0028E7DAF96908988847C6
:103830000499029800FB016655EA040004D004F0E4
:103840004041090002D006E0039898E0A40044EA51
:103850009574AD00B61E04F00041080002D16D1948
:103860006441761E159810F0240F03D04FF00B0919
:103870005C4803E04FF028096FF07D008246564512
:1038800007DAAAEB06018944B9F1410F01DD4FF0D7
:10389000410901200021A9F1010200F051F902467D
:1038A00028400B462140084301D0012100E00021BF
:1038B000501E029143F1FF3128402140084301D0BE
:1038C000012000E000200299834651EA0B014FD00D
:1038D000002108464FF00000039900F4400039B180
:1038E00000EB80004FF4400100EBD07001EA600073
:1038F0008015012802DD4FF0FF3000E013D0401C9E
:1039000036D0029860B3BBF1000F0CD14A460120BB
:10391000002100F015F928402140084301D0012082
:1039200000E00020E0B101204A46002100F008F943
:10393000034640190A4661412D1A8C4111D3B9F151
:10394000400F09DD159810F0240F02D0AAF13406BB
:1039500003E0AAF1170600E0761C00254FF00044B2
:1039600006E05B1E42F1FF3220EA030521EA020471
:10397000CAF10100B04206DA1B49039808430190DE
:10398000002000900EE0039AC4F3D321E80A0A4312
:10399000164940EA44500A433146CDE900026846E0
:1039A0000AF0E8FF159810F0240F0BD01598C00707
:1039B00015D13868DDE90012031D3B600068C0E9DD
:1039C00000120CE002A869460AF082FE1598C007B2
:1039D00005D13868029A011D3960006802604046CE
:1039E000F0E6000002FCFFFF0000F07F0000F03F67
:1039F0002DE9FF4F92461D4685B04FF00041DDE9AD
:103A0000124BDDE914727F1E01EA4B50414940F030
:103A1000FF4940EA0108002122F0200049280491D2
:103A200002D04E2828D04CE03BA0012607C88DE8E4
:103A30000700A9690698641C88477F1E014606D4C2
:103A40001DF8060018B121F0200181420BD0E96970
:103A500006988847032E34D0082E32D06FF001002C
:103A600009B0BDE8F08F761C032E01D0082EE0D1FE
:103A7000601CCAF80000DCE7A9690698641C884746
:103A80007F1E2AD420F02000412826D1A96906985B
:103A9000641C88477F1E20D420F020004E281CD1B3
:103AA000A9690698641C88477F1E48F4002849F4D9
:103AB0008009CAF8004001D4282806D0E969069890
:103AC00088475FEACB7012D022E0A9690698641C8F
:103AD00088477F1E01D4002803DAE96906988847E1
:103AE000BCE72928F1D1641CCAF80040E9E71BF0C3
:103AF000240F07D028680499031D2B600068C0E9D3
:103B0000001805E02868021D2A600068C0F80090CF
:103B10002046A5E70000F07F494E46494E495459DA
:103B2000000000002DE9F04116461F460C46851B9B
:103B300002E02846B847AD1B641EFAD2BDE8F0810A
:103B4000B2F120030AD5C2F1200301FA02F120FAF2
:103B500003F300FA02F041EA0301704700FA03F1AF
:103B60004FF0000070475FEA400C08BF91F0000F73
:103B70004FEA8C234FEAC12243EA51514FEA1C50CD
:103B800018BF00F5F0404FEA300018BF41F0004187
:103B90005FEA6C5C00F02980BCF1FF3F08BF40F099
:103BA00080407047130C06BF12044FF0100C4FF00A
:103BB000000C130E04BF12020CF1080C130F04BF0B
:103BC00012010CF1040C930F04BF92000CF1020CD3
:103BD000D30F04BF52000CF1010C11464FF000024C
:103BE000A0F11F00A0EB0C00704711F0004F08BFC0
:103BF000704731F000413FF4D5AF0B0C06BF09040C
:103C00004FF0100C4FF0000C0B0E04BF09020CF12A
:103C1000080C0B0F04BF09010CF1040C8B0F04BF3F
:103C200089000CF1020CCB0F04BF49000CF1010C10
:103C3000CCF12003A0EB0C0022FA03F302FA0CF201
:103C400041EA030100F10100704720F07F4C80EA57
:103C5000030023F07F47ACEB070303F57C5300F030
:103C6000004003F1FF032DE980494FEA154B09B4E9
:103C70004FEA144325EA0B4E24EA03480FF20426C8
:103C800006EB132749083E785FEA320203FB06671A
:103C9000C7F5000707FB06F64FEA54374FEAD6464A
:103CA00006F1020607FB066CCCF1005C4FEA1C47EC
:103CB0002CEA074C07FB06F40CFB06F504EB154653
:103CC0004FEA961634BF00204FF000404FEAD1373C
:103CD00006FB07FC4FEA1C4C0CFB0BF7D21B03FB4B
:103CE0000CF761EB07010CFB0EF7B0EB074072EB32
:103CF00017420CFB08F734BFA2EB0742B2EB0742B6
:103D000061EB17414FEA0C444FEA910706FB07FCB1
:103D10004FEA1C4C0CFB0BF7B0EBC74072EB573271
:103D200003FB0CF734BFA2EBC742B2EBC74261EB17
:103D300057310CFB0EF7B0EBC70072EB57720CFB60
:103D400008F734BFA2EBC702B2EBC70261EB5771B1
:103D5000039F4FEA816141EA921104EBCC044FEAE0
:103D6000D1374FEA826206FB07FC42EA90124FEA23
:103D700080604FEA1C4C0CFB0BF7D21B03FB0CF7CB
:103D800061EB07010CFB0EF7B0EB074072EB17423B
:103D90000CFB08F734BFA2EB0742B2EB074261EB22
:103DA00017414FEA8C554FEA910704EB9C2406FB20
:103DB00007FC4FEA1C4C0CFB0BF7B0EBC74072EB57
:103DC000573203FB0CF734BFA2EBC742B2EBC7423A
:103DD00061EB57310CFB0EF7B0EBC70072EB57727B
:103DE0000CFB08F734BFA2EBC702B2EBC70261EBD2
:103DF000577115EB4C254FEA816141EA92114FEA68
:103E000082624FEAD13742EA901206FB07FC44F186
:103E100000044FEA80604FEA1C4C0CFB0BF7D21BEE
:103E200003FB0CF761EB07010CFB0EF7B0EB07404F
:103E300072EB17420CFB08F734BFA2EB0742B2EB60
:103E4000074261EB174115EB1C154FEA813141EA3E
:103E500092414FEA823242EA90424FEA80304FEA82
:103E60000C7644F1000448EA03434EEA0B484FF055
:103E7000000EB2EB080C71EB030724BF6246394613
:103E80004EEB0E0E4FF0000B0018524149414BEB28
:103E90000B0BB2EB080C71EB03077BF1000B24BF9B
:103EA000624639464EEB0E0E4FF0000B00185241A1
:103EB00049414BEB0B0BB2EB080C71EB03077BF1A9
:103EC000000B24BF624639464EEB0E0E51EA020744
:103ED00018BF46F0010616EB0E7655F1000254F1BC
:103EE000000103D5BDE88901BDE80088BDE889016E
:103EF000BDE80048B619524141EB0101A3F10103AD
:103F0000704780807F7E7D7C7B7A79787776767546
:103F10007473727171706F6E6E6D6C6C6B6A6A69BE
:103F20006868676666656464636362616160605F58
:103F30005F5E5E5D5D5C5C5B5B5A5A5959585857D1
:103F40005756565555555454535352525251515039
:103F500050504F4F4F4E4E4D4D4D4C4C4C4B4B4B8C
:103F60004A4A4A49494948484847474747464646D2
:103F7000454545444444444343434342424242410D
:103F80004141000046EA0646A3F570534FEA164643
:103F900046EA42564FEAD22242EA415210B54FEA6F
:103FA000D121A3F1010300F017F820F0004000F147
:103FB000010C00F0004701EB00501146BCF5006F0A
:103FC00040EA070000D210BD02484FF0000140EA6D
:103FD000070010BD0000F07F002B26D4770021D011
:103FE0001CB54FEA370703B44FF010004FF0100133
:103FF0004FF000000FBCBDE810400BF1010BBBF10E
:10400000010F08BF5FEA170722BF12F1010211F189
:1040100001014FF0004143F1000300F0004043EA8A
:1040200000007047F9D35708DAE746EA064613F16D
:10403000400F4FEA16461FDD13F1200FDFBF164376
:104040000A46002120335B42C8D0C3F1200746EA6C
:10405000064602FA07F74FEA164646EA0706C3F194
:10406000200722FA03F201FA07F721FA03F14FF0D1
:10407000000342EA0702B1E746EA020646EA0646BC
:104080004FEA164646EA0106BCBF46EA0646360C2B
:104090004FF000034FF000024FF000019EE72DE9C2
:1040A000C048934630B491E8380007C831EA400C64
:1040B00048BF34EA430C03D5FFF7C7FDFFF78CFF79
:1040C000F0BCBDE800882DE9C048934630B491E8C3
:1040D000380007C831EA400C48BF34EA430C03D526
:1040E000FFF7B3FDFFF74EFFF0BCBDE800882DE9F8
:1040F000C048934630B491E8380007C810F0804FAC
:1041000008BF13F0804F03D100F019F8FFF764FFE8
:10411000F0BCBDE800882DE9C048934630B491E872
:10412000380007C810F0804F08BF13F0804F03D14C
:1041300000F005F8FFF726FFF0BCBDE8008820F08E
:104140007F4780EA030023F07F4C07EB0C03A3F5C5
:104150007C5300F00040A3F1FE0392F0000F00F04A
:10416000B38095F0000F00F077802DE901494FEA08
:1041700011404FEA144621EA004800FB06FC24EAFD
:10418000064708FB06F607FB08F800FB07F718EBE5
:1041900006484CEB164C4FEA124B18EB07484FEA17
:1041A00015464CEB174022EA0B4E0BFB06FC25EAAA
:1041B00006470EFB06F607FB0EFE0BFB07F71EEB92
:1041C000064E4CEB164C4FF000061EEB074E4CEB28
:1041D000174B18EB0B0840F1000018EB0E0B58EBD7
:1041E000000840F100008F1A4FF000013CBFC943A6
:1041F000661B14BFB5EB040C00213CBFC943F61B82
:104200004FEA17444EEA8E0E27EA04454FEA1C4750
:1042100004FB07622CEA074C05FB07F70CFB05F6CD
:1042200004FB0CFC16EB074642EB174216EB0C4660
:1042300042EB1C421BEB060658EB0202414146EAE8
:104240009E0601D5BDE80189B619524141EB010135
:10425000A3F10103BDE801894FEA14454FEA114774
:1042600024EA054621EA074C05FB07F406FB07F79D
:104270000CFB06F105FB0CFC11EB074144EB17446A
:104280004FEA124711EB0C4144EB1C4422EA074C65
:1042900005FB07F206FB07F70CFB06F605FB0CFC1B
:1042A00016EB074642EB174216EB0C4642EB1C4559
:1042B0006A1854F1000148BF7047B619524141EBEA
:1042C0000101A3F10103704795F0000F37D04FEAC9
:1042D00011424FEA144721EA024624EA074C02FB46
:1042E00007F106FB07F70CFB06F402FB0CFC14EBD2
:1042F000074441EB17414FEA154714EB0C4441EBDF
:104300001C4125EA074C02FB07F506FB07F70CFBEF
:1043100006F602FB0CFC16EB074645EB174516EBC1
:104320000C4645EB1C42121951F1000148BF704781
:10433000B619524141EB0101A3F1010370474FEA65
:1043400014454FEA114724EA054621EA074C05FBCC
:1043500007F106FB07F70CFB06F24FF0000605FB22
:104360000CFC12EB074241EB174112EB0C4251EBF4
:104370001C4148BF7047921841EB0101A3F10103B2
:10438000704738B504466846AFF3008001462046C2
:104390000DF0CCFE38BD000001221021014801F0D3
:1043A00042BB00000000024000221021014801F041
:1043B0003ABB000000000240704700000122114695
:1043C000014801F030BB000000040240002201213E
:1043D000014801F028BB000000040240704770B59E
:1043E000411E8CB22CBF4FF47A7570BD4FF47A70B9
:1043F000B0FBF5F001F0CEF9611E8CB2F6D270BDC3
:104400004FF47A71B0FBF1F001F0C4B910B5FFF7C9
:10441000D3FFFFF7E3FF0AF0BFFA04460AF046FBBA
:10442000204310BD2DE9F04383B007460020164617
:10443000884600900190FFF7B7FF922000F0BEF889
:104440006D460624922000F0B9F8552000F0B6F829
:1044500005F8010B601E10F0FF04F6D1FFF79CFF7A
:104460009DF801009DF80010000200B2084300EE24
:10447000100ADFF84091B8EEC00AD9ED000A20EE2C
:10448000200A88ED000A9DF803009DF80210000242
:1044900000B2084300EE100AF8EEC00A99ED000AD7
:1044A00060EE800AC8ED010A9DF805009DF8041031
:1044B000000200B2084300EE900AF8EEE00A20EE97
:1044C000800A88ED020AFFF781FF6D4608248020EC
:1044D00000F074F8552000F071F805F8010B601E2B
:1044E00010F0FF04F6D1FFF769FF9DF800000F28D8
:1044F00030D19DF803009DF80210000200B208437D
:1045000000EE100AD9ED010AB8EEC00A20EE200A2A
:1045100087ED000A9DF805009DF80410000200B226
:10452000084300EE100AF8EEC00A99ED010A60EEA9
:10453000800AC7ED010A9DF807009DF806100002E9
:1045400000B2084300EE900AF8EEE00A20EE800A7E
:1045500087ED020AFFF728FFA22000F02FF86D4632
:104560000224A22000F02AF8552000F027F805F8D0
:10457000010B601E10F0FF04F6D1FFF70DFF9DF850
:1045800000009DF80110C00040EA5110B0F5806FA6
:10459000A8BFA0F5006000EE100AB4EE001AF8EE15
:1045A000C00A9FED050A00EE810A86ED000A03B0FD
:1045B000BDE8F0831C0100200000344201B582B048
:1045C0004FF47A700090012301AA02A9034802F077
:1045D000B1FF9DF8040003B000BD0000F40300200B
:1045E000FEE70000014800F0B6BB0000FC0200201E
:1045F00030B52A4D83B04FF4007028600020A860C9
:10460000E860082005F130042861208802AB010A27
:104610008DF800108DF80100208C6A46010A8DF893
:1046200002108DF80300B4F84000010A8DF8041060
:104630008DF80500B4F86000010A8DF806108DF8B9
:104640000700A4F13001164800F0E4F940F2FF1031
:104650002860B4F8800002AB010A8DF800108DF8D4
:104660000100B4F8A0006A46010A8DF802108DF826
:104670000300B4F8C000010A8DF804108DF805009D
:10468000B4F8E000010A8DF806108DF80700A4F1D7
:104690003001034800F0BEF903B030BDB87000200F
:1046A000FC020020014800F056BB0000240300205B
:1046B00030B52B4D83B04FF4007028600020A86007
:1046C000E860082005F118042861B4F8600102AB25
:1046D000010A8DF800108DF80100B4F880016A46D7
:1046E000010A8DF802108DF80300B4F8A001010A48
:1046F0008DF804108DF80500B4F8C001010A8DF89A
:1047000006108DF80700A4F11801164800F082F990
:1047100040F2FF102860B4F8E00102AB010A8DF806
:1047200000108DF80100B4F800026A46010A8DF805
:1047300002108DF80300B4F82002010A8DF804106D
:104740008DF80500B4F84002010A8DF806108DF8C6
:104750000700A4F11801034800F05CF903B030BD74
:10476000D0700020240300204FF08055094C0CF03D
:1047700065FAFFF73DFFFFF79BFF0CF05BFF20B9E9
:104780002560BFF34F8FBFF36F8F0A200BF05EF8E9
:10479000EDE7000004ED00E00020704700207047C6
:1047A00010B500220449054806F0B9FC0449034845
:1047B00006F0ABFC002010BD601C00206809002042
:1047C0006014002010B50988044689B208F093F9F6
:1047D0002146044806F099FC024806F075FC0020CA
:1047E00010BD000068090020002070470A460949F2
:1047F00010B5D1F8BC12D1F8141200291CBF012049
:1048000010BD0146034806F08AFCBDE8104001488F
:1048100006F00EBD680900201C20FBF707FE0546C8
:104820000BF008FF184C284694ED000AB8EEC00AB9
:104830000BF0E4FE94ED000A2846B8EEC00A0BF037
:10484000DDFE94ED000A2846B8EEC00A0BF0D6FE55
:1048500094ED000A2846B8EEC00A0BF0CFFE94EDA6
:10486000000A2846B8EEC00A0BF0C8FE0AF02EFC7B
:104870002846FBF70AFE0AF07BFC0AF02DFC0A2012
:104880000AF0E4FFF7E70000F4760020014800F0AA
:104890009DBD000048080020014800F097BD0000C1
:1048A0004C040020014800F091BD0000A808002041
:1048B000014800F08BBD0000AC040020014800F06E
:1048C00085BD000088070020014800F07FBD000082
:1048D00008090020014800F079BD0000E807002029
:1048E0002D4882B00068016811F0200F04D00168E3
:1048F0004068009002B070472849096811F0100F15
:1049000004BF02B07047016840680090244A1068F4
:104910000168244B11F4002F01684FF0240C21F0A2
:10492000010101601BD011684868C0F1240080B209
:104930001880C1F804C01C498B6A23F400238B62E1
:1049400011680A6842F001020A6012281CBF02B016
:104950007047164902B001F13A000BF0EBBC106849
:104960004168C1F1240189B21980C0F804C01068FF
:10497000036843F4002303601068026842F00102F8
:10498000026012291CBF02B07047084902B001F151
:1049900016000BF0CFBC00000007002000480040CC
:1049A000480800206C01002000600240A87300202D
:1049B000704710B5202000F013FFBDE810408020A4
:1049C00000F00EBF70470A200AF040FFFBE701F03D
:1049D0002FB8000010B501F02BF800EE100A9FED83
:1049E000031AF8EE400A80EE810A10BD00007A44F6
:1049F00090F82020012A18BF022A05D0416A41F40C
:104A00008021416201207047006842691143416181
:104A10000020704770B490F82040D0F800C0DCF857
:104A200008C0012C18BF022C06D0416A41F4802135
:104A3000416270BC012070471CF0E05F55D0CCF3A0
:104A4000016CBCF1020F06D9416A41F400014162D8
:104A500070BC01207047012404FA0CF41C608B68C0
:104A60004FF4C0749BB1CD6804EB0C162B434D681A
:104A700043EAC5030568AB514FF4C273066803EB04
:104A80000C130D69F550097D01290ED108E00D8840
:104A9000CB6804EB0C1643EA45530568AB51EBE7D2
:104AA0000168CD5845F48075CD501179D2F80530A4
:104AB0004FF4C67541EA0321036805EB0C15595103
:104AC0001178D2F801204FF4C47341EA0222016840
:104AD00003EB0C13CA50006804EB0C11425842F06F
:104AE0000102425070BC00207047416A41F400113D
:104AF000416270BC0120704790F82020012A18BF45
:104B0000022A05D0416A41F48021416201207047A8
:104B10003D48D0F8002242F00102C0F80022D0F84F
:104B2000002222F47C52C0F80022D0F800224B6A06
:104B300042EA0322C0F800220A7D012302F01F028C
:104B400003FA02F2D0F81C329343C0F81C32CB694E
:104B5000D3B9D0F80C329343C0F80C32B1F80CC082
:104B60004B686CF31F43D1F814C000EBCC0CCCF8AD
:104B70004032B1F808C00B686CF31F43D1F814C081
:104B800000EBCC0CCCF84432CB69012B1AD1D0F815
:104B90000C321343C0F80C32B1F800C04B686CF310
:104BA0001F43D1F814C000EBCC0CCCF84032B1F864
:104BB00008C0CB686CF31F43D1F814C000EBCC0CD9
:104BC000CCF844328B69002BD0F804320CBF9343ED
:104BD0001343C0F804320B69002BD0F814320CBF19
:104BE00093431343C0F81432096A012904D1D0F861
:104BF0001C121143C0F81C12D0F8001221F0010160
:104C0000C0F800120020704700640040704710B4E4
:104C100090F820C0BCF1010F18BFBCF1020F06D004
:104C2000416A41F48021416210BC01207047D0F8F4
:104C300000C029B1DCF810C01CF0030F7DD004E0E7
:104C4000DCF80CC01CF0030F7ED04FF4D87C046855
:104C50000CEB011C54F80C4014F00404946004683C
:104C600054F80C4007BF640D1460E40854600468F5
:104C700054F80CC00CF0020CC2F80CC04FF4DA7CF3
:104C800004680CEB011C54F80C4004F00F04146190
:104C9000046854F80C40C4F307249461046854F881
:104CA0000CC04FEA1C4CC2F814C04FF4DC72D0F8B0
:104CB00000C002EB01125CF802C083F800C0D0F81B
:104CC00000C05CF802C04FEA1C2C83F801C0D0F889
:104CD00000C05CF802C04FEA1C4C83F802C0D0F858
:104CE00000C05CF80220120EDA704FF4DE72D0F8C9
:104CF00000C002EB01125CF802C083F804C0D0F8D7
:104D000000C05CF802C04FEA1C2C83F805C0D0F844
:104D100000C05CF802C04FEA1C4C83F806C0D0F813
:104D200000C05CF80220120EDA71006800290CBF86
:104D3000C168016941F0200100E005E00CBFC160DD
:104D40000161002010BC7047416A41F400114162CA
:104D500010BC012070472DE9F05F05460068002473
:104D60004669D0F804908768D0F80CB0D0F810A04D
:104D7000D0F8188016F0010F25D017F0010F07D0DA
:104D80000121816017F0020F7CD0284600F08BFAD9
:104D900017F4807F09D029684FF48070886017F479
:104DA000007F70D0284600F080FA17F4803F0AD0C8
:104DB00029684FF48030886017F4003F00F0B98014
:104DC000284600F074FA16F0080F18BF1BF0100FF9
:104DD00004D02968102044F40074C86016F0040F51
:104DE0004FF0080718BF1BF0080F04D02868C760F1
:104DF000284600F0D7F916F0020F07D02868C068DF
:104E000010F0030F1CBF284600F0CEF916F0400F3B
:104E100018BF1AF0100F04D02968102044F48064E1
:104E2000086116F0200F18BF1AF0080F04D0286888
:104E30000761284600F002FA16F0100F07D0286824
:104E4000006910F0030F1CBF284600F0F8F916F4B3
:104E5000003F18BF19F0100F05D0296810204860D6
:104E6000284600F0EDF916F4803F18BF19F0080F3E
:104E700004D028684760284600F01AFA16F4004F5C
:104E800078D001E035E044E019F0040F6FD016F45B
:104E9000807F1CBF18F0010F44F0010416F4007F5E
:104EA0001CBF18F0020F44F0020416F4806F1CBF00
:104EB00018F0040F44F0040416F4006F18BF18F043
:104EC000700F54D008F07000402808BF44F0400430
:104ED00048D03EDC102808BF44F0080442D0202807
:104EE00008BF44F010043DD0302808BF44F020042F
:104EF00038E017F0040F18BF4FF400647FF448AF98
:104F000017F0080F0ABF28464FF4805400F0CAF982
:104F10003EE717F4806F18BF44F400547FF445AFA8
:104F200017F4006F0ABF284644F4804400F0BCF92F
:104F30003BE717F4802F18BF44F400447FF443AFDD
:104F400017F4002F0ABF284644F4803400F0AEF96D
:104F500039E7502808BF44F0800403D0602808BF18
:104F600044F480742868816921F0700181612968A6
:104F700004204860002C08BFBDE8F09F686A204309
:104F800068622846FFF742FEBDE8F09F002804BF94
:104F90000120704770B5044690F82000002804BF37
:104FA000204600F087F82068016841F001010160A7
:104FB00000F03EFD0546206840684FF0050610F001
:104FC000010F09D100F034FD401B0A2816D82068D3
:104FD000406810F0010FF5D02068016821F002014F
:104FE000016000F025FD05462068406810F0020FC2
:104FF00011D000F01DFD401B0A2807D9606A40F45B
:105000000030606284F82060012070BD2068406834
:1050100010F0020FEDD1207E0128206801680CBF3E
:1050200041F0800121F080010160607E012820684C
:1050300001680CBF41F0400121F040010160A07EF9
:105040000128206801680CBF41F0200121F02001F7
:105050000160E07E0128206801680CBF21F010018A
:1050600041F010010160207F0128206801680CBF19
:1050700041F0080121F008010160607F01282068EB
:1050800001680CBF41F0040121F004010160D4E982
:1050900002010843D4E90412114308436168491E20
:1050A00008432168C86100206062012084F8200064
:1050B000002070BDF0B587B00021354E0091019100
:1050C00002910391049101683068324B0224092552
:1050D000314A401CA1F180474FF0030CB7F5C84797
:1050E00010D0B7F580671CBF07B0F0BD116841F064
:1050F000806111601168012801F0806105913060C4
:105100002BD122E03060012807D1106840F00070F8
:105110001060106800F000700590186840F00800FA
:1051200018601868CDE900C400F00800CDE904500B
:105130006946CDF80CC0194800F05EFB002205213D
:10514000142001F005F814201EE0106840F00070F3
:105150001060106800F000700590186840F00200C0
:1051600018601868694600F0020005906020CDE9DB
:105170000004CDE903C50A4800F03EFB00220521EA
:10518000402000F0E5FF402000F0D2FF07B0F0BD66
:105190001C0000203038024040380240000C024021
:1051A000000402407047000010B58AB004466B4608
:1051B00002AA0021FFF72BFD1E481F4984420298D6
:1051C00001EB40101AD1A0F580402038428842817E
:1051D000BDF8002052BA4280BDF8022052BA828047
:1051E000BDF8042052BAC2809DF8062002720298CF
:1051F00001EB4010A0F58040203817E0A0F57B506F
:1052000042884281BDF8002052BA4280BDF8022097
:1052100052BA8280BDF8042052BAC2809DF806209E
:105220000272029801EB4010A0F57B500AF00AFCD4
:105230000AB010BDFC020020E870002070477047E3
:10524000704770B5044690F82000012804D0606AC9
:1052500040F4002060621BE0022084F820002068F7
:10526000016821F00101016000F0E2FB05462068C1
:10527000406810F0010F12D000F0DAFB401B0A2842
:1052800008D9606A40F400306062052084F820008C
:10529000012070BD2068406810F0010FECD10020A3
:1052A000606270BD704770477047704770477047C5
:1052B0007047002804BF0120704710B504464079AC
:1052C00020B900202071204600F004F80120607110
:1052D000002010BD006881B0A0F18041B1F50C3113
:1052E0001CBF01B070470548016841F4805101605E
:1052F000006800F48050009001B0704730380240E0
:105300002DE9F0410446866D00F092FB054694F8C5
:1053100035000027022806D08020606584F83470AC
:105320000120BDE8F0812068016821F016010160CC
:105330002068416921F080014161206C002804BF90
:10534000A06C002804D02068016821F008010160E9
:105350002068016821F0010101602068006810F0F8
:10536000010F12D000F064FB401B052808D9202053
:105370006065032084F8350084F83470BDE8F0815E
:105380002068006810F0010FECD194F85C003F2118
:1053900001FA00F0B060012084F8350084F8347020
:1053A0000020BDE8F08190F83510022903D080215B
:1053B000416501207047052180F8351000680168BB
:1053C00021F0010101600020704700002DE9F84341
:1053D00004464FF00008CDF8008071484FF4165194
:1053E000A56D0068B0FBF1F72E6894F85C00082109
:1053F00001FA00F0304211D02068026812F0040F68
:105400000CD0026822F00402026094F85C0001FAF9
:1054100000F0A860606D40F00100606594F85C00E9
:105420004FF0010909FA00F0304209D021684969BA
:1054300011F0800F04D0A860606D40F0020060653C
:1054400094F85C1004208840304209D02168096833
:1054500011F0020F04D0A860606D40F00400606598
:1054600094F85C1010208840304220D021680968F0
:1054700011F0080F1BD0A8602068016811F4802F7C
:1054800009D0006810F4002F02D0A16C79B10CE0B3
:10549000216C51B90BE0016811F4807F03D10168E0
:1054A00021F008010160216C09B12046884794F879
:1054B0005C1020208840304249D02168096811F0F2
:1054C000100F44D0A86094F83500052820680168C2
:1054D00009D011F4802F2AD0006810F4002F23D0B7
:1054E000E16B19B331E021F01601016020684169D8
:1054F00021F080014161206C002804BFA06C0028CD
:1055000004D02068016821F00801016094F85C0073
:105510003F2101FA00F0A86084F8359084F83480C7
:10552000216DC1BBBDE8F883616C71B90FE0016802
:1055300011F4807F07D1016821F01001016084F827
:10554000359084F83480E16B09B120468847606D5E
:10555000002808BFBDE8F883606D10F0010F15D07A
:10556000052084F835002068016821F00101016000
:105570000098401C0090B84204D82068006810F0E1
:10558000010FF5D184F8359084F83480E16C00295E
:1055900008BFBDE8F883204601B0BDE8F0430847E6
:1055A0009800002070B5044600F042FA0646002C30
:1055B00004BF012070BD022084F83500002584F866
:1055C00034502068016821F0010101602068006802
:1055D00010F0010F0FD000F02BFA801B052805D921
:1055E00020206065032084F8350070BD20680068C5
:1055F00010F0010FEFD1216808683B4A1040D4E950
:1056000001231A43D4E9033C43EA0C031A436369B8
:105610001A43A3691A43E3691A43236A1A431043DE
:10562000626A042A03D1D4E90B231A4310430860A9
:1056300026687069012320F00701606A40EA0102D0
:10564000042838D1A16AE06A0A4330B3D4F818C0FC
:10565000BCF1000F0AD0BCF5005F14D000291CBFBC
:105660000129022921D003291CD024E019B10129E4
:1056700005D002291FD110F0807F1CD015E0B0F1B9
:10568000C07F18D111E081B1012907D002290CD0C7
:10569000032908BFB0F1C07F07D00CE010F0807F75
:1056A00003D108E010F0807F05D04020606584F8C9
:1056B0003530012070BD726120680C4AC1B21039CA
:1056C000A2FB01210A4A09090329525CE2656FF332
:1056D000090088BF001D3F219140A065816065657C
:1056E00084F83530002070BD3F8010F0ABAAAAAA24
:1056F000C830010870B490F834C00024856DBCF146
:10570000010F02BF022070BC70474FF0010C80F8FF
:1057100034C090F835604FF0000C012E1CBF80F8AB
:1057200034C0022402D0204670BC7047022680F8A4
:105730003560C0F854C0D0F800C0DCF8006026F432
:105740008026CCF80060D0F800C0CCF80430836824
:10575000402B036803BF9A600268D16099601CBF48
:105760000168CA6090F85C103F2202FA01F1A9605A
:1057700001680A6842F016020A60016C21B10168F2
:105780000A6842F008020A600068016841F00101FD
:105790000160C8E770B5044600F04AF90546B4F167
:1057A000FF3F02D004480078044400F041F9401B58
:1057B000A042FAD370BD00008C000020802818BFE2
:1057C000704710B54021044800F028F90146BDE8B3
:1057D000104002480BF01EB800200240806D0020EF
:1057E00004490A68024208BF704710B50860FFF715
:1057F000E5FF10BD143C01402DE9F84FDFF810A281
:105800000022DFF808924FF0010E03274FF00F0837
:105810000AF1040B0B680EFA02FC03EA0C03634561
:1058200040F0EE800C7904F00304012C18BF022C28
:1058300014D18568540007FA04F6B543CE6806FA19
:1058400004F42C438460446824EA0C0C0C79C4F3FF
:105850000014944044EA0C0CC0F804C0D1F804C011
:1058600037EA0C0C0CD0C4684FEA420C07FA0CF56E
:10587000AC438D6805FA0CFC4CEA040CC0F80CC073
:1058800091F804C00CF0030CBCF1020F12D14FEAE6
:10589000D20C00EB8C04256A4FEA427C4FEADC6CA8
:1058A00008FA0CF6B5430E6906FA0CFC4CEA050C36
:1058B000C4F820C004684FEA420C07FA0CF5AC4368
:1058C0000D7905F0030505FA0CFC4CEA040CC0F850
:1058D00000C0D1F804C01CF4403F7CD0D9F800C00F
:1058E0004CF4804CC9F800C0D9F800C00CF4804CCE
:1058F000CDF800C022F0030C0CF1804505F5983579
:10590000D5F808C89407240F08FA04F62CEA06060E
:10591000A0F1804CBCF5003C38D0A0F1804CBCF527
:10592000013C08BF4FF0010C30D0A0F1804CBCF519
:10593000023C08BF4FF0020C28D0A0F1804CBCF50F
:10594000033C08BF4FF0030C20D0A0F1804CBCF505
:10595000043C08BF4FF0040C18D0A0F1804CBCF5FB
:10596000053C08BF4FF0050C10D0A0F1804CBCF5F1
:10597000063C08BF4FF0060C08D0A0F1804CBCF5E7
:10598000073C0CBF4FF0070C4FF0080C0CFA04FC5E
:105990004CEA060CC5F808C8DAF800C04C682CEAD6
:1059A000030C14F4803F18BF4CEA030CCAF800C083
:1059B000DBF800C04C682CEA030C14F4003F18BF5D
:1059C0004CEA030CCBF800C0124CD4F800C04D6870
:1059D0002CEA030C00E013E015F4801F18BF4CEA1A
:1059E000030CC4F800C00C4CD4F800C04D682CEA7D
:1059F000030C15F4001F18BF4CEA030CC4F800C0D8
:105A0000521C102AFFF406AFBDE8F88F443802405C
:105A1000003C0140083C01400C3C0140006908404A
:105A200018BF01207047002A08BF09048161704730
:105A300001488068704700008C000020002804BFE7
:105A40000120704770B5044690F83D00002520B94C
:105A500084F83C50204600F07FFA242084F83D0072
:105A60002068016821F0010101602068016841F4AB
:105A7000004101602068016821F40041016001F0EB
:105A800007FA544B6168994203D85349814203D8BD
:105A900004E05249814201D9012070BD5049226879
:105AA000B0FBF1F1D2F804C02CF03F0C4CEA010C31
:105AB000C2F804C06268934228BF4A1C07D24FF460
:105AC000967251434FF47A72B1FBF2F14A1C21688D
:105AD000D1F820C02CF03F0C42EA0C020A62616847
